{
  "_format": "hh-sol-artifact-1",
  "contractName": "ERC6551Registry",
  "sourceName": "contracts/ERC16551Registry.sol",
  "abi": [
    {
      "inputs": [],
      "name": "InitializationFailed",
      "type": "error"
    },
    {
      "anonymous": false,
      "inputs": [
        {
          "indexed": false,
          "internalType": "address",
          "name": "account",
          "type": "address"
        },
        {
          "indexed": true,
          "internalType": "address",
          "name": "implementation",
          "type": "address"
        },
        {
          "indexed": false,
          "internalType": "uint256",
          "name": "chainId",
          "type": "uint256"
        },
        {
          "indexed": true,
          "internalType": "address",
          "name": "tokenContract",
          "type": "address"
        },
        {
          "indexed": true,
          "internalType": "uint256",
          "name": "tokenId",
          "type": "uint256"
        },
        {
          "indexed": false,
          "internalType": "uint256",
          "name": "salt",
          "type": "uint256"
        }
      ],
      "name": "AccountCreated",
      "type": "event"
    },
    {
      "inputs": [
        {
          "internalType": "address",
          "name": "implementation",
          "type": "address"
        },
        {
          "internalType": "uint256",
          "name": "chainId",
          "type": "uint256"
        },
        {
          "internalType": "address",
          "name": "tokenContract",
          "type": "address"
        },
        {
          "internalType": "uint256",
          "name": "tokenId",
          "type": "uint256"
        },
        {
          "internalType": "uint256",
          "name": "salt",
          "type": "uint256"
        }
      ],
      "name": "account",
      "outputs": [
        {
          "internalType": "address",
          "name": "",
          "type": "address"
        }
      ],
      "stateMutability": "view",
      "type": "function"
    },
    {
      "inputs": [
        {
          "internalType": "address",
          "name": "implementation",
          "type": "address"
        },
        {
          "internalType": "uint256",
          "name": "chainId",
          "type": "uint256"
        },
        {
          "internalType": "address",
          "name": "tokenContract",
          "type": "address"
        },
        {
          "internalType": "uint256",
          "name": "tokenId",
          "type": "uint256"
        },
        {
          "internalType": "uint256",
          "name": "salt",
          "type": "uint256"
        },
        {
          "internalType": "bytes",
          "name": "initData",
          "type": "bytes"
        }
      ],
      "name": "createAccount",
      "outputs": [
        {
          "internalType": "address",
          "name": "",
          "type": "address"
        }
      ],
      "stateMutability": "nonpayable",
      "type": "function"
    }
  ],
  "bytecode": "0x608060405234801561001057600080fd5b50610a51806100206000396000f3fe608060405234801561001057600080fd5b50600436106100365760003560e01c80635e9bc5361461003b578063da7323b31461006b575b600080fd5b6100556004803603810190610050919061049b565b61009b565b6040516100629190610525565b60405180910390f35b610085600480360381019061008091906105a5565b6100cd565b6040516100929190610525565b60405180910390f35b6000806100ab878787878761025f565b8051906020012090506100c18360001b826102b3565b91505095945050505050565b6000806100dd898989898961025f565b905060006100f58660001b83805190602001206102b3565b905060008173ffffffffffffffffffffffffffffffffffffffff163b14610120578092505050610254565b868873ffffffffffffffffffffffffffffffffffffffff168b73ffffffffffffffffffffffffffffffffffffffff167f07fba7bba1191da7ee1155dcfa0030701c9c9a9cc34a93b991fc6fd0c9268d8f848d8b60405161018293929190610663565b60405180910390a461019960008760001b846102c8565b90506000858590501461024e5760008173ffffffffffffffffffffffffffffffffffffffff1686866040516101cf9291906106d9565b6000604051808303816000865af19150503d806000811461020c576040519150601f19603f3d011682016040523d82523d6000602084013e610211565b606091505b505090508061024c576040517f19b991a800000000000000000000000000000000000000000000000000000000815260040160405180910390fd5b505b80925050505b979650505050505050565b6060858286868660405160200161027994939291906106f2565b604051602081830303815290604052604051602001610299929190610888565b604051602081830303815290604052905095945050505050565b60006102c08383306103d2565b905092915050565b60008347101561030d576040517f08c379a000000000000000000000000000000000000000000000000000000000815260040161030490610923565b60405180910390fd5b6000825103610351576040517f08c379a00000000000000000000000000000000000000000000000000000000081526004016103489061098f565b60405180910390fd5b8282516020840186f59050600073ffffffffffffffffffffffffffffffffffffffff168173ffffffffffffffffffffffffffffffffffffffff16036103cb576040517f08c379a00000000000000000000000000000000000000000000000000000000081526004016103c2906109fb565b60405180910390fd5b9392505050565b6000604051836040820152846020820152828152600b810160ff815360558120925050509392505050565b600080fd5b600080fd5b600073ffffffffffffffffffffffffffffffffffffffff82169050919050565b600061043282610407565b9050919050565b61044281610427565b811461044d57600080fd5b50565b60008135905061045f81610439565b92915050565b6000819050919050565b61047881610465565b811461048357600080fd5b50565b6000813590506104958161046f565b92915050565b600080600080600060a086880312156104b7576104b66103fd565b5b60006104c588828901610450565b95505060206104d688828901610486565b94505060406104e788828901610450565b93505060606104f888828901610486565b925050608061050988828901610486565b9150509295509295909350565b61051f81610427565b82525050565b600060208201905061053a6000830184610516565b92915050565b600080fd5b600080fd5b600080fd5b60008083601f84011261056557610564610540565b5b8235905067ffffffffffffffff81111561058257610581610545565b5b60208301915083600182028301111561059e5761059d61054a565b5b9250929050565b600080600080600080600060c0888a0312156105c4576105c36103fd565b5b60006105d28a828b01610450565b97505060206105e38a828b01610486565b96505060406105f48a828b01610450565b95505060606106058a828b01610486565b94505060806106168a828b01610486565b93505060a088013567ffffffffffffffff81111561063757610636610402565b5b6106438a828b0161054f565b925092505092959891949750929550565b61065d81610465565b82525050565b60006060820190506106786000830186610516565b6106856020830185610654565b6106926040830184610654565b949350505050565b600081905092915050565b82818337600083830152505050565b60006106c0838561069a565b93506106cd8385846106a5565b82840190509392505050565b60006106e68284866106b4565b91508190509392505050565b60006080820190506107076000830187610654565b6107146020830186610654565b6107216040830185610516565b61072e6060830184610654565b95945050505050565b600081905092915050565b7f3d60ad80600a3d3981f3363d3d373d3d3d363d73000000000000000000000000600082015250565b6000610778601483610737565b915061078382610742565b601482019050919050565b60008160601b9050919050565b60006107a68261078e565b9050919050565b60006107b88261079b565b9050919050565b6107d06107cb82610427565b6107ad565b82525050565b7f5af43d82803e903d91602b57fd5bf30000000000000000000000000000000000600082015250565b600061080c600f83610737565b9150610817826107d6565b600f82019050919050565b600081519050919050565b60005b8381101561084b578082015181840152602081019050610830565b60008484015250505050565b600061086282610822565b61086c818561069a565b935061087c81856020860161082d565b80840191505092915050565b60006108938261076b565b915061089f82856107bf565b6014820191506108ae826107ff565b91506108ba8284610857565b91508190509392505050565b600082825260208201905092915050565b7f437265617465323a20696e73756666696369656e742062616c616e6365000000600082015250565b600061090d601d836108c6565b9150610918826108d7565b602082019050919050565b6000602082019050818103600083015261093c81610900565b9050919050565b7f437265617465323a2062797465636f6465206c656e677468206973207a65726f600082015250565b60006109796020836108c6565b915061098482610943565b602082019050919050565b600060208201905081810360008301526109a88161096c565b9050919050565b7f437265617465323a204661696c6564206f6e206465706c6f7900000000000000600082015250565b60006109e56019836108c6565b91506109f0826109af565b602082019050919050565b60006020820190508181036000830152610a14816109d8565b905091905056fea264697066735822122048495d957f42c8dffbc628014dc67cf9ca964cfe34de71c4c02769db78fd87c664736f6c63430008130033",
  "linkReferences": {},
  "deployedLinkReferences": {}
}