{
  "_format": "hh-sol-artifact-1",
  "contractName": "WiggleClothing",
  "sourceName": "contracts/WiggleClothing.sol",
  "abi": [
    {
      "inputs": [],
      "stateMutability": "nonpayable",
      "type": "constructor"
    },
    {
      "anonymous": false,
      "inputs": [
        {
          "indexed": true,
          "internalType": "address",
          "name": "owner",
          "type": "address"
        },
        {
          "indexed": true,
          "internalType": "address",
          "name": "approved",
          "type": "address"
        },
        {
          "indexed": true,
          "internalType": "uint256",
          "name": "tokenId",
          "type": "uint256"
        }
      ],
      "name": "Approval",
      "type": "event"
    },
    {
      "anonymous": false,
      "inputs": [
        {
          "indexed": true,
          "internalType": "address",
          "name": "owner",
          "type": "address"
        },
        {
          "indexed": true,
          "internalType": "address",
          "name": "operator",
          "type": "address"
        },
        {
          "indexed": false,
          "internalType": "bool",
          "name": "approved",
          "type": "bool"
        }
      ],
      "name": "ApprovalForAll",
      "type": "event"
    },
    {
      "anonymous": false,
      "inputs": [
        {
          "indexed": false,
          "internalType": "uint256",
          "name": "_fromTokenId",
          "type": "uint256"
        },
        {
          "indexed": false,
          "internalType": "uint256",
          "name": "_toTokenId",
          "type": "uint256"
        }
      ],
      "name": "BatchMetadataUpdate",
      "type": "event"
    },
    {
      "anonymous": false,
      "inputs": [
        {
          "indexed": true,
          "internalType": "address",
          "name": "creator",
          "type": "address"
        },
        {
          "indexed": true,
          "internalType": "string",
          "name": "clothingURI",
          "type": "string"
        },
        {
          "indexed": true,
          "internalType": "string",
          "name": "clothingName",
          "type": "string"
        },
        {
          "indexed": false,
          "internalType": "uint256",
          "name": "clothingPrice",
          "type": "uint256"
        },
        {
          "indexed": false,
          "internalType": "uint256",
          "name": "tokenId",
          "type": "uint256"
        }
      ],
      "name": "ClothingInfoRegistered",
      "type": "event"
    },
    {
      "anonymous": false,
      "inputs": [
        {
          "indexed": false,
          "internalType": "uint256",
          "name": "_tokenId",
          "type": "uint256"
        }
      ],
      "name": "MetadataUpdate",
      "type": "event"
    },
    {
      "anonymous": false,
      "inputs": [
        {
          "indexed": true,
          "internalType": "address",
          "name": "previousOwner",
          "type": "address"
        },
        {
          "indexed": true,
          "internalType": "address",
          "name": "newOwner",
          "type": "address"
        }
      ],
      "name": "OwnershipTransferred",
      "type": "event"
    },
    {
      "anonymous": false,
      "inputs": [
        {
          "indexed": true,
          "internalType": "address",
          "name": "to",
          "type": "address"
        },
        {
          "indexed": false,
          "internalType": "uint256",
          "name": "tokenId",
          "type": "uint256"
        }
      ],
      "name": "TokenMinted",
      "type": "event"
    },
    {
      "anonymous": false,
      "inputs": [
        {
          "indexed": false,
          "internalType": "uint256",
          "name": "tokenId",
          "type": "uint256"
        },
        {
          "indexed": true,
          "internalType": "string",
          "name": "clothingURI",
          "type": "string"
        }
      ],
      "name": "TokenURISet",
      "type": "event"
    },
    {
      "anonymous": false,
      "inputs": [
        {
          "indexed": true,
          "internalType": "address",
          "name": "from",
          "type": "address"
        },
        {
          "indexed": true,
          "internalType": "address",
          "name": "to",
          "type": "address"
        },
        {
          "indexed": true,
          "internalType": "uint256",
          "name": "tokenId",
          "type": "uint256"
        }
      ],
      "name": "Transfer",
      "type": "event"
    },
    {
      "inputs": [
        {
          "internalType": "address",
          "name": "to",
          "type": "address"
        },
        {
          "internalType": "uint256",
          "name": "tokenId",
          "type": "uint256"
        }
      ],
      "name": "approve",
      "outputs": [],
      "stateMutability": "nonpayable",
      "type": "function"
    },
    {
      "inputs": [
        {
          "internalType": "address",
          "name": "owner",
          "type": "address"
        }
      ],
      "name": "balanceOf",
      "outputs": [
        {
          "internalType": "uint256",
          "name": "",
          "type": "uint256"
        }
      ],
      "stateMutability": "view",
      "type": "function"
    },
    {
      "inputs": [
        {
          "internalType": "uint256",
          "name": "tokenId",
          "type": "uint256"
        }
      ],
      "name": "getApproved",
      "outputs": [
        {
          "internalType": "address",
          "name": "",
          "type": "address"
        }
      ],
      "stateMutability": "view",
      "type": "function"
    },
    {
      "inputs": [
        {
          "internalType": "string",
          "name": "clothingURI",
          "type": "string"
        }
      ],
      "name": "getCreatorOfClothingByURI",
      "outputs": [
        {
          "internalType": "address",
          "name": "",
          "type": "address"
        }
      ],
      "stateMutability": "view",
      "type": "function"
    },
    {
      "inputs": [
        {
          "internalType": "address",
          "name": "_address",
          "type": "address"
        }
      ],
      "name": "getTokenIdsByOwnerAddress",
      "outputs": [
        {
          "internalType": "uint256[]",
          "name": "",
          "type": "uint256[]"
        }
      ],
      "stateMutability": "view",
      "type": "function"
    },
    {
      "inputs": [
        {
          "internalType": "uint256",
          "name": "tokenId",
          "type": "uint256"
        }
      ],
      "name": "getTokenURI",
      "outputs": [
        {
          "internalType": "string",
          "name": "",
          "type": "string"
        }
      ],
      "stateMutability": "view",
      "type": "function"
    },
    {
      "inputs": [
        {
          "internalType": "address",
          "name": "owner",
          "type": "address"
        },
        {
          "internalType": "address",
          "name": "operator",
          "type": "address"
        }
      ],
      "name": "isApprovedForAll",
      "outputs": [
        {
          "internalType": "bool",
          "name": "",
          "type": "bool"
        }
      ],
      "stateMutability": "view",
      "type": "function"
    },
    {
      "inputs": [],
      "name": "name",
      "outputs": [
        {
          "internalType": "string",
          "name": "",
          "type": "string"
        }
      ],
      "stateMutability": "view",
      "type": "function"
    },
    {
      "inputs": [],
      "name": "owner",
      "outputs": [
        {
          "internalType": "address",
          "name": "",
          "type": "address"
        }
      ],
      "stateMutability": "view",
      "type": "function"
    },
    {
      "inputs": [
        {
          "internalType": "uint256",
          "name": "tokenId",
          "type": "uint256"
        }
      ],
      "name": "ownerOf",
      "outputs": [
        {
          "internalType": "address",
          "name": "",
          "type": "address"
        }
      ],
      "stateMutability": "view",
      "type": "function"
    },
    {
      "inputs": [
        {
          "internalType": "address",
          "name": "_creator",
          "type": "address"
        },
        {
          "internalType": "string",
          "name": "_clothingURI",
          "type": "string"
        },
        {
          "internalType": "string",
          "name": "_clothingName",
          "type": "string"
        },
        {
          "internalType": "uint256",
          "name": "_clothingPrice",
          "type": "uint256"
        },
        {
          "internalType": "uint256",
          "name": "_tokenId",
          "type": "uint256"
        }
      ],
      "name": "registerClothingInfo",
      "outputs": [],
      "stateMutability": "payable",
      "type": "function"
    },
    {
      "inputs": [],
      "name": "renounceOwnership",
      "outputs": [],
      "stateMutability": "nonpayable",
      "type": "function"
    },
    {
      "inputs": [
        {
          "internalType": "address",
          "name": "_to",
          "type": "address"
        }
      ],
      "name": "safeMint",
      "outputs": [
        {
          "internalType": "uint256",
          "name": "",
          "type": "uint256"
        }
      ],
      "stateMutability": "nonpayable",
      "type": "function"
    },
    {
      "inputs": [
        {
          "internalType": "address",
          "name": "from",
          "type": "address"
        },
        {
          "internalType": "address",
          "name": "to",
          "type": "address"
        },
        {
          "internalType": "uint256",
          "name": "tokenId",
          "type": "uint256"
        }
      ],
      "name": "safeTransferFrom",
      "outputs": [],
      "stateMutability": "nonpayable",
      "type": "function"
    },
    {
      "inputs": [
        {
          "internalType": "address",
          "name": "from",
          "type": "address"
        },
        {
          "internalType": "address",
          "name": "to",
          "type": "address"
        },
        {
          "internalType": "uint256",
          "name": "tokenId",
          "type": "uint256"
        },
        {
          "internalType": "bytes",
          "name": "data",
          "type": "bytes"
        }
      ],
      "name": "safeTransferFrom",
      "outputs": [],
      "stateMutability": "nonpayable",
      "type": "function"
    },
    {
      "inputs": [
        {
          "internalType": "address",
          "name": "operator",
          "type": "address"
        },
        {
          "internalType": "bool",
          "name": "approved",
          "type": "bool"
        }
      ],
      "name": "setApprovalForAll",
      "outputs": [],
      "stateMutability": "nonpayable",
      "type": "function"
    },
    {
      "inputs": [
        {
          "internalType": "uint256",
          "name": "_tokenId",
          "type": "uint256"
        },
        {
          "internalType": "string",
          "name": "_tokenURI",
          "type": "string"
        }
      ],
      "name": "setTokenURI",
      "outputs": [],
      "stateMutability": "nonpayable",
      "type": "function"
    },
    {
      "inputs": [
        {
          "internalType": "bytes4",
          "name": "interfaceId",
          "type": "bytes4"
        }
      ],
      "name": "supportsInterface",
      "outputs": [
        {
          "internalType": "bool",
          "name": "",
          "type": "bool"
        }
      ],
      "stateMutability": "view",
      "type": "function"
    },
    {
      "inputs": [],
      "name": "symbol",
      "outputs": [
        {
          "internalType": "string",
          "name": "",
          "type": "string"
        }
      ],
      "stateMutability": "view",
      "type": "function"
    },
    {
      "inputs": [
        {
          "internalType": "uint256",
          "name": "tokenId",
          "type": "uint256"
        }
      ],
      "name": "tokenURI",
      "outputs": [
        {
          "internalType": "string",
          "name": "",
          "type": "string"
        }
      ],
      "stateMutability": "view",
      "type": "function"
    },
    {
      "inputs": [
        {
          "internalType": "address",
          "name": "from",
          "type": "address"
        },
        {
          "internalType": "address",
          "name": "to",
          "type": "address"
        },
        {
          "internalType": "uint256",
          "name": "tokenId",
          "type": "uint256"
        }
      ],
      "name": "transferFrom",
      "outputs": [],
      "stateMutability": "nonpayable",
      "type": "function"
    },
    {
      "inputs": [
        {
          "internalType": "address",
          "name": "newOwner",
          "type": "address"
        }
      ],
      "name": "transferOwnership",
      "outputs": [],
      "stateMutability": "nonpayable",
      "type": "function"
    },
    {
      "inputs": [
        {
          "internalType": "uint256",
          "name": "amount",
          "type": "uint256"
        },
        {
          "internalType": "address",
          "name": "to",
          "type": "address"
        }
      ],
      "name": "withdraw",
      "outputs": [],
      "stateMutability": "nonpayable",
      "type": "function"
    },
    {
      "stateMutability": "payable",
      "type": "receive"
    }
  ],
  "bytecode": "0x60806040523480156200001157600080fd5b506040518060400160405280600e81526020017f576967676c65436c6f7468696e670000000000000000000000000000000000008152506040518060400160405280600681526020017f574747435448000000000000000000000000000000000000000000000000000081525081600090816200008f919062000412565b508060019081620000a1919062000412565b505050620000c4620000b8620000ca60201b60201c565b620000d260201b60201c565b620004f9565b600033905090565b6000600760009054906101000a900473ffffffffffffffffffffffffffffffffffffffff16905081600760006101000a81548173ffffffffffffffffffffffffffffffffffffffff021916908373ffffffffffffffffffffffffffffffffffffffff1602179055508173ffffffffffffffffffffffffffffffffffffffff168173ffffffffffffffffffffffffffffffffffffffff167f8be0079c531659141344cd1fd0a4f28419497f9722a3daafe3b4186f6b6457e060405160405180910390a35050565b600081519050919050565b7f4e487b7100000000000000000000000000000000000000000000000000000000600052604160045260246000fd5b7f4e487b7100000000000000000000000000000000000000000000000000000000600052602260045260246000fd5b600060028204905060018216806200021a57607f821691505b60208210810362000230576200022f620001d2565b5b50919050565b60008190508160005260206000209050919050565b60006020601f8301049050919050565b600082821b905092915050565b6000600883026200029a7fffffffffffffffffffffffffffffffffffffffffffffffffffffffffffffffff826200025b565b620002a686836200025b565b95508019841693508086168417925050509392505050565b6000819050919050565b6000819050919050565b6000620002f3620002ed620002e784620002be565b620002c8565b620002be565b9050919050565b6000819050919050565b6200030f83620002d2565b620003276200031e82620002fa565b84845462000268565b825550505050565b600090565b6200033e6200032f565b6200034b81848462000304565b505050565b5b8181101562000373576200036760008262000334565b60018101905062000351565b5050565b601f821115620003c2576200038c8162000236565b62000397846200024b565b81016020851015620003a7578190505b620003bf620003b6856200024b565b83018262000350565b50505b505050565b600082821c905092915050565b6000620003e760001984600802620003c7565b1980831691505092915050565b6000620004028383620003d4565b9150826002028217905092915050565b6200041d8262000198565b67ffffffffffffffff811115620004395762000438620001a3565b5b62000445825462000201565b6200045282828562000377565b600060209050601f8311600181146200048a576000841562000475578287015190505b620004818582620003f4565b865550620004f1565b601f1984166200049a8662000236565b60005b82811015620004c4578489015182556001820191506020850194506020810190506200049d565b86831015620004e45784890151620004e0601f891682620003d4565b8355505b6001600288020188555050505b505050505050565b61382e80620005096000396000f3fe6080604052600436106101435760003560e01c806342842e0e116100b6578063a22cb4651161006f578063a22cb4651461049c578063b88d4fde146104c5578063c87b56dd146104ee578063e5c85c2a1461052b578063e985e9c514610547578063f2fde38b146105845761014a565b806342842e0e1461038c5780636352211e146103b557806370a08231146103f2578063715018a61461042f5780638da5cb5b1461044657806395d89b41146104715761014a565b8063095ea7b311610108578063095ea7b31461025a578063162094c41461028357806323b872dd146102ac578063245a73b9146102d55780633bb3a24d1461031257806340d097c31461034f5761014a565b8062f714ce1461014f57806301ffc9a71461017857806303086901146101b557806306fdde03146101f2578063081812fc1461021d5761014a565b3661014a57005b600080fd5b34801561015b57600080fd5b5061017660048036038101906101719190612393565b6105ad565b005b34801561018457600080fd5b5061019f600480360381019061019a919061242b565b610643565b6040516101ac9190612473565b60405180910390f35b3480156101c157600080fd5b506101dc60048036038101906101d791906125d4565b6106a4565b6040516101e9919061262c565b60405180910390f35b3480156101fe57600080fd5b506102076106ec565b60405161021491906126c6565b60405180910390f35b34801561022957600080fd5b50610244600480360381019061023f91906126e8565b61077e565b604051610251919061262c565b60405180910390f35b34801561026657600080fd5b50610281600480360381019061027c9190612715565b6107c4565b005b34801561028f57600080fd5b506102aa60048036038101906102a59190612755565b6108db565b005b3480156102b857600080fd5b506102d360048036038101906102ce91906127b1565b6108f1565b005b3480156102e157600080fd5b506102fc60048036038101906102f79190612804565b610951565b60405161030991906128ef565b60405180910390f35b34801561031e57600080fd5b50610339600480360381019061033491906126e8565b6109e8565b60405161034691906126c6565b60405180910390f35b34801561035b57600080fd5b5061037660048036038101906103719190612804565b6109fa565b6040516103839190612920565b60405180910390f35b34801561039857600080fd5b506103b360048036038101906103ae91906127b1565b610ae3565b005b3480156103c157600080fd5b506103dc60048036038101906103d791906126e8565b610b03565b6040516103e9919061262c565b60405180910390f35b3480156103fe57600080fd5b5061041960048036038101906104149190612804565b610b89565b6040516104269190612920565b60405180910390f35b34801561043b57600080fd5b50610444610c40565b005b34801561045257600080fd5b5061045b610c54565b604051610468919061262c565b60405180910390f35b34801561047d57600080fd5b50610486610c7e565b60405161049391906126c6565b60405180910390f35b3480156104a857600080fd5b506104c360048036038101906104be9190612967565b610d10565b005b3480156104d157600080fd5b506104ec60048036038101906104e79190612a48565b610d26565b005b3480156104fa57600080fd5b50610515600480360381019061051091906126e8565b610d88565b60405161052291906126c6565b60405180910390f35b61054560048036038101906105409190612acb565b610e9a565b005b34801561055357600080fd5b5061056e60048036038101906105699190612b7e565b6110b0565b60405161057b9190612473565b60405180910390f35b34801561059057600080fd5b506105ab60048036038101906105a69190612804565b611144565b005b6105b56111c7565b814710156105f8576040517f08c379a00000000000000000000000000000000000000000000000000000000081526004016105ef90612c0a565b60405180910390fd5b8073ffffffffffffffffffffffffffffffffffffffff166108fc839081150290604051600060405180830381858888f1935050505015801561063e573d6000803e3d6000fd5b505050565b6000634906490660e01b7bffffffffffffffffffffffffffffffffffffffffffffffffffffffff1916827bffffffffffffffffffffffffffffffffffffffffffffffffffffffff1916148061069d575061069c82611245565b5b9050919050565b60006009826040516106b69190612c66565b908152602001604051809103902060009054906101000a900473ffffffffffffffffffffffffffffffffffffffff169050919050565b6060600080546106fb90612cac565b80601f016020809104026020016040519081016040528092919081815260200182805461072790612cac565b80156107745780601f1061074957610100808354040283529160200191610774565b820191906000526020600020905b81548152906001019060200180831161075757829003601f168201915b5050505050905090565b600061078982611327565b6004600083815260200190815260200160002060009054906101000a900473ffffffffffffffffffffffffffffffffffffffff169050919050565b60006107cf82610b03565b90508073ffffffffffffffffffffffffffffffffffffffff168373ffffffffffffffffffffffffffffffffffffffff160361083f576040517f08c379a000000000000000000000000000000000000000000000000000000000815260040161083690612d4f565b60405180910390fd5b8073ffffffffffffffffffffffffffffffffffffffff1661085e611372565b73ffffffffffffffffffffffffffffffffffffffff16148061088d575061088c81610887611372565b6110b0565b5b6108cc576040517f08c379a00000000000000000000000000000000000000000000000000000000081526004016108c390612de1565b60405180910390fd5b6108d6838361137a565b505050565b6108e36111c7565b6108ed8282611433565b5050565b6109026108fc611372565b826114d7565b610941576040517f08c379a000000000000000000000000000000000000000000000000000000000815260040161093890612e73565b60405180910390fd5b61094c83838361156c565b505050565b6060600a60008373ffffffffffffffffffffffffffffffffffffffff1673ffffffffffffffffffffffffffffffffffffffff1681526020019081526020016000208054806020026020016040519081016040528092919081815260200182805480156109dc57602002820191906000526020600020905b8154815260200190600101908083116109c8575b50505050509050919050565b60606109f382610d88565b9050919050565b6000610a046111c7565b6000610a106008611865565b9050610a1c6008611873565b610a268382611889565b600a60008473ffffffffffffffffffffffffffffffffffffffff1673ffffffffffffffffffffffffffffffffffffffff1681526020019081526020016000208190806001815401808255809150506001900390600052602060002001600090919091909150558273ffffffffffffffffffffffffffffffffffffffff167fb9144c96c86541f6fa89c9f2f02495cccf4b08cd6643e26d34ee00aa586558a882604051610ad29190612920565b60405180910390a280915050919050565b610afe83838360405180602001604052806000815250610d26565b505050565b600080610b0f836118a7565b9050600073ffffffffffffffffffffffffffffffffffffffff168173ffffffffffffffffffffffffffffffffffffffff1603610b80576040517f08c379a0000000000000000000000000000000000000000000000000000000008152600401610b7790612edf565b60405180910390fd5b80915050919050565b60008073ffffffffffffffffffffffffffffffffffffffff168273ffffffffffffffffffffffffffffffffffffffff1603610bf9576040517f08c379a0000000000000000000000000000000000000000000000000000000008152600401610bf090612f71565b60405180910390fd5b600360008373ffffffffffffffffffffffffffffffffffffffff1673ffffffffffffffffffffffffffffffffffffffff168152602001908152602001600020549050919050565b610c486111c7565b610c5260006118e4565b565b6000600760009054906101000a900473ffffffffffffffffffffffffffffffffffffffff16905090565b606060018054610c8d90612cac565b80601f0160208091040260200160405190810160405280929190818152602001828054610cb990612cac565b8015610d065780601f10610cdb57610100808354040283529160200191610d06565b820191906000526020600020905b815481529060010190602001808311610ce957829003601f168201915b5050505050905090565b610d22610d1b611372565b83836119aa565b5050565b610d37610d31611372565b836114d7565b610d76576040517f08c379a0000000000000000000000000000000000000000000000000000000008152600401610d6d90612e73565b60405180910390fd5b610d8284848484611b16565b50505050565b6060610d9382611327565b6000600660008481526020019081526020016000208054610db390612cac565b80601f0160208091040260200160405190810160405280929190818152602001828054610ddf90612cac565b8015610e2c5780601f10610e0157610100808354040283529160200191610e2c565b820191906000526020600020905b815481529060010190602001808311610e0f57829003601f168201915b505050505090506000610e3d611b72565b90506000815103610e52578192505050610e95565b600082511115610e87578082604051602001610e6f929190612f91565b60405160208183030381529060405292505050610e95565b610e9084611b89565b925050505b919050565b84600985604051610eab9190612c66565b908152602001604051809103902060006101000a81548173ffffffffffffffffffffffffffffffffffffffff021916908373ffffffffffffffffffffffffffffffffffffffff160217905550600b60008673ffffffffffffffffffffffffffffffffffffffff1673ffffffffffffffffffffffffffffffffffffffff168152602001908152602001600020819080600181540180825580915050600190039060005260206000200160009091909190915055600060405180608001604052808581526020018481526020018681526020018773ffffffffffffffffffffffffffffffffffffffff16815250905080600c60008481526020019081526020016000206000820151816000019081610fc19190613161565b50602082015181600101556040820151816002019081610fe19190613161565b5060608201518160030160006101000a81548173ffffffffffffffffffffffffffffffffffffffff021916908373ffffffffffffffffffffffffffffffffffffffff1602179055509050508360405161103a9190612c66565b6040518091039020856040516110509190612c66565b60405180910390208773ffffffffffffffffffffffffffffffffffffffff167fb5cb263be0e4a3917baf60e555550ed9234dfdc77f981b7af252a9b6318c9f5a86866040516110a0929190613233565b60405180910390a4505050505050565b6000600560008473ffffffffffffffffffffffffffffffffffffffff1673ffffffffffffffffffffffffffffffffffffffff16815260200190815260200160002060008373ffffffffffffffffffffffffffffffffffffffff1673ffffffffffffffffffffffffffffffffffffffff16815260200190815260200160002060009054906101000a900460ff16905092915050565b61114c6111c7565b600073ffffffffffffffffffffffffffffffffffffffff168173ffffffffffffffffffffffffffffffffffffffff16036111bb576040517f08c379a00000000000000000000000000000000000000000000000000000000081526004016111b2906132ce565b60405180910390fd5b6111c4816118e4565b50565b6111cf611372565b73ffffffffffffffffffffffffffffffffffffffff166111ed610c54565b73ffffffffffffffffffffffffffffffffffffffff1614611243576040517f08c379a000000000000000000000000000000000000000000000000000000000815260040161123a9061333a565b60405180910390fd5b565b60007f80ac58cd000000000000000000000000000000000000000000000000000000007bffffffffffffffffffffffffffffffffffffffffffffffffffffffff1916827bffffffffffffffffffffffffffffffffffffffffffffffffffffffff1916148061131057507f5b5e139f000000000000000000000000000000000000000000000000000000007bffffffffffffffffffffffffffffffffffffffffffffffffffffffff1916827bffffffffffffffffffffffffffffffffffffffffffffffffffffffff1916145b80611320575061131f82611bf1565b5b9050919050565b61133081611c5b565b61136f576040517f08c379a000000000000000000000000000000000000000000000000000000000815260040161136690612edf565b60405180910390fd5b50565b600033905090565b816004600083815260200190815260200160002060006101000a81548173ffffffffffffffffffffffffffffffffffffffff021916908373ffffffffffffffffffffffffffffffffffffffff160217905550808273ffffffffffffffffffffffffffffffffffffffff166113ed83610b03565b73ffffffffffffffffffffffffffffffffffffffff167f8c5be1e5ebec7d5bd14f71427d1e84f3dd0314c0f7b2291e5b200ac8c7c3b92560405160405180910390a45050565b61143c82611c5b565b61147b576040517f08c379a0000000000000000000000000000000000000000000000000000000008152600401611472906133cc565b60405180910390fd5b8060066000848152602001908152602001600020908161149b9190613161565b507ff8e1a15aba9398e019f0b49df1a4fde98ee17ae345cb5f6b5e2c27f5033e8ce7826040516114cb9190612920565b60405180910390a15050565b6000806114e383610b03565b90508073ffffffffffffffffffffffffffffffffffffffff168473ffffffffffffffffffffffffffffffffffffffff161480611525575061152481856110b0565b5b8061156357508373ffffffffffffffffffffffffffffffffffffffff1661154b8461077e565b73ffffffffffffffffffffffffffffffffffffffff16145b91505092915050565b8273ffffffffffffffffffffffffffffffffffffffff1661158c82610b03565b73ffffffffffffffffffffffffffffffffffffffff16146115e2576040517f08c379a00000000000000000000000000000000000000000000000000000000081526004016115d99061345e565b60405180910390fd5b600073ffffffffffffffffffffffffffffffffffffffff168273ffffffffffffffffffffffffffffffffffffffff1603611651576040517f08c379a0000000000000000000000000000000000000000000000000000000008152600401611648906134f0565b60405180910390fd5b61165e8383836001611c9c565b8273ffffffffffffffffffffffffffffffffffffffff1661167e82610b03565b73ffffffffffffffffffffffffffffffffffffffff16146116d4576040517f08c379a00000000000000000000000000000000000000000000000000000000081526004016116cb9061345e565b60405180910390fd5b6004600082815260200190815260200160002060006101000a81549073ffffffffffffffffffffffffffffffffffffffff02191690556001600360008573ffffffffffffffffffffffffffffffffffffffff1673ffffffffffffffffffffffffffffffffffffffff168152602001908152602001600020600082825403925050819055506001600360008473ffffffffffffffffffffffffffffffffffffffff1673ffffffffffffffffffffffffffffffffffffffff16815260200190815260200160002060008282540192505081905550816002600083815260200190815260200160002060006101000a81548173ffffffffffffffffffffffffffffffffffffffff021916908373ffffffffffffffffffffffffffffffffffffffff160217905550808273ffffffffffffffffffffffffffffffffffffffff168473ffffffffffffffffffffffffffffffffffffffff167fddf252ad1be2c89b69c2b068fc378daa952ba7f163c4a11628f55a4df523b3ef60405160405180910390a46118608383836001611ca2565b505050565b600081600001549050919050565b6001816000016000828254019250508190555050565b6118a3828260405180602001604052806000815250611ca8565b5050565b60006002600083815260200190815260200160002060009054906101000a900473ffffffffffffffffffffffffffffffffffffffff169050919050565b6000600760009054906101000a900473ffffffffffffffffffffffffffffffffffffffff16905081600760006101000a81548173ffffffffffffffffffffffffffffffffffffffff021916908373ffffffffffffffffffffffffffffffffffffffff1602179055508173ffffffffffffffffffffffffffffffffffffffff168173ffffffffffffffffffffffffffffffffffffffff167f8be0079c531659141344cd1fd0a4f28419497f9722a3daafe3b4186f6b6457e060405160405180910390a35050565b8173ffffffffffffffffffffffffffffffffffffffff168373ffffffffffffffffffffffffffffffffffffffff1603611a18576040517f08c379a0000000000000000000000000000000000000000000000000000000008152600401611a0f9061355c565b60405180910390fd5b80600560008573ffffffffffffffffffffffffffffffffffffffff1673ffffffffffffffffffffffffffffffffffffffff16815260200190815260200160002060008473ffffffffffffffffffffffffffffffffffffffff1673ffffffffffffffffffffffffffffffffffffffff16815260200190815260200160002060006101000a81548160ff0219169083151502179055508173ffffffffffffffffffffffffffffffffffffffff168373ffffffffffffffffffffffffffffffffffffffff167f17307eab39ab6107e8899845ad3d59bd9653f200f220920489ca2b5937696c3183604051611b099190612473565b60405180910390a3505050565b611b2184848461156c565b611b2d84848484611d03565b611b6c576040517f08c379a0000000000000000000000000000000000000000000000000000000008152600401611b63906135ee565b60405180910390fd5b50505050565b606060405180602001604052806000815250905090565b6060611b9482611327565b6000611b9e611b72565b90506000815111611bbe5760405180602001604052806000815250611be9565b80611bc884611e8a565b604051602001611bd9929190612f91565b6040516020818303038152906040525b915050919050565b60007f01ffc9a7000000000000000000000000000000000000000000000000000000007bffffffffffffffffffffffffffffffffffffffffffffffffffffffff1916827bffffffffffffffffffffffffffffffffffffffffffffffffffffffff1916149050919050565b60008073ffffffffffffffffffffffffffffffffffffffff16611c7d836118a7565b73ffffffffffffffffffffffffffffffffffffffff1614159050919050565b50505050565b50505050565b611cb28383611f58565b611cbf6000848484611d03565b611cfe576040517f08c379a0000000000000000000000000000000000000000000000000000000008152600401611cf5906135ee565b60405180910390fd5b505050565b6000611d248473ffffffffffffffffffffffffffffffffffffffff16612175565b15611e7d578373ffffffffffffffffffffffffffffffffffffffff1663150b7a02611d4d611372565b8786866040518563ffffffff1660e01b8152600401611d6f9493929190613663565b6020604051808303816000875af1925050508015611dab57506040513d601f19601f82011682018060405250810190611da891906136c4565b60015b611e2d573d8060008114611ddb576040519150601f19603f3d011682016040523d82523d6000602084013e611de0565b606091505b506000815103611e25576040517f08c379a0000000000000000000000000000000000000000000000000000000008152600401611e1c906135ee565b60405180910390fd5b805181602001fd5b63150b7a0260e01b7bffffffffffffffffffffffffffffffffffffffffffffffffffffffff1916817bffffffffffffffffffffffffffffffffffffffffffffffffffffffff191614915050611e82565b600190505b949350505050565b606060006001611e9984612198565b01905060008167ffffffffffffffff811115611eb857611eb76124a9565b5b6040519080825280601f01601f191660200182016040528015611eea5781602001600182028036833780820191505090505b509050600082602001820190505b600115611f4d578080600190039150507f3031323334353637383961626364656600000000000000000000000000000000600a86061a8153600a8581611f4157611f406136f1565b5b04945060008503611ef8575b819350505050919050565b600073ffffffffffffffffffffffffffffffffffffffff168273ffffffffffffffffffffffffffffffffffffffff1603611fc7576040517f08c379a0000000000000000000000000000000000000000000000000000000008152600401611fbe9061376c565b60405180910390fd5b611fd081611c5b565b15612010576040517f08c379a0000000000000000000000000000000000000000000000000000000008152600401612007906137d8565b60405180910390fd5b61201e600083836001611c9c565b61202781611c5b565b15612067576040517f08c379a000000000000000000000000000000000000000000000000000000000815260040161205e906137d8565b60405180910390fd5b6001600360008473ffffffffffffffffffffffffffffffffffffffff1673ffffffffffffffffffffffffffffffffffffffff16815260200190815260200160002060008282540192505081905550816002600083815260200190815260200160002060006101000a81548173ffffffffffffffffffffffffffffffffffffffff021916908373ffffffffffffffffffffffffffffffffffffffff160217905550808273ffffffffffffffffffffffffffffffffffffffff16600073ffffffffffffffffffffffffffffffffffffffff167fddf252ad1be2c89b69c2b068fc378daa952ba7f163c4a11628f55a4df523b3ef60405160405180910390a4612171600083836001611ca2565b5050565b6000808273ffffffffffffffffffffffffffffffffffffffff163b119050919050565b600080600090507a184f03e93ff9f4daa797ed6e38ed64bf6a1f01000000000000000083106121f6577a184f03e93ff9f4daa797ed6e38ed64bf6a1f01000000000000000083816121ec576121eb6136f1565b5b0492506040810190505b6d04ee2d6d415b85acef81000000008310612233576d04ee2d6d415b85acef81000000008381612229576122286136f1565b5b0492506020810190505b662386f26fc10000831061226257662386f26fc100008381612258576122576136f1565b5b0492506010810190505b6305f5e100831061228b576305f5e1008381612281576122806136f1565b5b0492506008810190505b61271083106122b05761271083816122a6576122a56136f1565b5b0492506004810190505b606483106122d357606483816122c9576122c86136f1565b5b0492506002810190505b600a83106122e2576001810190505b80915050919050565b6000604051905090565b600080fd5b600080fd5b6000819050919050565b612312816122ff565b811461231d57600080fd5b50565b60008135905061232f81612309565b92915050565b600073ffffffffffffffffffffffffffffffffffffffff82169050919050565b600061236082612335565b9050919050565b61237081612355565b811461237b57600080fd5b50565b60008135905061238d81612367565b92915050565b600080604083850312156123aa576123a96122f5565b5b60006123b885828601612320565b92505060206123c98582860161237e565b9150509250929050565b60007fffffffff0000000000000000000000000000000000000000000000000000000082169050919050565b612408816123d3565b811461241357600080fd5b50565b600081359050612425816123ff565b92915050565b600060208284031215612441576124406122f5565b5b600061244f84828501612416565b91505092915050565b60008115159050919050565b61246d81612458565b82525050565b60006020820190506124886000830184612464565b92915050565b600080fd5b600080fd5b6000601f19601f8301169050919050565b7f4e487b7100000000000000000000000000000000000000000000000000000000600052604160045260246000fd5b6124e182612498565b810181811067ffffffffffffffff82111715612500576124ff6124a9565b5b80604052505050565b60006125136122eb565b905061251f82826124d8565b919050565b600067ffffffffffffffff82111561253f5761253e6124a9565b5b61254882612498565b9050602081019050919050565b82818337600083830152505050565b600061257761257284612524565b612509565b90508281526020810184848401111561259357612592612493565b5b61259e848285612555565b509392505050565b600082601f8301126125bb576125ba61248e565b5b81356125cb848260208601612564565b91505092915050565b6000602082840312156125ea576125e96122f5565b5b600082013567ffffffffffffffff811115612608576126076122fa565b5b612614848285016125a6565b91505092915050565b61262681612355565b82525050565b6000602082019050612641600083018461261d565b92915050565b600081519050919050565b600082825260208201905092915050565b60005b83811015612681578082015181840152602081019050612666565b60008484015250505050565b600061269882612647565b6126a28185612652565b93506126b2818560208601612663565b6126bb81612498565b840191505092915050565b600060208201905081810360008301526126e0818461268d565b905092915050565b6000602082840312156126fe576126fd6122f5565b5b600061270c84828501612320565b91505092915050565b6000806040838503121561272c5761272b6122f5565b5b600061273a8582860161237e565b925050602061274b85828601612320565b9150509250929050565b6000806040838503121561276c5761276b6122f5565b5b600061277a85828601612320565b925050602083013567ffffffffffffffff81111561279b5761279a6122fa565b5b6127a7858286016125a6565b9150509250929050565b6000806000606084860312156127ca576127c96122f5565b5b60006127d88682870161237e565b93505060206127e98682870161237e565b92505060406127fa86828701612320565b9150509250925092565b60006020828403121561281a576128196122f5565b5b60006128288482850161237e565b91505092915050565b600081519050919050565b600082825260208201905092915050565b6000819050602082019050919050565b612866816122ff565b82525050565b6000612878838361285d565b60208301905092915050565b6000602082019050919050565b600061289c82612831565b6128a6818561283c565b93506128b18361284d565b8060005b838110156128e25781516128c9888261286c565b97506128d483612884565b9250506001810190506128b5565b5085935050505092915050565b600060208201905081810360008301526129098184612891565b905092915050565b61291a816122ff565b82525050565b60006020820190506129356000830184612911565b92915050565b61294481612458565b811461294f57600080fd5b50565b6000813590506129618161293b565b92915050565b6000806040838503121561297e5761297d6122f5565b5b600061298c8582860161237e565b925050602061299d85828601612952565b9150509250929050565b600067ffffffffffffffff8211156129c2576129c16124a9565b5b6129cb82612498565b9050602081019050919050565b60006129eb6129e6846129a7565b612509565b905082815260208101848484011115612a0757612a06612493565b5b612a12848285612555565b509392505050565b600082601f830112612a2f57612a2e61248e565b5b8135612a3f8482602086016129d8565b91505092915050565b60008060008060808587031215612a6257612a616122f5565b5b6000612a708782880161237e565b9450506020612a818782880161237e565b9350506040612a9287828801612320565b925050606085013567ffffffffffffffff811115612ab357612ab26122fa565b5b612abf87828801612a1a565b91505092959194509250565b600080600080600060a08688031215612ae757612ae66122f5565b5b6000612af58882890161237e565b955050602086013567ffffffffffffffff811115612b1657612b156122fa565b5b612b22888289016125a6565b945050604086013567ffffffffffffffff811115612b4357612b426122fa565b5b612b4f888289016125a6565b9350506060612b6088828901612320565b9250506080612b7188828901612320565b9150509295509295909350565b60008060408385031215612b9557612b946122f5565b5b6000612ba38582860161237e565b9250506020612bb48582860161237e565b9150509250929050565b7f496e73756666696369656e742066756e64730000000000000000000000000000600082015250565b6000612bf4601283612652565b9150612bff82612bbe565b602082019050919050565b60006020820190508181036000830152612c2381612be7565b9050919050565b600081905092915050565b6000612c4082612647565b612c4a8185612c2a565b9350612c5a818560208601612663565b80840191505092915050565b6000612c728284612c35565b915081905092915050565b7f4e487b7100000000000000000000000000000000000000000000000000000000600052602260045260246000fd5b60006002820490506001821680612cc457607f821691505b602082108103612cd757612cd6612c7d565b5b50919050565b7f4552433732313a20617070726f76616c20746f2063757272656e74206f776e6560008201527f7200000000000000000000000000000000000000000000000000000000000000602082015250565b6000612d39602183612652565b9150612d4482612cdd565b604082019050919050565b60006020820190508181036000830152612d6881612d2c565b9050919050565b7f4552433732313a20617070726f76652063616c6c6572206973206e6f7420746f60008201527f6b656e206f776e6572206f7220617070726f76656420666f7220616c6c000000602082015250565b6000612dcb603d83612652565b9150612dd682612d6f565b604082019050919050565b60006020820190508181036000830152612dfa81612dbe565b9050919050565b7f4552433732313a2063616c6c6572206973206e6f7420746f6b656e206f776e6560008201527f72206f7220617070726f76656400000000000000000000000000000000000000602082015250565b6000612e5d602d83612652565b9150612e6882612e01565b604082019050919050565b60006020820190508181036000830152612e8c81612e50565b9050919050565b7f4552433732313a20696e76616c696420746f6b656e2049440000000000000000600082015250565b6000612ec9601883612652565b9150612ed482612e93565b602082019050919050565b60006020820190508181036000830152612ef881612ebc565b9050919050565b7f4552433732313a2061646472657373207a65726f206973206e6f74206120766160008201527f6c6964206f776e65720000000000000000000000000000000000000000000000602082015250565b6000612f5b602983612652565b9150612f6682612eff565b604082019050919050565b60006020820190508181036000830152612f8a81612f4e565b9050919050565b6000612f9d8285612c35565b9150612fa98284612c35565b91508190509392505050565b60008190508160005260206000209050919050565b60006020601f8301049050919050565b600082821b905092915050565b6000600883026130177fffffffffffffffffffffffffffffffffffffffffffffffffffffffffffffffff82612fda565b6130218683612fda565b95508019841693508086168417925050509392505050565b6000819050919050565b600061305e613059613054846122ff565b613039565b6122ff565b9050919050565b6000819050919050565b61307883613043565b61308c61308482613065565b848454612fe7565b825550505050565b600090565b6130a1613094565b6130ac81848461306f565b505050565b5b818110156130d0576130c5600082613099565b6001810190506130b2565b5050565b601f821115613115576130e681612fb5565b6130ef84612fca565b810160208510156130fe578190505b61311261310a85612fca565b8301826130b1565b50505b505050565b600082821c905092915050565b60006131386000198460080261311a565b1980831691505092915050565b60006131518383613127565b9150826002028217905092915050565b61316a82612647565b67ffffffffffffffff811115613183576131826124a9565b5b61318d8254612cac565b6131988282856130d4565b600060209050601f8311600181146131cb57600084156131b9578287015190505b6131c38582613145565b86555061322b565b601f1984166131d986612fb5565b60005b82811015613201578489015182556001820191506020850194506020810190506131dc565b8683101561321e578489015161321a601f891682613127565b8355505b6001600288020188555050505b505050505050565b60006040820190506132486000830185612911565b6132556020830184612911565b9392505050565b7f4f776e61626c653a206e6577206f776e657220697320746865207a65726f206160008201527f6464726573730000000000000000000000000000000000000000000000000000602082015250565b60006132b8602683612652565b91506132c38261325c565b604082019050919050565b600060208201905081810360008301526132e7816132ab565b9050919050565b7f4f776e61626c653a2063616c6c6572206973206e6f7420746865206f776e6572600082015250565b6000613324602083612652565b915061332f826132ee565b602082019050919050565b6000602082019050818103600083015261335381613317565b9050919050565b7f45524337323155524953746f726167653a2055524920736574206f66206e6f6e60008201527f6578697374656e7420746f6b656e000000000000000000000000000000000000602082015250565b60006133b6602e83612652565b91506133c18261335a565b604082019050919050565b600060208201905081810360008301526133e5816133a9565b9050919050565b7f4552433732313a207472616e736665722066726f6d20696e636f72726563742060008201527f6f776e6572000000000000000000000000000000000000000000000000000000602082015250565b6000613448602583612652565b9150613453826133ec565b604082019050919050565b600060208201905081810360008301526134778161343b565b9050919050565b7f4552433732313a207472616e7366657220746f20746865207a65726f2061646460008201527f7265737300000000000000000000000000000000000000000000000000000000602082015250565b60006134da602483612652565b91506134e58261347e565b604082019050919050565b60006020820190508181036000830152613509816134cd565b9050919050565b7f4552433732313a20617070726f766520746f2063616c6c657200000000000000600082015250565b6000613546601983612652565b915061355182613510565b602082019050919050565b6000602082019050818103600083015261357581613539565b9050919050565b7f4552433732313a207472616e7366657220746f206e6f6e20455243373231526560008201527f63656976657220696d706c656d656e7465720000000000000000000000000000602082015250565b60006135d8603283612652565b91506135e38261357c565b604082019050919050565b60006020820190508181036000830152613607816135cb565b9050919050565b600081519050919050565b600082825260208201905092915050565b60006136358261360e565b61363f8185613619565b935061364f818560208601612663565b61365881612498565b840191505092915050565b6000608082019050613678600083018761261d565b613685602083018661261d565b6136926040830185612911565b81810360608301526136a4818461362a565b905095945050505050565b6000815190506136be816123ff565b92915050565b6000602082840312156136da576136d96122f5565b5b60006136e8848285016136af565b91505092915050565b7f4e487b7100000000000000000000000000000000000000000000000000000000600052601260045260246000fd5b7f4552433732313a206d696e7420746f20746865207a65726f2061646472657373600082015250565b6000613756602083612652565b915061376182613720565b602082019050919050565b6000602082019050818103600083015261378581613749565b9050919050565b7f4552433732313a20746f6b656e20616c7265616479206d696e74656400000000600082015250565b60006137c2601c83612652565b91506137cd8261378c565b602082019050919050565b600060208201905081810360008301526137f1816137b5565b905091905056fea2646970667358221220658b97e948eae7f5434ef033289893a544598228dc38097e45ff1ad89bb2eeb164736f6c63430008130033",
  "linkReferences": {},
  "deployedLinkReferences": {}
}