{
  "_format": "hh-sol-artifact-1",
  "contractName": "WiggleClothing",
  "sourceName": "contracts/WiggleClothing.sol",
  "abi": [
    {
      "inputs": [],
      "stateMutability": "nonpayable",
      "type": "constructor"
    },
    {
      "anonymous": false,
      "inputs": [
        {
          "indexed": true,
          "internalType": "address",
          "name": "owner",
          "type": "address"
        },
        {
          "indexed": true,
          "internalType": "address",
          "name": "approved",
          "type": "address"
        },
        {
          "indexed": true,
          "internalType": "uint256",
          "name": "tokenId",
          "type": "uint256"
        }
      ],
      "name": "Approval",
      "type": "event"
    },
    {
      "anonymous": false,
      "inputs": [
        {
          "indexed": true,
          "internalType": "address",
          "name": "owner",
          "type": "address"
        },
        {
          "indexed": true,
          "internalType": "address",
          "name": "operator",
          "type": "address"
        },
        {
          "indexed": false,
          "internalType": "bool",
          "name": "approved",
          "type": "bool"
        }
      ],
      "name": "ApprovalForAll",
      "type": "event"
    },
    {
      "anonymous": false,
      "inputs": [
        {
          "indexed": false,
          "internalType": "uint256",
          "name": "_fromTokenId",
          "type": "uint256"
        },
        {
          "indexed": false,
          "internalType": "uint256",
          "name": "_toTokenId",
          "type": "uint256"
        }
      ],
      "name": "BatchMetadataUpdate",
      "type": "event"
    },
    {
      "anonymous": false,
      "inputs": [
        {
          "indexed": true,
          "internalType": "address",
          "name": "creator",
          "type": "address"
        },
        {
          "indexed": true,
          "internalType": "string",
          "name": "clothingURI",
          "type": "string"
        },
        {
          "indexed": true,
          "internalType": "string",
          "name": "clothingName",
          "type": "string"
        },
        {
          "indexed": false,
          "internalType": "uint256",
          "name": "clothingPrice",
          "type": "uint256"
        },
        {
          "indexed": false,
          "internalType": "uint256",
          "name": "tokenId",
          "type": "uint256"
        }
      ],
      "name": "ClothingInfoRegistered",
      "type": "event"
    },
    {
      "anonymous": false,
      "inputs": [
        {
          "indexed": false,
          "internalType": "uint256",
          "name": "_tokenId",
          "type": "uint256"
        }
      ],
      "name": "MetadataUpdate",
      "type": "event"
    },
    {
      "anonymous": false,
      "inputs": [
        {
          "indexed": true,
          "internalType": "address",
          "name": "previousOwner",
          "type": "address"
        },
        {
          "indexed": true,
          "internalType": "address",
          "name": "newOwner",
          "type": "address"
        }
      ],
      "name": "OwnershipTransferred",
      "type": "event"
    },
    {
      "anonymous": false,
      "inputs": [
        {
          "indexed": true,
          "internalType": "address",
          "name": "to",
          "type": "address"
        },
        {
          "indexed": false,
          "internalType": "uint256",
          "name": "tokenId",
          "type": "uint256"
        }
      ],
      "name": "TokenMinted",
      "type": "event"
    },
    {
      "anonymous": false,
      "inputs": [
        {
          "indexed": false,
          "internalType": "uint256",
          "name": "tokenId",
          "type": "uint256"
        },
        {
          "indexed": true,
          "internalType": "string",
          "name": "clothingURI",
          "type": "string"
        }
      ],
      "name": "TokenURISet",
      "type": "event"
    },
    {
      "anonymous": false,
      "inputs": [
        {
          "indexed": true,
          "internalType": "address",
          "name": "from",
          "type": "address"
        },
        {
          "indexed": true,
          "internalType": "address",
          "name": "to",
          "type": "address"
        },
        {
          "indexed": true,
          "internalType": "uint256",
          "name": "tokenId",
          "type": "uint256"
        }
      ],
      "name": "Transfer",
      "type": "event"
    },
    {
      "inputs": [
        {
          "internalType": "address",
          "name": "to",
          "type": "address"
        },
        {
          "internalType": "uint256",
          "name": "tokenId",
          "type": "uint256"
        }
      ],
      "name": "approve",
      "outputs": [],
      "stateMutability": "nonpayable",
      "type": "function"
    },
    {
      "inputs": [
        {
          "internalType": "address",
          "name": "owner",
          "type": "address"
        }
      ],
      "name": "balanceOf",
      "outputs": [
        {
          "internalType": "uint256",
          "name": "",
          "type": "uint256"
        }
      ],
      "stateMutability": "view",
      "type": "function"
    },
    {
      "inputs": [
        {
          "internalType": "uint256",
          "name": "tokenId",
          "type": "uint256"
        }
      ],
      "name": "getApproved",
      "outputs": [
        {
          "internalType": "address",
          "name": "",
          "type": "address"
        }
      ],
      "stateMutability": "view",
      "type": "function"
    },
    {
      "inputs": [
        {
          "internalType": "string",
          "name": "clothingURI",
          "type": "string"
        }
      ],
      "name": "getCreatorOfClothingByURI",
      "outputs": [
        {
          "internalType": "address",
          "name": "",
          "type": "address"
        }
      ],
      "stateMutability": "view",
      "type": "function"
    },
    {
      "inputs": [
        {
          "internalType": "address",
          "name": "_address",
          "type": "address"
        }
      ],
      "name": "getTokenIdsByOwnerAddress",
      "outputs": [
        {
          "internalType": "uint256[]",
          "name": "",
          "type": "uint256[]"
        }
      ],
      "stateMutability": "view",
      "type": "function"
    },
    {
      "inputs": [
        {
          "internalType": "uint256",
          "name": "tokenId",
          "type": "uint256"
        }
      ],
      "name": "getTokenURI",
      "outputs": [
        {
          "internalType": "string",
          "name": "",
          "type": "string"
        }
      ],
      "stateMutability": "view",
      "type": "function"
    },
    {
      "inputs": [
        {
          "internalType": "address",
          "name": "owner",
          "type": "address"
        },
        {
          "internalType": "address",
          "name": "operator",
          "type": "address"
        }
      ],
      "name": "isApprovedForAll",
      "outputs": [
        {
          "internalType": "bool",
          "name": "",
          "type": "bool"
        }
      ],
      "stateMutability": "view",
      "type": "function"
    },
    {
      "inputs": [],
      "name": "name",
      "outputs": [
        {
          "internalType": "string",
          "name": "",
          "type": "string"
        }
      ],
      "stateMutability": "view",
      "type": "function"
    },
    {
      "inputs": [],
      "name": "owner",
      "outputs": [
        {
          "internalType": "address",
          "name": "",
          "type": "address"
        }
      ],
      "stateMutability": "view",
      "type": "function"
    },
    {
      "inputs": [
        {
          "internalType": "uint256",
          "name": "tokenId",
          "type": "uint256"
        }
      ],
      "name": "ownerOf",
      "outputs": [
        {
          "internalType": "address",
          "name": "",
          "type": "address"
        }
      ],
      "stateMutability": "view",
      "type": "function"
    },
    {
      "inputs": [
        {
          "internalType": "address",
          "name": "_creator",
          "type": "address"
        },
        {
          "internalType": "string",
          "name": "_clothingURI",
          "type": "string"
        },
        {
          "internalType": "string",
          "name": "_clothingName",
          "type": "string"
        },
        {
          "internalType": "uint256",
          "name": "_clothingPrice",
          "type": "uint256"
        },
        {
          "internalType": "uint256",
          "name": "_tokenId",
          "type": "uint256"
        }
      ],
      "name": "registerClothingInfo",
      "outputs": [],
      "stateMutability": "payable",
      "type": "function"
    },
    {
      "inputs": [],
      "name": "renounceOwnership",
      "outputs": [],
      "stateMutability": "nonpayable",
      "type": "function"
    },
    {
      "inputs": [
        {
          "internalType": "address",
          "name": "_to",
          "type": "address"
        }
      ],
      "name": "safeMint",
      "outputs": [
        {
          "internalType": "uint256",
          "name": "",
          "type": "uint256"
        }
      ],
      "stateMutability": "nonpayable",
      "type": "function"
    },
    {
      "inputs": [
        {
          "internalType": "address",
          "name": "from",
          "type": "address"
        },
        {
          "internalType": "address",
          "name": "to",
          "type": "address"
        },
        {
          "internalType": "uint256",
          "name": "tokenId",
          "type": "uint256"
        }
      ],
      "name": "safeTransferFrom",
      "outputs": [],
      "stateMutability": "nonpayable",
      "type": "function"
    },
    {
      "inputs": [
        {
          "internalType": "address",
          "name": "from",
          "type": "address"
        },
        {
          "internalType": "address",
          "name": "to",
          "type": "address"
        },
        {
          "internalType": "uint256",
          "name": "tokenId",
          "type": "uint256"
        },
        {
          "internalType": "bytes",
          "name": "data",
          "type": "bytes"
        }
      ],
      "name": "safeTransferFrom",
      "outputs": [],
      "stateMutability": "nonpayable",
      "type": "function"
    },
    {
      "inputs": [
        {
          "internalType": "address",
          "name": "operator",
          "type": "address"
        },
        {
          "internalType": "bool",
          "name": "approved",
          "type": "bool"
        }
      ],
      "name": "setApprovalForAll",
      "outputs": [],
      "stateMutability": "nonpayable",
      "type": "function"
    },
    {
      "inputs": [
        {
          "internalType": "uint256",
          "name": "_tokenId",
          "type": "uint256"
        },
        {
          "internalType": "string",
          "name": "_tokenURI",
          "type": "string"
        }
      ],
      "name": "setTokenURI",
      "outputs": [],
      "stateMutability": "nonpayable",
      "type": "function"
    },
    {
      "inputs": [
        {
          "internalType": "bytes4",
          "name": "interfaceId",
          "type": "bytes4"
        }
      ],
      "name": "supportsInterface",
      "outputs": [
        {
          "internalType": "bool",
          "name": "",
          "type": "bool"
        }
      ],
      "stateMutability": "view",
      "type": "function"
    },
    {
      "inputs": [],
      "name": "symbol",
      "outputs": [
        {
          "internalType": "string",
          "name": "",
          "type": "string"
        }
      ],
      "stateMutability": "view",
      "type": "function"
    },
    {
      "inputs": [
        {
          "internalType": "uint256",
          "name": "tokenId",
          "type": "uint256"
        }
      ],
      "name": "tokenURI",
      "outputs": [
        {
          "internalType": "string",
          "name": "",
          "type": "string"
        }
      ],
      "stateMutability": "view",
      "type": "function"
    },
    {
      "inputs": [
        {
          "internalType": "address",
          "name": "from",
          "type": "address"
        },
        {
          "internalType": "address",
          "name": "to",
          "type": "address"
        },
        {
          "internalType": "uint256",
          "name": "tokenId",
          "type": "uint256"
        }
      ],
      "name": "transferFrom",
      "outputs": [],
      "stateMutability": "nonpayable",
      "type": "function"
    },
    {
      "inputs": [
        {
          "internalType": "address",
          "name": "newOwner",
          "type": "address"
        }
      ],
      "name": "transferOwnership",
      "outputs": [],
      "stateMutability": "nonpayable",
      "type": "function"
    }
  ],
  "bytecode": "0x60806040523480156200001157600080fd5b506040518060400160405280600a81526020017f576967676c6546726565000000000000000000000000000000000000000000008152506040518060400160405280600581526020017f574747465200000000000000000000000000000000000000000000000000000081525081600090816200008f919062000412565b508060019081620000a1919062000412565b505050620000c4620000b8620000ca60201b60201c565b620000d260201b60201c565b620004f9565b600033905090565b6000600760009054906101000a900473ffffffffffffffffffffffffffffffffffffffff16905081600760006101000a81548173ffffffffffffffffffffffffffffffffffffffff021916908373ffffffffffffffffffffffffffffffffffffffff1602179055508173ffffffffffffffffffffffffffffffffffffffff168173ffffffffffffffffffffffffffffffffffffffff167f8be0079c531659141344cd1fd0a4f28419497f9722a3daafe3b4186f6b6457e060405160405180910390a35050565b600081519050919050565b7f4e487b7100000000000000000000000000000000000000000000000000000000600052604160045260246000fd5b7f4e487b7100000000000000000000000000000000000000000000000000000000600052602260045260246000fd5b600060028204905060018216806200021a57607f821691505b60208210810362000230576200022f620001d2565b5b50919050565b60008190508160005260206000209050919050565b60006020601f8301049050919050565b600082821b905092915050565b6000600883026200029a7fffffffffffffffffffffffffffffffffffffffffffffffffffffffffffffffff826200025b565b620002a686836200025b565b95508019841693508086168417925050509392505050565b6000819050919050565b6000819050919050565b6000620002f3620002ed620002e784620002be565b620002c8565b620002be565b9050919050565b6000819050919050565b6200030f83620002d2565b620003276200031e82620002fa565b84845462000268565b825550505050565b600090565b6200033e6200032f565b6200034b81848462000304565b505050565b5b8181101562000373576200036760008262000334565b60018101905062000351565b5050565b601f821115620003c2576200038c8162000236565b62000397846200024b565b81016020851015620003a7578190505b620003bf620003b6856200024b565b83018262000350565b50505b505050565b600082821c905092915050565b6000620003e760001984600802620003c7565b1980831691505092915050565b6000620004028383620003d4565b9150826002028217905092915050565b6200041d8262000198565b67ffffffffffffffff811115620004395762000438620001a3565b5b62000445825462000201565b6200045282828562000377565b600060209050601f8311600181146200048a576000841562000475578287015190505b620004818582620003f4565b865550620004f1565b601f1984166200049a8662000236565b60005b82811015620004c4578489015182556001820191506020850194506020810190506200049d565b86831015620004e45784890151620004e0601f891682620003d4565b8355505b6001600288020188555050505b505050505050565b6136ae80620005096000396000f3fe6080604052600436106101355760003560e01c80636352211e116100ab578063a22cb4651161006f578063a22cb4651461045e578063b88d4fde14610487578063c87b56dd146104b0578063e5c85c2a146104ed578063e985e9c514610509578063f2fde38b1461054657610135565b80636352211e1461037757806370a08231146103b4578063715018a6146103f15780638da5cb5b1461040857806395d89b411461043357610135565b8063162094c4116100fd578063162094c41461024557806323b872dd1461026e578063245a73b9146102975780633bb3a24d146102d457806340d097c31461031157806342842e0e1461034e57610135565b806301ffc9a71461013a578063030869011461017757806306fdde03146101b4578063081812fc146101df578063095ea7b31461021c575b600080fd5b34801561014657600080fd5b50610161600480360381019061015c9190612283565b61056f565b60405161016e91906122cb565b60405180910390f35b34801561018357600080fd5b5061019e6004803603810190610199919061242c565b6105d0565b6040516101ab91906124b6565b60405180910390f35b3480156101c057600080fd5b506101c9610618565b6040516101d69190612550565b60405180910390f35b3480156101eb57600080fd5b50610206600480360381019061020191906125a8565b6106aa565b60405161021391906124b6565b60405180910390f35b34801561022857600080fd5b50610243600480360381019061023e9190612601565b6106f0565b005b34801561025157600080fd5b5061026c60048036038101906102679190612641565b610807565b005b34801561027a57600080fd5b506102956004803603810190610290919061269d565b61081d565b005b3480156102a357600080fd5b506102be60048036038101906102b991906126f0565b61087d565b6040516102cb91906127db565b60405180910390f35b3480156102e057600080fd5b506102fb60048036038101906102f691906125a8565b610914565b6040516103089190612550565b60405180910390f35b34801561031d57600080fd5b50610338600480360381019061033391906126f0565b610926565b604051610345919061280c565b60405180910390f35b34801561035a57600080fd5b506103756004803603810190610370919061269d565b610a0f565b005b34801561038357600080fd5b5061039e600480360381019061039991906125a8565b610a2f565b6040516103ab91906124b6565b60405180910390f35b3480156103c057600080fd5b506103db60048036038101906103d691906126f0565b610ab5565b6040516103e8919061280c565b60405180910390f35b3480156103fd57600080fd5b50610406610b6c565b005b34801561041457600080fd5b5061041d610b80565b60405161042a91906124b6565b60405180910390f35b34801561043f57600080fd5b50610448610baa565b6040516104559190612550565b60405180910390f35b34801561046a57600080fd5b5061048560048036038101906104809190612853565b610c3c565b005b34801561049357600080fd5b506104ae60048036038101906104a99190612934565b610c52565b005b3480156104bc57600080fd5b506104d760048036038101906104d291906125a8565b610cb4565b6040516104e49190612550565b60405180910390f35b610507600480360381019061050291906129b7565b610dc6565b005b34801561051557600080fd5b50610530600480360381019061052b9190612a6a565b610fdc565b60405161053d91906122cb565b60405180910390f35b34801561055257600080fd5b5061056d600480360381019061056891906126f0565b611070565b005b6000634906490660e01b7bffffffffffffffffffffffffffffffffffffffffffffffffffffffff1916827bffffffffffffffffffffffffffffffffffffffffffffffffffffffff191614806105c957506105c8826110f3565b5b9050919050565b60006009826040516105e29190612ae6565b908152602001604051809103902060009054906101000a900473ffffffffffffffffffffffffffffffffffffffff169050919050565b60606000805461062790612b2c565b80601f016020809104026020016040519081016040528092919081815260200182805461065390612b2c565b80156106a05780601f10610675576101008083540402835291602001916106a0565b820191906000526020600020905b81548152906001019060200180831161068357829003601f168201915b5050505050905090565b60006106b5826111d5565b6004600083815260200190815260200160002060009054906101000a900473ffffffffffffffffffffffffffffffffffffffff169050919050565b60006106fb82610a2f565b90508073ffffffffffffffffffffffffffffffffffffffff168373ffffffffffffffffffffffffffffffffffffffff160361076b576040517f08c379a000000000000000000000000000000000000000000000000000000000815260040161076290612bcf565b60405180910390fd5b8073ffffffffffffffffffffffffffffffffffffffff1661078a611220565b73ffffffffffffffffffffffffffffffffffffffff1614806107b957506107b8816107b3611220565b610fdc565b5b6107f8576040517f08c379a00000000000000000000000000000000000000000000000000000000081526004016107ef90612c61565b60405180910390fd5b6108028383611228565b505050565b61080f6112e1565b610819828261135f565b5050565b61082e610828611220565b82611403565b61086d576040517f08c379a000000000000000000000000000000000000000000000000000000000815260040161086490612cf3565b60405180910390fd5b610878838383611498565b505050565b6060600a60008373ffffffffffffffffffffffffffffffffffffffff1673ffffffffffffffffffffffffffffffffffffffff16815260200190815260200160002080548060200260200160405190810160405280929190818152602001828054801561090857602002820191906000526020600020905b8154815260200190600101908083116108f4575b50505050509050919050565b606061091f82610cb4565b9050919050565b60006109306112e1565b600061093c6008611791565b9050610948600861179f565b61095283826117b5565b600a60008473ffffffffffffffffffffffffffffffffffffffff1673ffffffffffffffffffffffffffffffffffffffff1681526020019081526020016000208190806001815401808255809150506001900390600052602060002001600090919091909150558273ffffffffffffffffffffffffffffffffffffffff167fb9144c96c86541f6fa89c9f2f02495cccf4b08cd6643e26d34ee00aa586558a8826040516109fe919061280c565b60405180910390a280915050919050565b610a2a83838360405180602001604052806000815250610c52565b505050565b600080610a3b836117d3565b9050600073ffffffffffffffffffffffffffffffffffffffff168173ffffffffffffffffffffffffffffffffffffffff1603610aac576040517f08c379a0000000000000000000000000000000000000000000000000000000008152600401610aa390612d5f565b60405180910390fd5b80915050919050565b60008073ffffffffffffffffffffffffffffffffffffffff168273ffffffffffffffffffffffffffffffffffffffff1603610b25576040517f08c379a0000000000000000000000000000000000000000000000000000000008152600401610b1c90612df1565b60405180910390fd5b600360008373ffffffffffffffffffffffffffffffffffffffff1673ffffffffffffffffffffffffffffffffffffffff168152602001908152602001600020549050919050565b610b746112e1565b610b7e6000611810565b565b6000600760009054906101000a900473ffffffffffffffffffffffffffffffffffffffff16905090565b606060018054610bb990612b2c565b80601f0160208091040260200160405190810160405280929190818152602001828054610be590612b2c565b8015610c325780601f10610c0757610100808354040283529160200191610c32565b820191906000526020600020905b815481529060010190602001808311610c1557829003601f168201915b5050505050905090565b610c4e610c47611220565b83836118d6565b5050565b610c63610c5d611220565b83611403565b610ca2576040517f08c379a0000000000000000000000000000000000000000000000000000000008152600401610c9990612cf3565b60405180910390fd5b610cae84848484611a42565b50505050565b6060610cbf826111d5565b6000600660008481526020019081526020016000208054610cdf90612b2c565b80601f0160208091040260200160405190810160405280929190818152602001828054610d0b90612b2c565b8015610d585780601f10610d2d57610100808354040283529160200191610d58565b820191906000526020600020905b815481529060010190602001808311610d3b57829003601f168201915b505050505090506000610d69611a9e565b90506000815103610d7e578192505050610dc1565b600082511115610db3578082604051602001610d9b929190612e11565b60405160208183030381529060405292505050610dc1565b610dbc84611ab5565b925050505b919050565b84600985604051610dd79190612ae6565b908152602001604051809103902060006101000a81548173ffffffffffffffffffffffffffffffffffffffff021916908373ffffffffffffffffffffffffffffffffffffffff160217905550600b60008673ffffffffffffffffffffffffffffffffffffffff1673ffffffffffffffffffffffffffffffffffffffff168152602001908152602001600020819080600181540180825580915050600190039060005260206000200160009091909190915055600060405180608001604052808581526020018481526020018681526020018773ffffffffffffffffffffffffffffffffffffffff16815250905080600c60008481526020019081526020016000206000820151816000019081610eed9190612fe1565b50602082015181600101556040820151816002019081610f0d9190612fe1565b5060608201518160030160006101000a81548173ffffffffffffffffffffffffffffffffffffffff021916908373ffffffffffffffffffffffffffffffffffffffff16021790555090505083604051610f669190612ae6565b604051809103902085604051610f7c9190612ae6565b60405180910390208773ffffffffffffffffffffffffffffffffffffffff167fb5cb263be0e4a3917baf60e555550ed9234dfdc77f981b7af252a9b6318c9f5a8686604051610fcc9291906130b3565b60405180910390a4505050505050565b6000600560008473ffffffffffffffffffffffffffffffffffffffff1673ffffffffffffffffffffffffffffffffffffffff16815260200190815260200160002060008373ffffffffffffffffffffffffffffffffffffffff1673ffffffffffffffffffffffffffffffffffffffff16815260200190815260200160002060009054906101000a900460ff16905092915050565b6110786112e1565b600073ffffffffffffffffffffffffffffffffffffffff168173ffffffffffffffffffffffffffffffffffffffff16036110e7576040517f08c379a00000000000000000000000000000000000000000000000000000000081526004016110de9061314e565b60405180910390fd5b6110f081611810565b50565b60007f80ac58cd000000000000000000000000000000000000000000000000000000007bffffffffffffffffffffffffffffffffffffffffffffffffffffffff1916827bffffffffffffffffffffffffffffffffffffffffffffffffffffffff191614806111be57507f5b5e139f000000000000000000000000000000000000000000000000000000007bffffffffffffffffffffffffffffffffffffffffffffffffffffffff1916827bffffffffffffffffffffffffffffffffffffffffffffffffffffffff1916145b806111ce57506111cd82611b1d565b5b9050919050565b6111de81611b87565b61121d576040517f08c379a000000000000000000000000000000000000000000000000000000000815260040161121490612d5f565b60405180910390fd5b50565b600033905090565b816004600083815260200190815260200160002060006101000a81548173ffffffffffffffffffffffffffffffffffffffff021916908373ffffffffffffffffffffffffffffffffffffffff160217905550808273ffffffffffffffffffffffffffffffffffffffff1661129b83610a2f565b73ffffffffffffffffffffffffffffffffffffffff167f8c5be1e5ebec7d5bd14f71427d1e84f3dd0314c0f7b2291e5b200ac8c7c3b92560405160405180910390a45050565b6112e9611220565b73ffffffffffffffffffffffffffffffffffffffff16611307610b80565b73ffffffffffffffffffffffffffffffffffffffff161461135d576040517f08c379a0000000000000000000000000000000000000000000000000000000008152600401611354906131ba565b60405180910390fd5b565b61136882611b87565b6113a7576040517f08c379a000000000000000000000000000000000000000000000000000000000815260040161139e9061324c565b60405180910390fd5b806006600084815260200190815260200160002090816113c79190612fe1565b507ff8e1a15aba9398e019f0b49df1a4fde98ee17ae345cb5f6b5e2c27f5033e8ce7826040516113f7919061280c565b60405180910390a15050565b60008061140f83610a2f565b90508073ffffffffffffffffffffffffffffffffffffffff168473ffffffffffffffffffffffffffffffffffffffff16148061145157506114508185610fdc565b5b8061148f57508373ffffffffffffffffffffffffffffffffffffffff16611477846106aa565b73ffffffffffffffffffffffffffffffffffffffff16145b91505092915050565b8273ffffffffffffffffffffffffffffffffffffffff166114b882610a2f565b73ffffffffffffffffffffffffffffffffffffffff161461150e576040517f08c379a0000000000000000000000000000000000000000000000000000000008152600401611505906132de565b60405180910390fd5b600073ffffffffffffffffffffffffffffffffffffffff168273ffffffffffffffffffffffffffffffffffffffff160361157d576040517f08c379a000000000000000000000000000000000000000000000000000000000815260040161157490613370565b60405180910390fd5b61158a8383836001611bc8565b8273ffffffffffffffffffffffffffffffffffffffff166115aa82610a2f565b73ffffffffffffffffffffffffffffffffffffffff1614611600576040517f08c379a00000000000000000000000000000000000000000000000000000000081526004016115f7906132de565b60405180910390fd5b6004600082815260200190815260200160002060006101000a81549073ffffffffffffffffffffffffffffffffffffffff02191690556001600360008573ffffffffffffffffffffffffffffffffffffffff1673ffffffffffffffffffffffffffffffffffffffff168152602001908152602001600020600082825403925050819055506001600360008473ffffffffffffffffffffffffffffffffffffffff1673ffffffffffffffffffffffffffffffffffffffff16815260200190815260200160002060008282540192505081905550816002600083815260200190815260200160002060006101000a81548173ffffffffffffffffffffffffffffffffffffffff021916908373ffffffffffffffffffffffffffffffffffffffff160217905550808273ffffffffffffffffffffffffffffffffffffffff168473ffffffffffffffffffffffffffffffffffffffff167fddf252ad1be2c89b69c2b068fc378daa952ba7f163c4a11628f55a4df523b3ef60405160405180910390a461178c8383836001611bce565b505050565b600081600001549050919050565b6001816000016000828254019250508190555050565b6117cf828260405180602001604052806000815250611bd4565b5050565b60006002600083815260200190815260200160002060009054906101000a900473ffffffffffffffffffffffffffffffffffffffff169050919050565b6000600760009054906101000a900473ffffffffffffffffffffffffffffffffffffffff16905081600760006101000a81548173ffffffffffffffffffffffffffffffffffffffff021916908373ffffffffffffffffffffffffffffffffffffffff1602179055508173ffffffffffffffffffffffffffffffffffffffff168173ffffffffffffffffffffffffffffffffffffffff167f8be0079c531659141344cd1fd0a4f28419497f9722a3daafe3b4186f6b6457e060405160405180910390a35050565b8173ffffffffffffffffffffffffffffffffffffffff168373ffffffffffffffffffffffffffffffffffffffff1603611944576040517f08c379a000000000000000000000000000000000000000000000000000000000815260040161193b906133dc565b60405180910390fd5b80600560008573ffffffffffffffffffffffffffffffffffffffff1673ffffffffffffffffffffffffffffffffffffffff16815260200190815260200160002060008473ffffffffffffffffffffffffffffffffffffffff1673ffffffffffffffffffffffffffffffffffffffff16815260200190815260200160002060006101000a81548160ff0219169083151502179055508173ffffffffffffffffffffffffffffffffffffffff168373ffffffffffffffffffffffffffffffffffffffff167f17307eab39ab6107e8899845ad3d59bd9653f200f220920489ca2b5937696c3183604051611a3591906122cb565b60405180910390a3505050565b611a4d848484611498565b611a5984848484611c2f565b611a98576040517f08c379a0000000000000000000000000000000000000000000000000000000008152600401611a8f9061346e565b60405180910390fd5b50505050565b606060405180602001604052806000815250905090565b6060611ac0826111d5565b6000611aca611a9e565b90506000815111611aea5760405180602001604052806000815250611b15565b80611af484611db6565b604051602001611b05929190612e11565b6040516020818303038152906040525b915050919050565b60007f01ffc9a7000000000000000000000000000000000000000000000000000000007bffffffffffffffffffffffffffffffffffffffffffffffffffffffff1916827bffffffffffffffffffffffffffffffffffffffffffffffffffffffff1916149050919050565b60008073ffffffffffffffffffffffffffffffffffffffff16611ba9836117d3565b73ffffffffffffffffffffffffffffffffffffffff1614159050919050565b50505050565b50505050565b611bde8383611e84565b611beb6000848484611c2f565b611c2a576040517f08c379a0000000000000000000000000000000000000000000000000000000008152600401611c219061346e565b60405180910390fd5b505050565b6000611c508473ffffffffffffffffffffffffffffffffffffffff166120a1565b15611da9578373ffffffffffffffffffffffffffffffffffffffff1663150b7a02611c79611220565b8786866040518563ffffffff1660e01b8152600401611c9b94939291906134e3565b6020604051808303816000875af1925050508015611cd757506040513d601f19601f82011682018060405250810190611cd49190613544565b60015b611d59573d8060008114611d07576040519150601f19603f3d011682016040523d82523d6000602084013e611d0c565b606091505b506000815103611d51576040517f08c379a0000000000000000000000000000000000000000000000000000000008152600401611d489061346e565b60405180910390fd5b805181602001fd5b63150b7a0260e01b7bffffffffffffffffffffffffffffffffffffffffffffffffffffffff1916817bffffffffffffffffffffffffffffffffffffffffffffffffffffffff191614915050611dae565b600190505b949350505050565b606060006001611dc5846120c4565b01905060008167ffffffffffffffff811115611de457611de3612301565b5b6040519080825280601f01601f191660200182016040528015611e165781602001600182028036833780820191505090505b509050600082602001820190505b600115611e79578080600190039150507f3031323334353637383961626364656600000000000000000000000000000000600a86061a8153600a8581611e6d57611e6c613571565b5b04945060008503611e24575b819350505050919050565b600073ffffffffffffffffffffffffffffffffffffffff168273ffffffffffffffffffffffffffffffffffffffff1603611ef3576040517f08c379a0000000000000000000000000000000000000000000000000000000008152600401611eea906135ec565b60405180910390fd5b611efc81611b87565b15611f3c576040517f08c379a0000000000000000000000000000000000000000000000000000000008152600401611f3390613658565b60405180910390fd5b611f4a600083836001611bc8565b611f5381611b87565b15611f93576040517f08c379a0000000000000000000000000000000000000000000000000000000008152600401611f8a90613658565b60405180910390fd5b6001600360008473ffffffffffffffffffffffffffffffffffffffff1673ffffffffffffffffffffffffffffffffffffffff16815260200190815260200160002060008282540192505081905550816002600083815260200190815260200160002060006101000a81548173ffffffffffffffffffffffffffffffffffffffff021916908373ffffffffffffffffffffffffffffffffffffffff160217905550808273ffffffffffffffffffffffffffffffffffffffff16600073ffffffffffffffffffffffffffffffffffffffff167fddf252ad1be2c89b69c2b068fc378daa952ba7f163c4a11628f55a4df523b3ef60405160405180910390a461209d600083836001611bce565b5050565b6000808273ffffffffffffffffffffffffffffffffffffffff163b119050919050565b600080600090507a184f03e93ff9f4daa797ed6e38ed64bf6a1f0100000000000000008310612122577a184f03e93ff9f4daa797ed6e38ed64bf6a1f010000000000000000838161211857612117613571565b5b0492506040810190505b6d04ee2d6d415b85acef8100000000831061215f576d04ee2d6d415b85acef8100000000838161215557612154613571565b5b0492506020810190505b662386f26fc10000831061218e57662386f26fc10000838161218457612183613571565b5b0492506010810190505b6305f5e10083106121b7576305f5e10083816121ad576121ac613571565b5b0492506008810190505b61271083106121dc5761271083816121d2576121d1613571565b5b0492506004810190505b606483106121ff57606483816121f5576121f4613571565b5b0492506002810190505b600a831061220e576001810190505b80915050919050565b6000604051905090565b600080fd5b600080fd5b60007fffffffff0000000000000000000000000000000000000000000000000000000082169050919050565b6122608161222b565b811461226b57600080fd5b50565b60008135905061227d81612257565b92915050565b60006020828403121561229957612298612221565b5b60006122a78482850161226e565b91505092915050565b60008115159050919050565b6122c5816122b0565b82525050565b60006020820190506122e060008301846122bc565b92915050565b600080fd5b600080fd5b6000601f19601f8301169050919050565b7f4e487b7100000000000000000000000000000000000000000000000000000000600052604160045260246000fd5b612339826122f0565b810181811067ffffffffffffffff8211171561235857612357612301565b5b80604052505050565b600061236b612217565b90506123778282612330565b919050565b600067ffffffffffffffff82111561239757612396612301565b5b6123a0826122f0565b9050602081019050919050565b82818337600083830152505050565b60006123cf6123ca8461237c565b612361565b9050828152602081018484840111156123eb576123ea6122eb565b5b6123f68482856123ad565b509392505050565b600082601f830112612413576124126122e6565b5b81356124238482602086016123bc565b91505092915050565b60006020828403121561244257612441612221565b5b600082013567ffffffffffffffff8111156124605761245f612226565b5b61246c848285016123fe565b91505092915050565b600073ffffffffffffffffffffffffffffffffffffffff82169050919050565b60006124a082612475565b9050919050565b6124b081612495565b82525050565b60006020820190506124cb60008301846124a7565b92915050565b600081519050919050565b600082825260208201905092915050565b60005b8381101561250b5780820151818401526020810190506124f0565b60008484015250505050565b6000612522826124d1565b61252c81856124dc565b935061253c8185602086016124ed565b612545816122f0565b840191505092915050565b6000602082019050818103600083015261256a8184612517565b905092915050565b6000819050919050565b61258581612572565b811461259057600080fd5b50565b6000813590506125a28161257c565b92915050565b6000602082840312156125be576125bd612221565b5b60006125cc84828501612593565b91505092915050565b6125de81612495565b81146125e957600080fd5b50565b6000813590506125fb816125d5565b92915050565b6000806040838503121561261857612617612221565b5b6000612626858286016125ec565b925050602061263785828601612593565b9150509250929050565b6000806040838503121561265857612657612221565b5b600061266685828601612593565b925050602083013567ffffffffffffffff81111561268757612686612226565b5b612693858286016123fe565b9150509250929050565b6000806000606084860312156126b6576126b5612221565b5b60006126c4868287016125ec565b93505060206126d5868287016125ec565b92505060406126e686828701612593565b9150509250925092565b60006020828403121561270657612705612221565b5b6000612714848285016125ec565b91505092915050565b600081519050919050565b600082825260208201905092915050565b6000819050602082019050919050565b61275281612572565b82525050565b60006127648383612749565b60208301905092915050565b6000602082019050919050565b60006127888261271d565b6127928185612728565b935061279d83612739565b8060005b838110156127ce5781516127b58882612758565b97506127c083612770565b9250506001810190506127a1565b5085935050505092915050565b600060208201905081810360008301526127f5818461277d565b905092915050565b61280681612572565b82525050565b600060208201905061282160008301846127fd565b92915050565b612830816122b0565b811461283b57600080fd5b50565b60008135905061284d81612827565b92915050565b6000806040838503121561286a57612869612221565b5b6000612878858286016125ec565b92505060206128898582860161283e565b9150509250929050565b600067ffffffffffffffff8211156128ae576128ad612301565b5b6128b7826122f0565b9050602081019050919050565b60006128d76128d284612893565b612361565b9050828152602081018484840111156128f3576128f26122eb565b5b6128fe8482856123ad565b509392505050565b600082601f83011261291b5761291a6122e6565b5b813561292b8482602086016128c4565b91505092915050565b6000806000806080858703121561294e5761294d612221565b5b600061295c878288016125ec565b945050602061296d878288016125ec565b935050604061297e87828801612593565b925050606085013567ffffffffffffffff81111561299f5761299e612226565b5b6129ab87828801612906565b91505092959194509250565b600080600080600060a086880312156129d3576129d2612221565b5b60006129e1888289016125ec565b955050602086013567ffffffffffffffff811115612a0257612a01612226565b5b612a0e888289016123fe565b945050604086013567ffffffffffffffff811115612a2f57612a2e612226565b5b612a3b888289016123fe565b9350506060612a4c88828901612593565b9250506080612a5d88828901612593565b9150509295509295909350565b60008060408385031215612a8157612a80612221565b5b6000612a8f858286016125ec565b9250506020612aa0858286016125ec565b9150509250929050565b600081905092915050565b6000612ac0826124d1565b612aca8185612aaa565b9350612ada8185602086016124ed565b80840191505092915050565b6000612af28284612ab5565b915081905092915050565b7f4e487b7100000000000000000000000000000000000000000000000000000000600052602260045260246000fd5b60006002820490506001821680612b4457607f821691505b602082108103612b5757612b56612afd565b5b50919050565b7f4552433732313a20617070726f76616c20746f2063757272656e74206f776e6560008201527f7200000000000000000000000000000000000000000000000000000000000000602082015250565b6000612bb96021836124dc565b9150612bc482612b5d565b604082019050919050565b60006020820190508181036000830152612be881612bac565b9050919050565b7f4552433732313a20617070726f76652063616c6c6572206973206e6f7420746f60008201527f6b656e206f776e6572206f7220617070726f76656420666f7220616c6c000000602082015250565b6000612c4b603d836124dc565b9150612c5682612bef565b604082019050919050565b60006020820190508181036000830152612c7a81612c3e565b9050919050565b7f4552433732313a2063616c6c6572206973206e6f7420746f6b656e206f776e6560008201527f72206f7220617070726f76656400000000000000000000000000000000000000602082015250565b6000612cdd602d836124dc565b9150612ce882612c81565b604082019050919050565b60006020820190508181036000830152612d0c81612cd0565b9050919050565b7f4552433732313a20696e76616c696420746f6b656e2049440000000000000000600082015250565b6000612d496018836124dc565b9150612d5482612d13565b602082019050919050565b60006020820190508181036000830152612d7881612d3c565b9050919050565b7f4552433732313a2061646472657373207a65726f206973206e6f74206120766160008201527f6c6964206f776e65720000000000000000000000000000000000000000000000602082015250565b6000612ddb6029836124dc565b9150612de682612d7f565b604082019050919050565b60006020820190508181036000830152612e0a81612dce565b9050919050565b6000612e1d8285612ab5565b9150612e298284612ab5565b91508190509392505050565b60008190508160005260206000209050919050565b60006020601f8301049050919050565b600082821b905092915050565b600060088302612e977fffffffffffffffffffffffffffffffffffffffffffffffffffffffffffffffff82612e5a565b612ea18683612e5a565b95508019841693508086168417925050509392505050565b6000819050919050565b6000612ede612ed9612ed484612572565b612eb9565b612572565b9050919050565b6000819050919050565b612ef883612ec3565b612f0c612f0482612ee5565b848454612e67565b825550505050565b600090565b612f21612f14565b612f2c818484612eef565b505050565b5b81811015612f5057612f45600082612f19565b600181019050612f32565b5050565b601f821115612f9557612f6681612e35565b612f6f84612e4a565b81016020851015612f7e578190505b612f92612f8a85612e4a565b830182612f31565b50505b505050565b600082821c905092915050565b6000612fb860001984600802612f9a565b1980831691505092915050565b6000612fd18383612fa7565b9150826002028217905092915050565b612fea826124d1565b67ffffffffffffffff81111561300357613002612301565b5b61300d8254612b2c565b613018828285612f54565b600060209050601f83116001811461304b5760008415613039578287015190505b6130438582612fc5565b8655506130ab565b601f19841661305986612e35565b60005b828110156130815784890151825560018201915060208501945060208101905061305c565b8683101561309e578489015161309a601f891682612fa7565b8355505b6001600288020188555050505b505050505050565b60006040820190506130c860008301856127fd565b6130d560208301846127fd565b9392505050565b7f4f776e61626c653a206e6577206f776e657220697320746865207a65726f206160008201527f6464726573730000000000000000000000000000000000000000000000000000602082015250565b60006131386026836124dc565b9150613143826130dc565b604082019050919050565b600060208201905081810360008301526131678161312b565b9050919050565b7f4f776e61626c653a2063616c6c6572206973206e6f7420746865206f776e6572600082015250565b60006131a46020836124dc565b91506131af8261316e565b602082019050919050565b600060208201905081810360008301526131d381613197565b9050919050565b7f45524337323155524953746f726167653a2055524920736574206f66206e6f6e60008201527f6578697374656e7420746f6b656e000000000000000000000000000000000000602082015250565b6000613236602e836124dc565b9150613241826131da565b604082019050919050565b6000602082019050818103600083015261326581613229565b9050919050565b7f4552433732313a207472616e736665722066726f6d20696e636f72726563742060008201527f6f776e6572000000000000000000000000000000000000000000000000000000602082015250565b60006132c86025836124dc565b91506132d38261326c565b604082019050919050565b600060208201905081810360008301526132f7816132bb565b9050919050565b7f4552433732313a207472616e7366657220746f20746865207a65726f2061646460008201527f7265737300000000000000000000000000000000000000000000000000000000602082015250565b600061335a6024836124dc565b9150613365826132fe565b604082019050919050565b600060208201905081810360008301526133898161334d565b9050919050565b7f4552433732313a20617070726f766520746f2063616c6c657200000000000000600082015250565b60006133c66019836124dc565b91506133d182613390565b602082019050919050565b600060208201905081810360008301526133f5816133b9565b9050919050565b7f4552433732313a207472616e7366657220746f206e6f6e20455243373231526560008201527f63656976657220696d706c656d656e7465720000000000000000000000000000602082015250565b60006134586032836124dc565b9150613463826133fc565b604082019050919050565b600060208201905081810360008301526134878161344b565b9050919050565b600081519050919050565b600082825260208201905092915050565b60006134b58261348e565b6134bf8185613499565b93506134cf8185602086016124ed565b6134d8816122f0565b840191505092915050565b60006080820190506134f860008301876124a7565b61350560208301866124a7565b61351260408301856127fd565b818103606083015261352481846134aa565b905095945050505050565b60008151905061353e81612257565b92915050565b60006020828403121561355a57613559612221565b5b60006135688482850161352f565b91505092915050565b7f4e487b7100000000000000000000000000000000000000000000000000000000600052601260045260246000fd5b7f4552433732313a206d696e7420746f20746865207a65726f2061646472657373600082015250565b60006135d66020836124dc565b91506135e1826135a0565b602082019050919050565b60006020820190508181036000830152613605816135c9565b9050919050565b7f4552433732313a20746f6b656e20616c7265616479206d696e74656400000000600082015250565b6000613642601c836124dc565b915061364d8261360c565b602082019050919050565b6000602082019050818103600083015261367181613635565b905091905056fea2646970667358221220e567ba31ebdfcd5123ca7ba2572668babbdf97335e0e2d647f4a507d5b361d5e64736f6c63430008130033",
  "linkReferences": {},
  "deployedLinkReferences": {}
}