{
  "_format": "hh-sol-artifact-1",
  "contractName": "WiggleFree",
  "sourceName": "contracts/WiggleFree.sol",
  "abi": [
    {
      "inputs": [],
      "stateMutability": "nonpayable",
      "type": "constructor"
    },
    {
      "anonymous": false,
      "inputs": [
        {
          "indexed": true,
          "internalType": "address",
          "name": "owner",
          "type": "address"
        },
        {
          "indexed": true,
          "internalType": "address",
          "name": "approved",
          "type": "address"
        },
        {
          "indexed": true,
          "internalType": "uint256",
          "name": "tokenId",
          "type": "uint256"
        }
      ],
      "name": "Approval",
      "type": "event"
    },
    {
      "anonymous": false,
      "inputs": [
        {
          "indexed": true,
          "internalType": "address",
          "name": "owner",
          "type": "address"
        },
        {
          "indexed": true,
          "internalType": "address",
          "name": "operator",
          "type": "address"
        },
        {
          "indexed": false,
          "internalType": "bool",
          "name": "approved",
          "type": "bool"
        }
      ],
      "name": "ApprovalForAll",
      "type": "event"
    },
    {
      "anonymous": false,
      "inputs": [
        {
          "indexed": true,
          "internalType": "address",
          "name": "previousOwner",
          "type": "address"
        },
        {
          "indexed": true,
          "internalType": "address",
          "name": "newOwner",
          "type": "address"
        }
      ],
      "name": "OwnershipTransferred",
      "type": "event"
    },
    {
      "anonymous": false,
      "inputs": [
        {
          "indexed": true,
          "internalType": "address",
          "name": "from",
          "type": "address"
        },
        {
          "indexed": true,
          "internalType": "address",
          "name": "to",
          "type": "address"
        },
        {
          "indexed": true,
          "internalType": "uint256",
          "name": "tokenId",
          "type": "uint256"
        }
      ],
      "name": "Transfer",
      "type": "event"
    },
    {
      "inputs": [
        {
          "internalType": "address",
          "name": "to",
          "type": "address"
        },
        {
          "internalType": "uint256",
          "name": "tokenId",
          "type": "uint256"
        }
      ],
      "name": "approve",
      "outputs": [],
      "stateMutability": "nonpayable",
      "type": "function"
    },
    {
      "inputs": [
        {
          "internalType": "address",
          "name": "owner",
          "type": "address"
        }
      ],
      "name": "balanceOf",
      "outputs": [
        {
          "internalType": "uint256",
          "name": "",
          "type": "uint256"
        }
      ],
      "stateMutability": "view",
      "type": "function"
    },
    {
      "inputs": [
        {
          "internalType": "uint256",
          "name": "tokenId",
          "type": "uint256"
        }
      ],
      "name": "getApproved",
      "outputs": [
        {
          "internalType": "address",
          "name": "",
          "type": "address"
        }
      ],
      "stateMutability": "view",
      "type": "function"
    },
    {
      "inputs": [
        {
          "internalType": "address",
          "name": "_address",
          "type": "address"
        }
      ],
      "name": "getTokenIdByAddress",
      "outputs": [
        {
          "internalType": "uint256",
          "name": "",
          "type": "uint256"
        }
      ],
      "stateMutability": "view",
      "type": "function"
    },
    {
      "inputs": [],
      "name": "getUserList",
      "outputs": [
        {
          "internalType": "address[]",
          "name": "",
          "type": "address[]"
        }
      ],
      "stateMutability": "view",
      "type": "function"
    },
    {
      "inputs": [
        {
          "internalType": "address",
          "name": "owner",
          "type": "address"
        },
        {
          "internalType": "address",
          "name": "operator",
          "type": "address"
        }
      ],
      "name": "isApprovedForAll",
      "outputs": [
        {
          "internalType": "bool",
          "name": "",
          "type": "bool"
        }
      ],
      "stateMutability": "view",
      "type": "function"
    },
    {
      "inputs": [],
      "name": "name",
      "outputs": [
        {
          "internalType": "string",
          "name": "",
          "type": "string"
        }
      ],
      "stateMutability": "view",
      "type": "function"
    },
    {
      "inputs": [],
      "name": "owner",
      "outputs": [
        {
          "internalType": "address",
          "name": "",
          "type": "address"
        }
      ],
      "stateMutability": "view",
      "type": "function"
    },
    {
      "inputs": [
        {
          "internalType": "uint256",
          "name": "tokenId",
          "type": "uint256"
        }
      ],
      "name": "ownerOf",
      "outputs": [
        {
          "internalType": "address",
          "name": "",
          "type": "address"
        }
      ],
      "stateMutability": "view",
      "type": "function"
    },
    {
      "inputs": [],
      "name": "renounceOwnership",
      "outputs": [],
      "stateMutability": "nonpayable",
      "type": "function"
    },
    {
      "inputs": [
        {
          "internalType": "address",
          "name": "_to",
          "type": "address"
        }
      ],
      "name": "safeMint",
      "outputs": [],
      "stateMutability": "nonpayable",
      "type": "function"
    },
    {
      "inputs": [
        {
          "internalType": "address",
          "name": "from",
          "type": "address"
        },
        {
          "internalType": "address",
          "name": "to",
          "type": "address"
        },
        {
          "internalType": "uint256",
          "name": "tokenId",
          "type": "uint256"
        }
      ],
      "name": "safeTransferFrom",
      "outputs": [],
      "stateMutability": "nonpayable",
      "type": "function"
    },
    {
      "inputs": [
        {
          "internalType": "address",
          "name": "from",
          "type": "address"
        },
        {
          "internalType": "address",
          "name": "to",
          "type": "address"
        },
        {
          "internalType": "uint256",
          "name": "tokenId",
          "type": "uint256"
        },
        {
          "internalType": "bytes",
          "name": "data",
          "type": "bytes"
        }
      ],
      "name": "safeTransferFrom",
      "outputs": [],
      "stateMutability": "nonpayable",
      "type": "function"
    },
    {
      "inputs": [
        {
          "internalType": "address",
          "name": "operator",
          "type": "address"
        },
        {
          "internalType": "bool",
          "name": "approved",
          "type": "bool"
        }
      ],
      "name": "setApprovalForAll",
      "outputs": [],
      "stateMutability": "nonpayable",
      "type": "function"
    },
    {
      "inputs": [
        {
          "internalType": "bytes4",
          "name": "interfaceId",
          "type": "bytes4"
        }
      ],
      "name": "supportsInterface",
      "outputs": [
        {
          "internalType": "bool",
          "name": "",
          "type": "bool"
        }
      ],
      "stateMutability": "view",
      "type": "function"
    },
    {
      "inputs": [],
      "name": "symbol",
      "outputs": [
        {
          "internalType": "string",
          "name": "",
          "type": "string"
        }
      ],
      "stateMutability": "view",
      "type": "function"
    },
    {
      "inputs": [
        {
          "internalType": "uint256",
          "name": "tokenId",
          "type": "uint256"
        }
      ],
      "name": "tokenURI",
      "outputs": [
        {
          "internalType": "string",
          "name": "",
          "type": "string"
        }
      ],
      "stateMutability": "view",
      "type": "function"
    },
    {
      "inputs": [
        {
          "internalType": "address",
          "name": "from",
          "type": "address"
        },
        {
          "internalType": "address",
          "name": "to",
          "type": "address"
        },
        {
          "internalType": "uint256",
          "name": "tokenId",
          "type": "uint256"
        }
      ],
      "name": "transferFrom",
      "outputs": [],
      "stateMutability": "nonpayable",
      "type": "function"
    },
    {
      "inputs": [
        {
          "internalType": "address",
          "name": "newOwner",
          "type": "address"
        }
      ],
      "name": "transferOwnership",
      "outputs": [],
      "stateMutability": "nonpayable",
      "type": "function"
    }
  ],
  "bytecode": "0x60806040523480156200001157600080fd5b506040518060400160405280600a81526020017f576967676c6546726565000000000000000000000000000000000000000000008152506040518060400160405280600581526020017f574747465200000000000000000000000000000000000000000000000000000081525081600090816200008f919062000412565b508060019081620000a1919062000412565b505050620000c4620000b8620000ca60201b60201c565b620000d260201b60201c565b620004f9565b600033905090565b6000600660009054906101000a900473ffffffffffffffffffffffffffffffffffffffff16905081600660006101000a81548173ffffffffffffffffffffffffffffffffffffffff021916908373ffffffffffffffffffffffffffffffffffffffff1602179055508173ffffffffffffffffffffffffffffffffffffffff168173ffffffffffffffffffffffffffffffffffffffff167f8be0079c531659141344cd1fd0a4f28419497f9722a3daafe3b4186f6b6457e060405160405180910390a35050565b600081519050919050565b7f4e487b7100000000000000000000000000000000000000000000000000000000600052604160045260246000fd5b7f4e487b7100000000000000000000000000000000000000000000000000000000600052602260045260246000fd5b600060028204905060018216806200021a57607f821691505b60208210810362000230576200022f620001d2565b5b50919050565b60008190508160005260206000209050919050565b60006020601f8301049050919050565b600082821b905092915050565b6000600883026200029a7fffffffffffffffffffffffffffffffffffffffffffffffffffffffffffffffff826200025b565b620002a686836200025b565b95508019841693508086168417925050509392505050565b6000819050919050565b6000819050919050565b6000620002f3620002ed620002e784620002be565b620002c8565b620002be565b9050919050565b6000819050919050565b6200030f83620002d2565b620003276200031e82620002fa565b84845462000268565b825550505050565b600090565b6200033e6200032f565b6200034b81848462000304565b505050565b5b8181101562000373576200036760008262000334565b60018101905062000351565b5050565b601f821115620003c2576200038c8162000236565b62000397846200024b565b81016020851015620003a7578190505b620003bf620003b6856200024b565b83018262000350565b50505b505050565b600082821c905092915050565b6000620003e760001984600802620003c7565b1980831691505092915050565b6000620004028383620003d4565b9150826002028217905092915050565b6200041d8262000198565b67ffffffffffffffff811115620004395762000438620001a3565b5b62000445825462000201565b6200045282828562000377565b600060209050601f8311600181146200048a576000841562000475578287015190505b620004818582620003f4565b865550620004f1565b601f1984166200049a8662000236565b60005b82811015620004c4578489015182556001820191506020850194506020810190506200049d565b86831015620004e45784890151620004e0601f891682620003d4565b8355505b6001600288020188555050505b505050505050565b612b4180620005096000396000f3fe608060405234801561001057600080fd5b50600436106101215760003560e01c8063715018a6116100ad578063b852204311610071578063b852204314610306578063b88d4fde14610324578063c87b56dd14610340578063e985e9c514610370578063f2fde38b146103a057610121565b8063715018a6146102745780638cbab7e41461027e5780638da5cb5b146102ae57806395d89b41146102cc578063a22cb465146102ea57610121565b806323b872dd116100f457806323b872dd146101c057806340d097c3146101dc57806342842e0e146101f85780636352211e1461021457806370a082311461024457610121565b806301ffc9a71461012657806306fdde0314610156578063081812fc14610174578063095ea7b3146101a4575b600080fd5b610140600480360381019061013b9190611c5f565b6103bc565b60405161014d9190611ca7565b60405180910390f35b61015e61049e565b60405161016b9190611d52565b60405180910390f35b61018e60048036038101906101899190611daa565b610530565b60405161019b9190611e18565b60405180910390f35b6101be60048036038101906101b99190611e5f565b610576565b005b6101da60048036038101906101d59190611e9f565b61068d565b005b6101f660048036038101906101f19190611ef2565b6106ed565b005b610212600480360381019061020d9190611e9f565b6107c2565b005b61022e60048036038101906102299190611daa565b6107e2565b60405161023b9190611e18565b60405180910390f35b61025e60048036038101906102599190611ef2565b610868565b60405161026b9190611f2e565b60405180910390f35b61027c61091f565b005b61029860048036038101906102939190611ef2565b610933565b6040516102a59190611f2e565b60405180910390f35b6102b661097c565b6040516102c39190611e18565b60405180910390f35b6102d46109a6565b6040516102e19190611d52565b60405180910390f35b61030460048036038101906102ff9190611f75565b610a38565b005b61030e610a4e565b60405161031b9190612073565b60405180910390f35b61033e600480360381019061033991906121ca565b610adc565b005b61035a60048036038101906103559190611daa565b610b3e565b6040516103679190611d52565b60405180910390f35b61038a6004803603810190610385919061224d565b610ba6565b6040516103979190611ca7565b60405180910390f35b6103ba60048036038101906103b59190611ef2565b610c3a565b005b60007f80ac58cd000000000000000000000000000000000000000000000000000000007bffffffffffffffffffffffffffffffffffffffffffffffffffffffff1916827bffffffffffffffffffffffffffffffffffffffffffffffffffffffff1916148061048757507f5b5e139f000000000000000000000000000000000000000000000000000000007bffffffffffffffffffffffffffffffffffffffffffffffffffffffff1916827bffffffffffffffffffffffffffffffffffffffffffffffffffffffff1916145b80610497575061049682610cbd565b5b9050919050565b6060600080546104ad906122bc565b80601f01602080910402602001604051908101604052809291908181526020018280546104d9906122bc565b80156105265780601f106104fb57610100808354040283529160200191610526565b820191906000526020600020905b81548152906001019060200180831161050957829003601f168201915b5050505050905090565b600061053b82610d27565b6004600083815260200190815260200160002060009054906101000a900473ffffffffffffffffffffffffffffffffffffffff169050919050565b6000610581826107e2565b90508073ffffffffffffffffffffffffffffffffffffffff168373ffffffffffffffffffffffffffffffffffffffff16036105f1576040517f08c379a00000000000000000000000000000000000000000000000000000000081526004016105e89061235f565b60405180910390fd5b8073ffffffffffffffffffffffffffffffffffffffff16610610610d72565b73ffffffffffffffffffffffffffffffffffffffff16148061063f575061063e81610639610d72565b610ba6565b5b61067e576040517f08c379a0000000000000000000000000000000000000000000000000000000008152600401610675906123f1565b60405180910390fd5b6106888383610d7a565b505050565b61069e610698610d72565b82610e33565b6106dd576040517f08c379a00000000000000000000000000000000000000000000000000000000081526004016106d490612483565b60405180910390fd5b6106e8838383610ec8565b505050565b6106f56111c1565b6000610701600761123f565b905061070d600761124d565b6107178282611263565b6009829080600181540180825580915050600190039060005260206000200160009091909190916101000a81548173ffffffffffffffffffffffffffffffffffffffff021916908373ffffffffffffffffffffffffffffffffffffffff16021790555080600860008473ffffffffffffffffffffffffffffffffffffffff1673ffffffffffffffffffffffffffffffffffffffff168152602001908152602001600020819055505050565b6107dd83838360405180602001604052806000815250610adc565b505050565b6000806107ee83611281565b9050600073ffffffffffffffffffffffffffffffffffffffff168173ffffffffffffffffffffffffffffffffffffffff160361085f576040517f08c379a0000000000000000000000000000000000000000000000000000000008152600401610856906124ef565b60405180910390fd5b80915050919050565b60008073ffffffffffffffffffffffffffffffffffffffff168273ffffffffffffffffffffffffffffffffffffffff16036108d8576040517f08c379a00000000000000000000000000000000000000000000000000000000081526004016108cf90612581565b60405180910390fd5b600360008373ffffffffffffffffffffffffffffffffffffffff1673ffffffffffffffffffffffffffffffffffffffff168152602001908152602001600020549050919050565b6109276111c1565b61093160006112be565b565b6000600860008373ffffffffffffffffffffffffffffffffffffffff1673ffffffffffffffffffffffffffffffffffffffff168152602001908152602001600020549050919050565b6000600660009054906101000a900473ffffffffffffffffffffffffffffffffffffffff16905090565b6060600180546109b5906122bc565b80601f01602080910402602001604051908101604052809291908181526020018280546109e1906122bc565b8015610a2e5780601f10610a0357610100808354040283529160200191610a2e565b820191906000526020600020905b815481529060010190602001808311610a1157829003601f168201915b5050505050905090565b610a4a610a43610d72565b8383611384565b5050565b60606009805480602002602001604051908101604052809291908181526020018280548015610ad257602002820191906000526020600020905b8160009054906101000a900473ffffffffffffffffffffffffffffffffffffffff1673ffffffffffffffffffffffffffffffffffffffff1681526020019060010190808311610a88575b5050505050905090565b610aed610ae7610d72565b83610e33565b610b2c576040517f08c379a0000000000000000000000000000000000000000000000000000000008152600401610b2390612483565b60405180910390fd5b610b38848484846114f0565b50505050565b6060610b4982610d27565b6000610b5361154c565b90506000815111610b735760405180602001604052806000815250610b9e565b80610b7d84611563565b604051602001610b8e9291906125dd565b6040516020818303038152906040525b915050919050565b6000600560008473ffffffffffffffffffffffffffffffffffffffff1673ffffffffffffffffffffffffffffffffffffffff16815260200190815260200160002060008373ffffffffffffffffffffffffffffffffffffffff1673ffffffffffffffffffffffffffffffffffffffff16815260200190815260200160002060009054906101000a900460ff16905092915050565b610c426111c1565b600073ffffffffffffffffffffffffffffffffffffffff168173ffffffffffffffffffffffffffffffffffffffff1603610cb1576040517f08c379a0000000000000000000000000000000000000000000000000000000008152600401610ca890612673565b60405180910390fd5b610cba816112be565b50565b60007f01ffc9a7000000000000000000000000000000000000000000000000000000007bffffffffffffffffffffffffffffffffffffffffffffffffffffffff1916827bffffffffffffffffffffffffffffffffffffffffffffffffffffffff1916149050919050565b610d3081611631565b610d6f576040517f08c379a0000000000000000000000000000000000000000000000000000000008152600401610d66906124ef565b60405180910390fd5b50565b600033905090565b816004600083815260200190815260200160002060006101000a81548173ffffffffffffffffffffffffffffffffffffffff021916908373ffffffffffffffffffffffffffffffffffffffff160217905550808273ffffffffffffffffffffffffffffffffffffffff16610ded836107e2565b73ffffffffffffffffffffffffffffffffffffffff167f8c5be1e5ebec7d5bd14f71427d1e84f3dd0314c0f7b2291e5b200ac8c7c3b92560405160405180910390a45050565b600080610e3f836107e2565b90508073ffffffffffffffffffffffffffffffffffffffff168473ffffffffffffffffffffffffffffffffffffffff161480610e815750610e808185610ba6565b5b80610ebf57508373ffffffffffffffffffffffffffffffffffffffff16610ea784610530565b73ffffffffffffffffffffffffffffffffffffffff16145b91505092915050565b8273ffffffffffffffffffffffffffffffffffffffff16610ee8826107e2565b73ffffffffffffffffffffffffffffffffffffffff1614610f3e576040517f08c379a0000000000000000000000000000000000000000000000000000000008152600401610f3590612705565b60405180910390fd5b600073ffffffffffffffffffffffffffffffffffffffff168273ffffffffffffffffffffffffffffffffffffffff1603610fad576040517f08c379a0000000000000000000000000000000000000000000000000000000008152600401610fa490612797565b60405180910390fd5b610fba8383836001611672565b8273ffffffffffffffffffffffffffffffffffffffff16610fda826107e2565b73ffffffffffffffffffffffffffffffffffffffff1614611030576040517f08c379a000000000000000000000000000000000000000000000000000000000815260040161102790612705565b60405180910390fd5b6004600082815260200190815260200160002060006101000a81549073ffffffffffffffffffffffffffffffffffffffff02191690556001600360008573ffffffffffffffffffffffffffffffffffffffff1673ffffffffffffffffffffffffffffffffffffffff168152602001908152602001600020600082825403925050819055506001600360008473ffffffffffffffffffffffffffffffffffffffff1673ffffffffffffffffffffffffffffffffffffffff16815260200190815260200160002060008282540192505081905550816002600083815260200190815260200160002060006101000a81548173ffffffffffffffffffffffffffffffffffffffff021916908373ffffffffffffffffffffffffffffffffffffffff160217905550808273ffffffffffffffffffffffffffffffffffffffff168473ffffffffffffffffffffffffffffffffffffffff167fddf252ad1be2c89b69c2b068fc378daa952ba7f163c4a11628f55a4df523b3ef60405160405180910390a46111bc8383836001611678565b505050565b6111c9610d72565b73ffffffffffffffffffffffffffffffffffffffff166111e761097c565b73ffffffffffffffffffffffffffffffffffffffff161461123d576040517f08c379a000000000000000000000000000000000000000000000000000000000815260040161123490612803565b60405180910390fd5b565b600081600001549050919050565b6001816000016000828254019250508190555050565b61127d82826040518060200160405280600081525061167e565b5050565b60006002600083815260200190815260200160002060009054906101000a900473ffffffffffffffffffffffffffffffffffffffff169050919050565b6000600660009054906101000a900473ffffffffffffffffffffffffffffffffffffffff16905081600660006101000a81548173ffffffffffffffffffffffffffffffffffffffff021916908373ffffffffffffffffffffffffffffffffffffffff1602179055508173ffffffffffffffffffffffffffffffffffffffff168173ffffffffffffffffffffffffffffffffffffffff167f8be0079c531659141344cd1fd0a4f28419497f9722a3daafe3b4186f6b6457e060405160405180910390a35050565b8173ffffffffffffffffffffffffffffffffffffffff168373ffffffffffffffffffffffffffffffffffffffff16036113f2576040517f08c379a00000000000000000000000000000000000000000000000000000000081526004016113e99061286f565b60405180910390fd5b80600560008573ffffffffffffffffffffffffffffffffffffffff1673ffffffffffffffffffffffffffffffffffffffff16815260200190815260200160002060008473ffffffffffffffffffffffffffffffffffffffff1673ffffffffffffffffffffffffffffffffffffffff16815260200190815260200160002060006101000a81548160ff0219169083151502179055508173ffffffffffffffffffffffffffffffffffffffff168373ffffffffffffffffffffffffffffffffffffffff167f17307eab39ab6107e8899845ad3d59bd9653f200f220920489ca2b5937696c31836040516114e39190611ca7565b60405180910390a3505050565b6114fb848484610ec8565b611507848484846116d9565b611546576040517f08c379a000000000000000000000000000000000000000000000000000000000815260040161153d90612901565b60405180910390fd5b50505050565b606060405180602001604052806000815250905090565b60606000600161157284611860565b01905060008167ffffffffffffffff8111156115915761159061209f565b5b6040519080825280601f01601f1916602001820160405280156115c35781602001600182028036833780820191505090505b509050600082602001820190505b600115611626578080600190039150507f3031323334353637383961626364656600000000000000000000000000000000600a86061a8153600a858161161a57611619612921565b5b049450600085036115d1575b819350505050919050565b60008073ffffffffffffffffffffffffffffffffffffffff1661165383611281565b73ffffffffffffffffffffffffffffffffffffffff1614159050919050565b50505050565b50505050565b61168883836119b3565b61169560008484846116d9565b6116d4576040517f08c379a00000000000000000000000000000000000000000000000000000000081526004016116cb90612901565b60405180910390fd5b505050565b60006116fa8473ffffffffffffffffffffffffffffffffffffffff16611bd0565b15611853578373ffffffffffffffffffffffffffffffffffffffff1663150b7a02611723610d72565b8786866040518563ffffffff1660e01b815260040161174594939291906129a5565b6020604051808303816000875af192505050801561178157506040513d601f19601f8201168201806040525081019061177e9190612a06565b60015b611803573d80600081146117b1576040519150601f19603f3d011682016040523d82523d6000602084013e6117b6565b606091505b5060008151036117fb576040517f08c379a00000000000000000000000000000000000000000000000000000000081526004016117f290612901565b60405180910390fd5b805181602001fd5b63150b7a0260e01b7bffffffffffffffffffffffffffffffffffffffffffffffffffffffff1916817bffffffffffffffffffffffffffffffffffffffffffffffffffffffff191614915050611858565b600190505b949350505050565b600080600090507a184f03e93ff9f4daa797ed6e38ed64bf6a1f01000000000000000083106118be577a184f03e93ff9f4daa797ed6e38ed64bf6a1f01000000000000000083816118b4576118b3612921565b5b0492506040810190505b6d04ee2d6d415b85acef810000000083106118fb576d04ee2d6d415b85acef810000000083816118f1576118f0612921565b5b0492506020810190505b662386f26fc10000831061192a57662386f26fc1000083816119205761191f612921565b5b0492506010810190505b6305f5e1008310611953576305f5e100838161194957611948612921565b5b0492506008810190505b612710831061197857612710838161196e5761196d612921565b5b0492506004810190505b6064831061199b576064838161199157611990612921565b5b0492506002810190505b600a83106119aa576001810190505b80915050919050565b600073ffffffffffffffffffffffffffffffffffffffff168273ffffffffffffffffffffffffffffffffffffffff1603611a22576040517f08c379a0000000000000000000000000000000000000000000000000000000008152600401611a1990612a7f565b60405180910390fd5b611a2b81611631565b15611a6b576040517f08c379a0000000000000000000000000000000000000000000000000000000008152600401611a6290612aeb565b60405180910390fd5b611a79600083836001611672565b611a8281611631565b15611ac2576040517f08c379a0000000000000000000000000000000000000000000000000000000008152600401611ab990612aeb565b60405180910390fd5b6001600360008473ffffffffffffffffffffffffffffffffffffffff1673ffffffffffffffffffffffffffffffffffffffff16815260200190815260200160002060008282540192505081905550816002600083815260200190815260200160002060006101000a81548173ffffffffffffffffffffffffffffffffffffffff021916908373ffffffffffffffffffffffffffffffffffffffff160217905550808273ffffffffffffffffffffffffffffffffffffffff16600073ffffffffffffffffffffffffffffffffffffffff167fddf252ad1be2c89b69c2b068fc378daa952ba7f163c4a11628f55a4df523b3ef60405160405180910390a4611bcc600083836001611678565b5050565b6000808273ffffffffffffffffffffffffffffffffffffffff163b119050919050565b6000604051905090565b600080fd5b600080fd5b60007fffffffff0000000000000000000000000000000000000000000000000000000082169050919050565b611c3c81611c07565b8114611c4757600080fd5b50565b600081359050611c5981611c33565b92915050565b600060208284031215611c7557611c74611bfd565b5b6000611c8384828501611c4a565b91505092915050565b60008115159050919050565b611ca181611c8c565b82525050565b6000602082019050611cbc6000830184611c98565b92915050565b600081519050919050565b600082825260208201905092915050565b60005b83811015611cfc578082015181840152602081019050611ce1565b60008484015250505050565b6000601f19601f8301169050919050565b6000611d2482611cc2565b611d2e8185611ccd565b9350611d3e818560208601611cde565b611d4781611d08565b840191505092915050565b60006020820190508181036000830152611d6c8184611d19565b905092915050565b6000819050919050565b611d8781611d74565b8114611d9257600080fd5b50565b600081359050611da481611d7e565b92915050565b600060208284031215611dc057611dbf611bfd565b5b6000611dce84828501611d95565b91505092915050565b600073ffffffffffffffffffffffffffffffffffffffff82169050919050565b6000611e0282611dd7565b9050919050565b611e1281611df7565b82525050565b6000602082019050611e2d6000830184611e09565b92915050565b611e3c81611df7565b8114611e4757600080fd5b50565b600081359050611e5981611e33565b92915050565b60008060408385031215611e7657611e75611bfd565b5b6000611e8485828601611e4a565b9250506020611e9585828601611d95565b9150509250929050565b600080600060608486031215611eb857611eb7611bfd565b5b6000611ec686828701611e4a565b9350506020611ed786828701611e4a565b9250506040611ee886828701611d95565b9150509250925092565b600060208284031215611f0857611f07611bfd565b5b6000611f1684828501611e4a565b91505092915050565b611f2881611d74565b82525050565b6000602082019050611f436000830184611f1f565b92915050565b611f5281611c8c565b8114611f5d57600080fd5b50565b600081359050611f6f81611f49565b92915050565b60008060408385031215611f8c57611f8b611bfd565b5b6000611f9a85828601611e4a565b9250506020611fab85828601611f60565b9150509250929050565b600081519050919050565b600082825260208201905092915050565b6000819050602082019050919050565b611fea81611df7565b82525050565b6000611ffc8383611fe1565b60208301905092915050565b6000602082019050919050565b600061202082611fb5565b61202a8185611fc0565b935061203583611fd1565b8060005b8381101561206657815161204d8882611ff0565b975061205883612008565b925050600181019050612039565b5085935050505092915050565b6000602082019050818103600083015261208d8184612015565b905092915050565b600080fd5b600080fd5b7f4e487b7100000000000000000000000000000000000000000000000000000000600052604160045260246000fd5b6120d782611d08565b810181811067ffffffffffffffff821117156120f6576120f561209f565b5b80604052505050565b6000612109611bf3565b905061211582826120ce565b919050565b600067ffffffffffffffff8211156121355761213461209f565b5b61213e82611d08565b9050602081019050919050565b82818337600083830152505050565b600061216d6121688461211a565b6120ff565b9050828152602081018484840111156121895761218861209a565b5b61219484828561214b565b509392505050565b600082601f8301126121b1576121b0612095565b5b81356121c184826020860161215a565b91505092915050565b600080600080608085870312156121e4576121e3611bfd565b5b60006121f287828801611e4a565b945050602061220387828801611e4a565b935050604061221487828801611d95565b925050606085013567ffffffffffffffff81111561223557612234611c02565b5b6122418782880161219c565b91505092959194509250565b6000806040838503121561226457612263611bfd565b5b600061227285828601611e4a565b925050602061228385828601611e4a565b9150509250929050565b7f4e487b7100000000000000000000000000000000000000000000000000000000600052602260045260246000fd5b600060028204905060018216806122d457607f821691505b6020821081036122e7576122e661228d565b5b50919050565b7f4552433732313a20617070726f76616c20746f2063757272656e74206f776e6560008201527f7200000000000000000000000000000000000000000000000000000000000000602082015250565b6000612349602183611ccd565b9150612354826122ed565b604082019050919050565b600060208201905081810360008301526123788161233c565b9050919050565b7f4552433732313a20617070726f76652063616c6c6572206973206e6f7420746f60008201527f6b656e206f776e6572206f7220617070726f76656420666f7220616c6c000000602082015250565b60006123db603d83611ccd565b91506123e68261237f565b604082019050919050565b6000602082019050818103600083015261240a816123ce565b9050919050565b7f4552433732313a2063616c6c6572206973206e6f7420746f6b656e206f776e6560008201527f72206f7220617070726f76656400000000000000000000000000000000000000602082015250565b600061246d602d83611ccd565b915061247882612411565b604082019050919050565b6000602082019050818103600083015261249c81612460565b9050919050565b7f4552433732313a20696e76616c696420746f6b656e2049440000000000000000600082015250565b60006124d9601883611ccd565b91506124e4826124a3565b602082019050919050565b60006020820190508181036000830152612508816124cc565b9050919050565b7f4552433732313a2061646472657373207a65726f206973206e6f74206120766160008201527f6c6964206f776e65720000000000000000000000000000000000000000000000602082015250565b600061256b602983611ccd565b91506125768261250f565b604082019050919050565b6000602082019050818103600083015261259a8161255e565b9050919050565b600081905092915050565b60006125b782611cc2565b6125c181856125a1565b93506125d1818560208601611cde565b80840191505092915050565b60006125e982856125ac565b91506125f582846125ac565b91508190509392505050565b7f4f776e61626c653a206e6577206f776e657220697320746865207a65726f206160008201527f6464726573730000000000000000000000000000000000000000000000000000602082015250565b600061265d602683611ccd565b915061266882612601565b604082019050919050565b6000602082019050818103600083015261268c81612650565b9050919050565b7f4552433732313a207472616e736665722066726f6d20696e636f72726563742060008201527f6f776e6572000000000000000000000000000000000000000000000000000000602082015250565b60006126ef602583611ccd565b91506126fa82612693565b604082019050919050565b6000602082019050818103600083015261271e816126e2565b9050919050565b7f4552433732313a207472616e7366657220746f20746865207a65726f2061646460008201527f7265737300000000000000000000000000000000000000000000000000000000602082015250565b6000612781602483611ccd565b915061278c82612725565b604082019050919050565b600060208201905081810360008301526127b081612774565b9050919050565b7f4f776e61626c653a2063616c6c6572206973206e6f7420746865206f776e6572600082015250565b60006127ed602083611ccd565b91506127f8826127b7565b602082019050919050565b6000602082019050818103600083015261281c816127e0565b9050919050565b7f4552433732313a20617070726f766520746f2063616c6c657200000000000000600082015250565b6000612859601983611ccd565b915061286482612823565b602082019050919050565b600060208201905081810360008301526128888161284c565b9050919050565b7f4552433732313a207472616e7366657220746f206e6f6e20455243373231526560008201527f63656976657220696d706c656d656e7465720000000000000000000000000000602082015250565b60006128eb603283611ccd565b91506128f68261288f565b604082019050919050565b6000602082019050818103600083015261291a816128de565b9050919050565b7f4e487b7100000000000000000000000000000000000000000000000000000000600052601260045260246000fd5b600081519050919050565b600082825260208201905092915050565b600061297782612950565b612981818561295b565b9350612991818560208601611cde565b61299a81611d08565b840191505092915050565b60006080820190506129ba6000830187611e09565b6129c76020830186611e09565b6129d46040830185611f1f565b81810360608301526129e6818461296c565b905095945050505050565b600081519050612a0081611c33565b92915050565b600060208284031215612a1c57612a1b611bfd565b5b6000612a2a848285016129f1565b91505092915050565b7f4552433732313a206d696e7420746f20746865207a65726f2061646472657373600082015250565b6000612a69602083611ccd565b9150612a7482612a33565b602082019050919050565b60006020820190508181036000830152612a9881612a5c565b9050919050565b7f4552433732313a20746f6b656e20616c7265616479206d696e74656400000000600082015250565b6000612ad5601c83611ccd565b9150612ae082612a9f565b602082019050919050565b60006020820190508181036000830152612b0481612ac8565b905091905056fea2646970667358221220b135d07ed7b572cb01433861c20a80a0923d20141faa23dbbc7a7c5ab7b599ae64736f6c63430008130033",
  "linkReferences": {},
  "deployedLinkReferences": {}
}