{
  "_format": "hh-sol-artifact-1",
  "contractName": "WiggleFree",
  "sourceName": "contracts/WiggleFree.sol",
  "abi": [
    {
      "inputs": [
        {
          "internalType": "string",
          "name": "customBaseURI_",
          "type": "string"
        }
      ],
      "stateMutability": "nonpayable",
      "type": "constructor"
    },
    {
      "anonymous": false,
      "inputs": [
        {
          "indexed": true,
          "internalType": "address",
          "name": "owner",
          "type": "address"
        },
        {
          "indexed": true,
          "internalType": "address",
          "name": "approved",
          "type": "address"
        },
        {
          "indexed": true,
          "internalType": "uint256",
          "name": "tokenId",
          "type": "uint256"
        }
      ],
      "name": "Approval",
      "type": "event"
    },
    {
      "anonymous": false,
      "inputs": [
        {
          "indexed": true,
          "internalType": "address",
          "name": "owner",
          "type": "address"
        },
        {
          "indexed": true,
          "internalType": "address",
          "name": "operator",
          "type": "address"
        },
        {
          "indexed": false,
          "internalType": "bool",
          "name": "approved",
          "type": "bool"
        }
      ],
      "name": "ApprovalForAll",
      "type": "event"
    },
    {
      "anonymous": false,
      "inputs": [
        {
          "indexed": false,
          "internalType": "uint256",
          "name": "_fromTokenId",
          "type": "uint256"
        },
        {
          "indexed": false,
          "internalType": "uint256",
          "name": "_toTokenId",
          "type": "uint256"
        }
      ],
      "name": "BatchMetadataUpdate",
      "type": "event"
    },
    {
      "anonymous": false,
      "inputs": [
        {
          "indexed": false,
          "internalType": "uint256",
          "name": "_tokenId",
          "type": "uint256"
        }
      ],
      "name": "MetadataUpdate",
      "type": "event"
    },
    {
      "anonymous": false,
      "inputs": [
        {
          "indexed": true,
          "internalType": "address",
          "name": "previousOwner",
          "type": "address"
        },
        {
          "indexed": true,
          "internalType": "address",
          "name": "newOwner",
          "type": "address"
        }
      ],
      "name": "OwnershipTransferred",
      "type": "event"
    },
    {
      "anonymous": false,
      "inputs": [
        {
          "indexed": true,
          "internalType": "address",
          "name": "to",
          "type": "address"
        },
        {
          "indexed": false,
          "internalType": "uint256",
          "name": "tokenId",
          "type": "uint256"
        }
      ],
      "name": "TokenMinted",
      "type": "event"
    },
    {
      "anonymous": false,
      "inputs": [
        {
          "indexed": true,
          "internalType": "address",
          "name": "from",
          "type": "address"
        },
        {
          "indexed": true,
          "internalType": "address",
          "name": "to",
          "type": "address"
        },
        {
          "indexed": true,
          "internalType": "uint256",
          "name": "tokenId",
          "type": "uint256"
        }
      ],
      "name": "Transfer",
      "type": "event"
    },
    {
      "inputs": [
        {
          "internalType": "address",
          "name": "to",
          "type": "address"
        },
        {
          "internalType": "uint256",
          "name": "tokenId",
          "type": "uint256"
        }
      ],
      "name": "approve",
      "outputs": [],
      "stateMutability": "nonpayable",
      "type": "function"
    },
    {
      "inputs": [
        {
          "internalType": "address",
          "name": "owner",
          "type": "address"
        }
      ],
      "name": "balanceOf",
      "outputs": [
        {
          "internalType": "uint256",
          "name": "",
          "type": "uint256"
        }
      ],
      "stateMutability": "view",
      "type": "function"
    },
    {
      "inputs": [
        {
          "internalType": "uint256",
          "name": "tokenId",
          "type": "uint256"
        }
      ],
      "name": "getApproved",
      "outputs": [
        {
          "internalType": "address",
          "name": "",
          "type": "address"
        }
      ],
      "stateMutability": "view",
      "type": "function"
    },
    {
      "inputs": [],
      "name": "getBaseURI",
      "outputs": [
        {
          "internalType": "string",
          "name": "",
          "type": "string"
        }
      ],
      "stateMutability": "view",
      "type": "function"
    },
    {
      "inputs": [
        {
          "internalType": "address",
          "name": "_address",
          "type": "address"
        }
      ],
      "name": "getTokenIdByAddress",
      "outputs": [
        {
          "internalType": "uint256",
          "name": "",
          "type": "uint256"
        }
      ],
      "stateMutability": "view",
      "type": "function"
    },
    {
      "inputs": [],
      "name": "getUserList",
      "outputs": [
        {
          "internalType": "address[]",
          "name": "",
          "type": "address[]"
        }
      ],
      "stateMutability": "view",
      "type": "function"
    },
    {
      "inputs": [
        {
          "internalType": "address",
          "name": "owner",
          "type": "address"
        },
        {
          "internalType": "address",
          "name": "operator",
          "type": "address"
        }
      ],
      "name": "isApprovedForAll",
      "outputs": [
        {
          "internalType": "bool",
          "name": "",
          "type": "bool"
        }
      ],
      "stateMutability": "view",
      "type": "function"
    },
    {
      "inputs": [],
      "name": "name",
      "outputs": [
        {
          "internalType": "string",
          "name": "",
          "type": "string"
        }
      ],
      "stateMutability": "view",
      "type": "function"
    },
    {
      "inputs": [],
      "name": "owner",
      "outputs": [
        {
          "internalType": "address",
          "name": "",
          "type": "address"
        }
      ],
      "stateMutability": "view",
      "type": "function"
    },
    {
      "inputs": [
        {
          "internalType": "uint256",
          "name": "tokenId",
          "type": "uint256"
        }
      ],
      "name": "ownerOf",
      "outputs": [
        {
          "internalType": "address",
          "name": "",
          "type": "address"
        }
      ],
      "stateMutability": "view",
      "type": "function"
    },
    {
      "inputs": [],
      "name": "renounceOwnership",
      "outputs": [],
      "stateMutability": "view",
      "type": "function"
    },
    {
      "inputs": [
        {
          "internalType": "address",
          "name": "_to",
          "type": "address"
        }
      ],
      "name": "safeMint",
      "outputs": [
        {
          "internalType": "uint256",
          "name": "",
          "type": "uint256"
        }
      ],
      "stateMutability": "nonpayable",
      "type": "function"
    },
    {
      "inputs": [
        {
          "internalType": "address",
          "name": "from",
          "type": "address"
        },
        {
          "internalType": "address",
          "name": "to",
          "type": "address"
        },
        {
          "internalType": "uint256",
          "name": "tokenId",
          "type": "uint256"
        }
      ],
      "name": "safeTransferFrom",
      "outputs": [],
      "stateMutability": "nonpayable",
      "type": "function"
    },
    {
      "inputs": [
        {
          "internalType": "address",
          "name": "from",
          "type": "address"
        },
        {
          "internalType": "address",
          "name": "to",
          "type": "address"
        },
        {
          "internalType": "uint256",
          "name": "tokenId",
          "type": "uint256"
        },
        {
          "internalType": "bytes",
          "name": "data",
          "type": "bytes"
        }
      ],
      "name": "safeTransferFrom",
      "outputs": [],
      "stateMutability": "view",
      "type": "function"
    },
    {
      "inputs": [
        {
          "internalType": "address",
          "name": "operator",
          "type": "address"
        },
        {
          "internalType": "bool",
          "name": "approved",
          "type": "bool"
        }
      ],
      "name": "setApprovalForAll",
      "outputs": [],
      "stateMutability": "nonpayable",
      "type": "function"
    },
    {
      "inputs": [
        {
          "internalType": "string",
          "name": "customBaseURI_",
          "type": "string"
        }
      ],
      "name": "setBaseURI",
      "outputs": [],
      "stateMutability": "nonpayable",
      "type": "function"
    },
    {
      "inputs": [
        {
          "internalType": "bytes4",
          "name": "interfaceId",
          "type": "bytes4"
        }
      ],
      "name": "supportsInterface",
      "outputs": [
        {
          "internalType": "bool",
          "name": "",
          "type": "bool"
        }
      ],
      "stateMutability": "view",
      "type": "function"
    },
    {
      "inputs": [],
      "name": "symbol",
      "outputs": [
        {
          "internalType": "string",
          "name": "",
          "type": "string"
        }
      ],
      "stateMutability": "view",
      "type": "function"
    },
    {
      "inputs": [
        {
          "internalType": "uint256",
          "name": "tokenId",
          "type": "uint256"
        }
      ],
      "name": "tokenURI",
      "outputs": [
        {
          "internalType": "string",
          "name": "",
          "type": "string"
        }
      ],
      "stateMutability": "view",
      "type": "function"
    },
    {
      "inputs": [
        {
          "internalType": "address",
          "name": "from",
          "type": "address"
        },
        {
          "internalType": "address",
          "name": "to",
          "type": "address"
        },
        {
          "internalType": "uint256",
          "name": "tokenId",
          "type": "uint256"
        }
      ],
      "name": "transferFrom",
      "outputs": [],
      "stateMutability": "view",
      "type": "function"
    },
    {
      "inputs": [
        {
          "internalType": "address",
          "name": "newOwner",
          "type": "address"
        }
      ],
      "name": "transferOwnership",
      "outputs": [],
      "stateMutability": "nonpayable",
      "type": "function"
    }
  ],
  "bytecode": "0x60806040523480156200001157600080fd5b506040516200323538038062003235833981810160405281019062000037919062000363565b6040518060400160405280600a81526020017f576967676c6546726565000000000000000000000000000000000000000000008152506040518060400160405280600581526020017f57474746520000000000000000000000000000000000000000000000000000008152508160009081620000b49190620005ff565b508060019081620000c69190620005ff565b505050620000e9620000dd6200010260201b60201c565b6200010a60201b60201c565b80600b9081620000fa9190620005ff565b5050620006e6565b600033905090565b6000600760009054906101000a900473ffffffffffffffffffffffffffffffffffffffff16905081600760006101000a81548173ffffffffffffffffffffffffffffffffffffffff021916908373ffffffffffffffffffffffffffffffffffffffff1602179055508173ffffffffffffffffffffffffffffffffffffffff168173ffffffffffffffffffffffffffffffffffffffff167f8be0079c531659141344cd1fd0a4f28419497f9722a3daafe3b4186f6b6457e060405160405180910390a35050565b6000604051905090565b600080fd5b600080fd5b600080fd5b600080fd5b6000601f19601f8301169050919050565b7f4e487b7100000000000000000000000000000000000000000000000000000000600052604160045260246000fd5b6200023982620001ee565b810181811067ffffffffffffffff821117156200025b576200025a620001ff565b5b80604052505050565b600062000270620001d0565b90506200027e82826200022e565b919050565b600067ffffffffffffffff821115620002a157620002a0620001ff565b5b620002ac82620001ee565b9050602081019050919050565b60005b83811015620002d9578082015181840152602081019050620002bc565b60008484015250505050565b6000620002fc620002f68462000283565b62000264565b9050828152602081018484840111156200031b576200031a620001e9565b5b62000328848285620002b9565b509392505050565b600082601f830112620003485762000347620001e4565b5b81516200035a848260208601620002e5565b91505092915050565b6000602082840312156200037c576200037b620001da565b5b600082015167ffffffffffffffff8111156200039d576200039c620001df565b5b620003ab8482850162000330565b91505092915050565b600081519050919050565b7f4e487b7100000000000000000000000000000000000000000000000000000000600052602260045260246000fd5b600060028204905060018216806200040757607f821691505b6020821081036200041d576200041c620003bf565b5b50919050565b60008190508160005260206000209050919050565b60006020601f8301049050919050565b600082821b905092915050565b600060088302620004877fffffffffffffffffffffffffffffffffffffffffffffffffffffffffffffffff8262000448565b62000493868362000448565b95508019841693508086168417925050509392505050565b6000819050919050565b6000819050919050565b6000620004e0620004da620004d484620004ab565b620004b5565b620004ab565b9050919050565b6000819050919050565b620004fc83620004bf565b620005146200050b82620004e7565b84845462000455565b825550505050565b600090565b6200052b6200051c565b62000538818484620004f1565b505050565b5b8181101562000560576200055460008262000521565b6001810190506200053e565b5050565b601f821115620005af57620005798162000423565b620005848462000438565b8101602085101562000594578190505b620005ac620005a38562000438565b8301826200053d565b50505b505050565b600082821c905092915050565b6000620005d460001984600802620005b4565b1980831691505092915050565b6000620005ef8383620005c1565b9150826002028217905092915050565b6200060a82620003b4565b67ffffffffffffffff811115620006265762000625620001ff565b5b620006328254620003ee565b6200063f82828562000564565b600060209050601f83116001811462000677576000841562000662578287015190505b6200066e8582620005e1565b865550620006de565b601f198416620006878662000423565b60005b82811015620006b1578489015182556001820191506020850194506020810190506200068a565b86831015620006d15784890151620006cd601f891682620005c1565b8355505b6001600288020188555050505b505050505050565b612b3f80620006f66000396000f3fe608060405234801561001057600080fd5b50600436106101375760003560e01c8063714c5398116100b8578063a22cb4651161007c578063a22cb4651461034e578063b85220431461036a578063b88d4fde14610388578063c87b56dd146103a4578063e985e9c5146103d4578063f2fde38b1461040457610137565b8063714c5398146102ba578063715018a6146102d85780638cbab7e4146102e25780638da5cb5b1461031257806395d89b411461033057610137565b806340d097c3116100ff57806340d097c3146101f257806342842e0e1461022257806355f804b31461023e5780636352211e1461025a57806370a082311461028a57610137565b806301ffc9a71461013c57806306fdde031461016c578063081812fc1461018a578063095ea7b3146101ba57806323b872dd146101d6575b600080fd5b61015660048036038101906101519190611aab565b610420565b6040516101639190611af3565b60405180910390f35b610174610481565b6040516101819190611b9e565b60405180910390f35b6101a4600480360381019061019f9190611bf6565b610513565b6040516101b19190611c64565b60405180910390f35b6101d460048036038101906101cf9190611cab565b610559565b005b6101f060048036038101906101eb9190611ceb565b610670565b005b61020c60048036038101906102079190611d3e565b61067d565b6040516102199190611d7a565b60405180910390f35b61023c60048036038101906102379190611ceb565b6107a7565b005b61025860048036038101906102539190611eca565b6107c7565b005b610274600480360381019061026f9190611bf6565b6107e2565b6040516102819190611c64565b60405180910390f35b6102a4600480360381019061029f9190611d3e565b610868565b6040516102b19190611d7a565b60405180910390f35b6102c261091f565b6040516102cf9190611b9e565b60405180910390f35b6102e061093c565b005b6102fc60048036038101906102f79190611d3e565b610946565b6040516103099190611d7a565b60405180910390f35b61031a61098f565b6040516103279190611c64565b60405180910390f35b6103386109b9565b6040516103459190611b9e565b60405180910390f35b61036860048036038101906103639190611f3f565b610a4b565b005b610372610a61565b60405161037f919061203d565b60405180910390f35b6103a2600480360381019061039d9190612100565b610af7565b005b6103be60048036038101906103b99190611bf6565b610b05565b6040516103cb9190611b9e565b60405180910390f35b6103ee60048036038101906103e99190612183565b610c17565b6040516103fb9190611af3565b60405180910390f35b61041e60048036038101906104199190611d3e565b610cab565b005b6000634906490660e01b7bffffffffffffffffffffffffffffffffffffffffffffffffffffffff1916827bffffffffffffffffffffffffffffffffffffffffffffffffffffffff1916148061047a575061047982610d2e565b5b9050919050565b606060008054610490906121f2565b80601f01602080910402602001604051908101604052809291908181526020018280546104bc906121f2565b80156105095780601f106104de57610100808354040283529160200191610509565b820191906000526020600020905b8154815290600101906020018083116104ec57829003601f168201915b5050505050905090565b600061051e82610e10565b6004600083815260200190815260200160002060009054906101000a900473ffffffffffffffffffffffffffffffffffffffff169050919050565b6000610564826107e2565b90508073ffffffffffffffffffffffffffffffffffffffff168373ffffffffffffffffffffffffffffffffffffffff16036105d4576040517f08c379a00000000000000000000000000000000000000000000000000000000081526004016105cb90612295565b60405180910390fd5b8073ffffffffffffffffffffffffffffffffffffffff166105f3610e5b565b73ffffffffffffffffffffffffffffffffffffffff16148061062257506106218161061c610e5b565b610c17565b5b610661576040517f08c379a000000000000000000000000000000000000000000000000000000000815260040161065890612327565b60405180910390fd5b61066b8383610e63565b505050565b610678610f1c565b505050565b6000610687610f1c565b60006106936008610f9a565b905061069f6008610fa8565b6106a98382610fbe565b600a839080600181540180825580915050600190039060005260206000200160009091909190916101000a81548173ffffffffffffffffffffffffffffffffffffffff021916908373ffffffffffffffffffffffffffffffffffffffff16021790555080600960008573ffffffffffffffffffffffffffffffffffffffff1673ffffffffffffffffffffffffffffffffffffffff168152602001908152602001600020819055508273ffffffffffffffffffffffffffffffffffffffff167fb9144c96c86541f6fa89c9f2f02495cccf4b08cd6643e26d34ee00aa586558a8826040516107969190611d7a565b60405180910390a280915050919050565b6107c283838360405180602001604052806000815250610af7565b505050565b6107cf610f1c565b80600b90816107de91906124f3565b5050565b6000806107ee83610fdc565b9050600073ffffffffffffffffffffffffffffffffffffffff168173ffffffffffffffffffffffffffffffffffffffff160361085f576040517f08c379a000000000000000000000000000000000000000000000000000000000815260040161085690612611565b60405180910390fd5b80915050919050565b60008073ffffffffffffffffffffffffffffffffffffffff168273ffffffffffffffffffffffffffffffffffffffff16036108d8576040517f08c379a00000000000000000000000000000000000000000000000000000000081526004016108cf906126a3565b60405180910390fd5b600360008373ffffffffffffffffffffffffffffffffffffffff1673ffffffffffffffffffffffffffffffffffffffff168152602001908152602001600020549050919050565b6060610929610f1c565b6000610933611019565b90508091505090565b610944610f1c565b565b6000600960008373ffffffffffffffffffffffffffffffffffffffff1673ffffffffffffffffffffffffffffffffffffffff168152602001908152602001600020549050919050565b6000600760009054906101000a900473ffffffffffffffffffffffffffffffffffffffff16905090565b6060600180546109c8906121f2565b80601f01602080910402602001604051908101604052809291908181526020018280546109f4906121f2565b8015610a415780601f10610a1657610100808354040283529160200191610a41565b820191906000526020600020905b815481529060010190602001808311610a2457829003601f168201915b5050505050905090565b610a5d610a56610e5b565b83836110ab565b5050565b6060610a6b610f1c565b600a805480602002602001604051908101604052809291908181526020018280548015610aed57602002820191906000526020600020905b8160009054906101000a900473ffffffffffffffffffffffffffffffffffffffff1673ffffffffffffffffffffffffffffffffffffffff1681526020019060010190808311610aa3575b5050505050905090565b610aff610f1c565b50505050565b6060610b1082610e10565b6000600660008481526020019081526020016000208054610b30906121f2565b80601f0160208091040260200160405190810160405280929190818152602001828054610b5c906121f2565b8015610ba95780601f10610b7e57610100808354040283529160200191610ba9565b820191906000526020600020905b815481529060010190602001808311610b8c57829003601f168201915b505050505090506000610bba611019565b90506000815103610bcf578192505050610c12565b600082511115610c04578082604051602001610bec9291906126ff565b60405160208183030381529060405292505050610c12565b610c0d84611217565b925050505b919050565b6000600560008473ffffffffffffffffffffffffffffffffffffffff1673ffffffffffffffffffffffffffffffffffffffff16815260200190815260200160002060008373ffffffffffffffffffffffffffffffffffffffff1673ffffffffffffffffffffffffffffffffffffffff16815260200190815260200160002060009054906101000a900460ff16905092915050565b610cb3610f1c565b600073ffffffffffffffffffffffffffffffffffffffff168173ffffffffffffffffffffffffffffffffffffffff1603610d22576040517f08c379a0000000000000000000000000000000000000000000000000000000008152600401610d1990612795565b60405180910390fd5b610d2b8161127f565b50565b60007f80ac58cd000000000000000000000000000000000000000000000000000000007bffffffffffffffffffffffffffffffffffffffffffffffffffffffff1916827bffffffffffffffffffffffffffffffffffffffffffffffffffffffff19161480610df957507f5b5e139f000000000000000000000000000000000000000000000000000000007bffffffffffffffffffffffffffffffffffffffffffffffffffffffff1916827bffffffffffffffffffffffffffffffffffffffffffffffffffffffff1916145b80610e095750610e0882611345565b5b9050919050565b610e19816113af565b610e58576040517f08c379a0000000000000000000000000000000000000000000000000000000008152600401610e4f90612611565b60405180910390fd5b50565b600033905090565b816004600083815260200190815260200160002060006101000a81548173ffffffffffffffffffffffffffffffffffffffff021916908373ffffffffffffffffffffffffffffffffffffffff160217905550808273ffffffffffffffffffffffffffffffffffffffff16610ed6836107e2565b73ffffffffffffffffffffffffffffffffffffffff167f8c5be1e5ebec7d5bd14f71427d1e84f3dd0314c0f7b2291e5b200ac8c7c3b92560405160405180910390a45050565b610f24610e5b565b73ffffffffffffffffffffffffffffffffffffffff16610f4261098f565b73ffffffffffffffffffffffffffffffffffffffff1614610f98576040517f08c379a0000000000000000000000000000000000000000000000000000000008152600401610f8f90612801565b60405180910390fd5b565b600081600001549050919050565b6001816000016000828254019250508190555050565b610fd88282604051806020016040528060008152506113f0565b5050565b60006002600083815260200190815260200160002060009054906101000a900473ffffffffffffffffffffffffffffffffffffffff169050919050565b6060600b8054611028906121f2565b80601f0160208091040260200160405190810160405280929190818152602001828054611054906121f2565b80156110a15780601f10611076576101008083540402835291602001916110a1565b820191906000526020600020905b81548152906001019060200180831161108457829003601f168201915b5050505050905090565b8173ffffffffffffffffffffffffffffffffffffffff168373ffffffffffffffffffffffffffffffffffffffff1603611119576040517f08c379a00000000000000000000000000000000000000000000000000000000081526004016111109061286d565b60405180910390fd5b80600560008573ffffffffffffffffffffffffffffffffffffffff1673ffffffffffffffffffffffffffffffffffffffff16815260200190815260200160002060008473ffffffffffffffffffffffffffffffffffffffff1673ffffffffffffffffffffffffffffffffffffffff16815260200190815260200160002060006101000a81548160ff0219169083151502179055508173ffffffffffffffffffffffffffffffffffffffff168373ffffffffffffffffffffffffffffffffffffffff167f17307eab39ab6107e8899845ad3d59bd9653f200f220920489ca2b5937696c318360405161120a9190611af3565b60405180910390a3505050565b606061122282610e10565b600061122c611019565b9050600081511161124c5760405180602001604052806000815250611277565b806112568461144b565b6040516020016112679291906126ff565b6040516020818303038152906040525b915050919050565b6000600760009054906101000a900473ffffffffffffffffffffffffffffffffffffffff16905081600760006101000a81548173ffffffffffffffffffffffffffffffffffffffff021916908373ffffffffffffffffffffffffffffffffffffffff1602179055508173ffffffffffffffffffffffffffffffffffffffff168173ffffffffffffffffffffffffffffffffffffffff167f8be0079c531659141344cd1fd0a4f28419497f9722a3daafe3b4186f6b6457e060405160405180910390a35050565b60007f01ffc9a7000000000000000000000000000000000000000000000000000000007bffffffffffffffffffffffffffffffffffffffffffffffffffffffff1916827bffffffffffffffffffffffffffffffffffffffffffffffffffffffff1916149050919050565b60008073ffffffffffffffffffffffffffffffffffffffff166113d183610fdc565b73ffffffffffffffffffffffffffffffffffffffff1614159050919050565b6113fa8383611519565b6114076000848484611736565b611446576040517f08c379a000000000000000000000000000000000000000000000000000000000815260040161143d906128ff565b60405180910390fd5b505050565b60606000600161145a846118bd565b01905060008167ffffffffffffffff81111561147957611478611d9f565b5b6040519080825280601f01601f1916602001820160405280156114ab5781602001600182028036833780820191505090505b509050600082602001820190505b60011561150e578080600190039150507f3031323334353637383961626364656600000000000000000000000000000000600a86061a8153600a85816115025761150161291f565b5b049450600085036114b9575b819350505050919050565b600073ffffffffffffffffffffffffffffffffffffffff168273ffffffffffffffffffffffffffffffffffffffff1603611588576040517f08c379a000000000000000000000000000000000000000000000000000000000815260040161157f9061299a565b60405180910390fd5b611591816113af565b156115d1576040517f08c379a00000000000000000000000000000000000000000000000000000000081526004016115c890612a06565b60405180910390fd5b6115df600083836001611a10565b6115e8816113af565b15611628576040517f08c379a000000000000000000000000000000000000000000000000000000000815260040161161f90612a06565b60405180910390fd5b6001600360008473ffffffffffffffffffffffffffffffffffffffff1673ffffffffffffffffffffffffffffffffffffffff16815260200190815260200160002060008282540192505081905550816002600083815260200190815260200160002060006101000a81548173ffffffffffffffffffffffffffffffffffffffff021916908373ffffffffffffffffffffffffffffffffffffffff160217905550808273ffffffffffffffffffffffffffffffffffffffff16600073ffffffffffffffffffffffffffffffffffffffff167fddf252ad1be2c89b69c2b068fc378daa952ba7f163c4a11628f55a4df523b3ef60405160405180910390a4611732600083836001611a16565b5050565b60006117578473ffffffffffffffffffffffffffffffffffffffff16611a1c565b156118b0578373ffffffffffffffffffffffffffffffffffffffff1663150b7a02611780610e5b565b8786866040518563ffffffff1660e01b81526004016117a29493929190612a7b565b6020604051808303816000875af19250505080156117de57506040513d601f19601f820116820180604052508101906117db9190612adc565b60015b611860573d806000811461180e576040519150601f19603f3d011682016040523d82523d6000602084013e611813565b606091505b506000815103611858576040517f08c379a000000000000000000000000000000000000000000000000000000000815260040161184f906128ff565b60405180910390fd5b805181602001fd5b63150b7a0260e01b7bffffffffffffffffffffffffffffffffffffffffffffffffffffffff1916817bffffffffffffffffffffffffffffffffffffffffffffffffffffffff1916149150506118b5565b600190505b949350505050565b600080600090507a184f03e93ff9f4daa797ed6e38ed64bf6a1f010000000000000000831061191b577a184f03e93ff9f4daa797ed6e38ed64bf6a1f01000000000000000083816119115761191061291f565b5b0492506040810190505b6d04ee2d6d415b85acef81000000008310611958576d04ee2d6d415b85acef8100000000838161194e5761194d61291f565b5b0492506020810190505b662386f26fc10000831061198757662386f26fc10000838161197d5761197c61291f565b5b0492506010810190505b6305f5e10083106119b0576305f5e10083816119a6576119a561291f565b5b0492506008810190505b61271083106119d55761271083816119cb576119ca61291f565b5b0492506004810190505b606483106119f857606483816119ee576119ed61291f565b5b0492506002810190505b600a8310611a07576001810190505b80915050919050565b50505050565b50505050565b6000808273ffffffffffffffffffffffffffffffffffffffff163b119050919050565b6000604051905090565b600080fd5b600080fd5b60007fffffffff0000000000000000000000000000000000000000000000000000000082169050919050565b611a8881611a53565b8114611a9357600080fd5b50565b600081359050611aa581611a7f565b92915050565b600060208284031215611ac157611ac0611a49565b5b6000611acf84828501611a96565b91505092915050565b60008115159050919050565b611aed81611ad8565b82525050565b6000602082019050611b086000830184611ae4565b92915050565b600081519050919050565b600082825260208201905092915050565b60005b83811015611b48578082015181840152602081019050611b2d565b60008484015250505050565b6000601f19601f8301169050919050565b6000611b7082611b0e565b611b7a8185611b19565b9350611b8a818560208601611b2a565b611b9381611b54565b840191505092915050565b60006020820190508181036000830152611bb88184611b65565b905092915050565b6000819050919050565b611bd381611bc0565b8114611bde57600080fd5b50565b600081359050611bf081611bca565b92915050565b600060208284031215611c0c57611c0b611a49565b5b6000611c1a84828501611be1565b91505092915050565b600073ffffffffffffffffffffffffffffffffffffffff82169050919050565b6000611c4e82611c23565b9050919050565b611c5e81611c43565b82525050565b6000602082019050611c796000830184611c55565b92915050565b611c8881611c43565b8114611c9357600080fd5b50565b600081359050611ca581611c7f565b92915050565b60008060408385031215611cc257611cc1611a49565b5b6000611cd085828601611c96565b9250506020611ce185828601611be1565b9150509250929050565b600080600060608486031215611d0457611d03611a49565b5b6000611d1286828701611c96565b9350506020611d2386828701611c96565b9250506040611d3486828701611be1565b9150509250925092565b600060208284031215611d5457611d53611a49565b5b6000611d6284828501611c96565b91505092915050565b611d7481611bc0565b82525050565b6000602082019050611d8f6000830184611d6b565b92915050565b600080fd5b600080fd5b7f4e487b7100000000000000000000000000000000000000000000000000000000600052604160045260246000fd5b611dd782611b54565b810181811067ffffffffffffffff82111715611df657611df5611d9f565b5b80604052505050565b6000611e09611a3f565b9050611e158282611dce565b919050565b600067ffffffffffffffff821115611e3557611e34611d9f565b5b611e3e82611b54565b9050602081019050919050565b82818337600083830152505050565b6000611e6d611e6884611e1a565b611dff565b905082815260208101848484011115611e8957611e88611d9a565b5b611e94848285611e4b565b509392505050565b600082601f830112611eb157611eb0611d95565b5b8135611ec1848260208601611e5a565b91505092915050565b600060208284031215611ee057611edf611a49565b5b600082013567ffffffffffffffff811115611efe57611efd611a4e565b5b611f0a84828501611e9c565b91505092915050565b611f1c81611ad8565b8114611f2757600080fd5b50565b600081359050611f3981611f13565b92915050565b60008060408385031215611f5657611f55611a49565b5b6000611f6485828601611c96565b9250506020611f7585828601611f2a565b9150509250929050565b600081519050919050565b600082825260208201905092915050565b6000819050602082019050919050565b611fb481611c43565b82525050565b6000611fc68383611fab565b60208301905092915050565b6000602082019050919050565b6000611fea82611f7f565b611ff48185611f8a565b9350611fff83611f9b565b8060005b838110156120305781516120178882611fba565b975061202283611fd2565b925050600181019050612003565b5085935050505092915050565b600060208201905081810360008301526120578184611fdf565b905092915050565b600067ffffffffffffffff82111561207a57612079611d9f565b5b61208382611b54565b9050602081019050919050565b60006120a361209e8461205f565b611dff565b9050828152602081018484840111156120bf576120be611d9a565b5b6120ca848285611e4b565b509392505050565b600082601f8301126120e7576120e6611d95565b5b81356120f7848260208601612090565b91505092915050565b6000806000806080858703121561211a57612119611a49565b5b600061212887828801611c96565b945050602061213987828801611c96565b935050604061214a87828801611be1565b925050606085013567ffffffffffffffff81111561216b5761216a611a4e565b5b612177878288016120d2565b91505092959194509250565b6000806040838503121561219a57612199611a49565b5b60006121a885828601611c96565b92505060206121b985828601611c96565b9150509250929050565b7f4e487b7100000000000000000000000000000000000000000000000000000000600052602260045260246000fd5b6000600282049050600182168061220a57607f821691505b60208210810361221d5761221c6121c3565b5b50919050565b7f4552433732313a20617070726f76616c20746f2063757272656e74206f776e6560008201527f7200000000000000000000000000000000000000000000000000000000000000602082015250565b600061227f602183611b19565b915061228a82612223565b604082019050919050565b600060208201905081810360008301526122ae81612272565b9050919050565b7f4552433732313a20617070726f76652063616c6c6572206973206e6f7420746f60008201527f6b656e206f776e6572206f7220617070726f76656420666f7220616c6c000000602082015250565b6000612311603d83611b19565b915061231c826122b5565b604082019050919050565b6000602082019050818103600083015261234081612304565b9050919050565b60008190508160005260206000209050919050565b60006020601f8301049050919050565b600082821b905092915050565b6000600883026123a97fffffffffffffffffffffffffffffffffffffffffffffffffffffffffffffffff8261236c565b6123b3868361236c565b95508019841693508086168417925050509392505050565b6000819050919050565b60006123f06123eb6123e684611bc0565b6123cb565b611bc0565b9050919050565b6000819050919050565b61240a836123d5565b61241e612416826123f7565b848454612379565b825550505050565b600090565b612433612426565b61243e818484612401565b505050565b5b818110156124625761245760008261242b565b600181019050612444565b5050565b601f8211156124a75761247881612347565b6124818461235c565b81016020851015612490578190505b6124a461249c8561235c565b830182612443565b50505b505050565b600082821c905092915050565b60006124ca600019846008026124ac565b1980831691505092915050565b60006124e383836124b9565b9150826002028217905092915050565b6124fc82611b0e565b67ffffffffffffffff81111561251557612514611d9f565b5b61251f82546121f2565b61252a828285612466565b600060209050601f83116001811461255d576000841561254b578287015190505b61255585826124d7565b8655506125bd565b601f19841661256b86612347565b60005b828110156125935784890151825560018201915060208501945060208101905061256e565b868310156125b057848901516125ac601f8916826124b9565b8355505b6001600288020188555050505b505050505050565b7f4552433732313a20696e76616c696420746f6b656e2049440000000000000000600082015250565b60006125fb601883611b19565b9150612606826125c5565b602082019050919050565b6000602082019050818103600083015261262a816125ee565b9050919050565b7f4552433732313a2061646472657373207a65726f206973206e6f74206120766160008201527f6c6964206f776e65720000000000000000000000000000000000000000000000602082015250565b600061268d602983611b19565b915061269882612631565b604082019050919050565b600060208201905081810360008301526126bc81612680565b9050919050565b600081905092915050565b60006126d982611b0e565b6126e381856126c3565b93506126f3818560208601611b2a565b80840191505092915050565b600061270b82856126ce565b915061271782846126ce565b91508190509392505050565b7f4f776e61626c653a206e6577206f776e657220697320746865207a65726f206160008201527f6464726573730000000000000000000000000000000000000000000000000000602082015250565b600061277f602683611b19565b915061278a82612723565b604082019050919050565b600060208201905081810360008301526127ae81612772565b9050919050565b7f4f776e61626c653a2063616c6c6572206973206e6f7420746865206f776e6572600082015250565b60006127eb602083611b19565b91506127f6826127b5565b602082019050919050565b6000602082019050818103600083015261281a816127de565b9050919050565b7f4552433732313a20617070726f766520746f2063616c6c657200000000000000600082015250565b6000612857601983611b19565b915061286282612821565b602082019050919050565b600060208201905081810360008301526128868161284a565b9050919050565b7f4552433732313a207472616e7366657220746f206e6f6e20455243373231526560008201527f63656976657220696d706c656d656e7465720000000000000000000000000000602082015250565b60006128e9603283611b19565b91506128f48261288d565b604082019050919050565b60006020820190508181036000830152612918816128dc565b9050919050565b7f4e487b7100000000000000000000000000000000000000000000000000000000600052601260045260246000fd5b7f4552433732313a206d696e7420746f20746865207a65726f2061646472657373600082015250565b6000612984602083611b19565b915061298f8261294e565b602082019050919050565b600060208201905081810360008301526129b381612977565b9050919050565b7f4552433732313a20746f6b656e20616c7265616479206d696e74656400000000600082015250565b60006129f0601c83611b19565b91506129fb826129ba565b602082019050919050565b60006020820190508181036000830152612a1f816129e3565b9050919050565b600081519050919050565b600082825260208201905092915050565b6000612a4d82612a26565b612a578185612a31565b9350612a67818560208601611b2a565b612a7081611b54565b840191505092915050565b6000608082019050612a906000830187611c55565b612a9d6020830186611c55565b612aaa6040830185611d6b565b8181036060830152612abc8184612a42565b905095945050505050565b600081519050612ad681611a7f565b92915050565b600060208284031215612af257612af1611a49565b5b6000612b0084828501612ac7565b9150509291505056fea264697066735822122037a22ebe71a31e5cab62275a79941fd267d6948f084370f670f65f03ed81d3fb64736f6c63430008130033",
  "linkReferences": {},
  "deployedLinkReferences": {}
}