{
  "_format": "hh-sol-artifact-1",
  "contractName": "WiggleFree",
  "sourceName": "contracts/WiggleFree.sol",
  "abi": [
    {
      "inputs": [
        {
          "internalType": "string",
          "name": "customBaseURI_",
          "type": "string"
        }
      ],
      "stateMutability": "nonpayable",
      "type": "constructor"
    },
    {
      "anonymous": false,
      "inputs": [
        {
          "indexed": true,
          "internalType": "address",
          "name": "owner",
          "type": "address"
        },
        {
          "indexed": true,
          "internalType": "address",
          "name": "approved",
          "type": "address"
        },
        {
          "indexed": true,
          "internalType": "uint256",
          "name": "tokenId",
          "type": "uint256"
        }
      ],
      "name": "Approval",
      "type": "event"
    },
    {
      "anonymous": false,
      "inputs": [
        {
          "indexed": true,
          "internalType": "address",
          "name": "owner",
          "type": "address"
        },
        {
          "indexed": true,
          "internalType": "address",
          "name": "operator",
          "type": "address"
        },
        {
          "indexed": false,
          "internalType": "bool",
          "name": "approved",
          "type": "bool"
        }
      ],
      "name": "ApprovalForAll",
      "type": "event"
    },
    {
      "anonymous": false,
      "inputs": [
        {
          "indexed": false,
          "internalType": "uint256",
          "name": "_fromTokenId",
          "type": "uint256"
        },
        {
          "indexed": false,
          "internalType": "uint256",
          "name": "_toTokenId",
          "type": "uint256"
        }
      ],
      "name": "BatchMetadataUpdate",
      "type": "event"
    },
    {
      "anonymous": false,
      "inputs": [
        {
          "indexed": false,
          "internalType": "uint256",
          "name": "_tokenId",
          "type": "uint256"
        }
      ],
      "name": "MetadataUpdate",
      "type": "event"
    },
    {
      "anonymous": false,
      "inputs": [
        {
          "indexed": true,
          "internalType": "address",
          "name": "previousOwner",
          "type": "address"
        },
        {
          "indexed": true,
          "internalType": "address",
          "name": "newOwner",
          "type": "address"
        }
      ],
      "name": "OwnershipTransferred",
      "type": "event"
    },
    {
      "anonymous": false,
      "inputs": [
        {
          "indexed": true,
          "internalType": "address",
          "name": "from",
          "type": "address"
        },
        {
          "indexed": true,
          "internalType": "address",
          "name": "to",
          "type": "address"
        },
        {
          "indexed": true,
          "internalType": "uint256",
          "name": "tokenId",
          "type": "uint256"
        }
      ],
      "name": "Transfer",
      "type": "event"
    },
    {
      "inputs": [
        {
          "internalType": "address",
          "name": "to",
          "type": "address"
        },
        {
          "internalType": "uint256",
          "name": "tokenId",
          "type": "uint256"
        }
      ],
      "name": "approve",
      "outputs": [],
      "stateMutability": "nonpayable",
      "type": "function"
    },
    {
      "inputs": [
        {
          "internalType": "address",
          "name": "owner",
          "type": "address"
        }
      ],
      "name": "balanceOf",
      "outputs": [
        {
          "internalType": "uint256",
          "name": "",
          "type": "uint256"
        }
      ],
      "stateMutability": "view",
      "type": "function"
    },
    {
      "inputs": [
        {
          "internalType": "uint256",
          "name": "tokenId",
          "type": "uint256"
        }
      ],
      "name": "getApproved",
      "outputs": [
        {
          "internalType": "address",
          "name": "",
          "type": "address"
        }
      ],
      "stateMutability": "view",
      "type": "function"
    },
    {
      "inputs": [],
      "name": "getBaseURI",
      "outputs": [
        {
          "internalType": "string",
          "name": "",
          "type": "string"
        }
      ],
      "stateMutability": "view",
      "type": "function"
    },
    {
      "inputs": [
        {
          "internalType": "address",
          "name": "_address",
          "type": "address"
        }
      ],
      "name": "getTokenIdByAddress",
      "outputs": [
        {
          "internalType": "uint256",
          "name": "",
          "type": "uint256"
        }
      ],
      "stateMutability": "view",
      "type": "function"
    },
    {
      "inputs": [],
      "name": "getUserList",
      "outputs": [
        {
          "internalType": "address[]",
          "name": "",
          "type": "address[]"
        }
      ],
      "stateMutability": "view",
      "type": "function"
    },
    {
      "inputs": [
        {
          "internalType": "address",
          "name": "owner",
          "type": "address"
        },
        {
          "internalType": "address",
          "name": "operator",
          "type": "address"
        }
      ],
      "name": "isApprovedForAll",
      "outputs": [
        {
          "internalType": "bool",
          "name": "",
          "type": "bool"
        }
      ],
      "stateMutability": "view",
      "type": "function"
    },
    {
      "inputs": [],
      "name": "name",
      "outputs": [
        {
          "internalType": "string",
          "name": "",
          "type": "string"
        }
      ],
      "stateMutability": "view",
      "type": "function"
    },
    {
      "inputs": [],
      "name": "owner",
      "outputs": [
        {
          "internalType": "address",
          "name": "",
          "type": "address"
        }
      ],
      "stateMutability": "view",
      "type": "function"
    },
    {
      "inputs": [
        {
          "internalType": "uint256",
          "name": "tokenId",
          "type": "uint256"
        }
      ],
      "name": "ownerOf",
      "outputs": [
        {
          "internalType": "address",
          "name": "",
          "type": "address"
        }
      ],
      "stateMutability": "view",
      "type": "function"
    },
    {
      "inputs": [],
      "name": "renounceOwnership",
      "outputs": [],
      "stateMutability": "view",
      "type": "function"
    },
    {
      "inputs": [
        {
          "internalType": "address",
          "name": "_to",
          "type": "address"
        }
      ],
      "name": "safeMint",
      "outputs": [
        {
          "internalType": "uint256",
          "name": "",
          "type": "uint256"
        }
      ],
      "stateMutability": "nonpayable",
      "type": "function"
    },
    {
      "inputs": [
        {
          "internalType": "address",
          "name": "from",
          "type": "address"
        },
        {
          "internalType": "address",
          "name": "to",
          "type": "address"
        },
        {
          "internalType": "uint256",
          "name": "tokenId",
          "type": "uint256"
        }
      ],
      "name": "safeTransferFrom",
      "outputs": [],
      "stateMutability": "nonpayable",
      "type": "function"
    },
    {
      "inputs": [
        {
          "internalType": "address",
          "name": "from",
          "type": "address"
        },
        {
          "internalType": "address",
          "name": "to",
          "type": "address"
        },
        {
          "internalType": "uint256",
          "name": "tokenId",
          "type": "uint256"
        },
        {
          "internalType": "bytes",
          "name": "data",
          "type": "bytes"
        }
      ],
      "name": "safeTransferFrom",
      "outputs": [],
      "stateMutability": "view",
      "type": "function"
    },
    {
      "inputs": [
        {
          "internalType": "address",
          "name": "operator",
          "type": "address"
        },
        {
          "internalType": "bool",
          "name": "approved",
          "type": "bool"
        }
      ],
      "name": "setApprovalForAll",
      "outputs": [],
      "stateMutability": "nonpayable",
      "type": "function"
    },
    {
      "inputs": [
        {
          "internalType": "string",
          "name": "customBaseURI_",
          "type": "string"
        }
      ],
      "name": "setBaseURI",
      "outputs": [],
      "stateMutability": "nonpayable",
      "type": "function"
    },
    {
      "inputs": [
        {
          "internalType": "bytes4",
          "name": "interfaceId",
          "type": "bytes4"
        }
      ],
      "name": "supportsInterface",
      "outputs": [
        {
          "internalType": "bool",
          "name": "",
          "type": "bool"
        }
      ],
      "stateMutability": "view",
      "type": "function"
    },
    {
      "inputs": [],
      "name": "symbol",
      "outputs": [
        {
          "internalType": "string",
          "name": "",
          "type": "string"
        }
      ],
      "stateMutability": "view",
      "type": "function"
    },
    {
      "inputs": [
        {
          "internalType": "uint256",
          "name": "tokenId",
          "type": "uint256"
        }
      ],
      "name": "tokenURI",
      "outputs": [
        {
          "internalType": "string",
          "name": "",
          "type": "string"
        }
      ],
      "stateMutability": "view",
      "type": "function"
    },
    {
      "inputs": [
        {
          "internalType": "address",
          "name": "from",
          "type": "address"
        },
        {
          "internalType": "address",
          "name": "to",
          "type": "address"
        },
        {
          "internalType": "uint256",
          "name": "tokenId",
          "type": "uint256"
        }
      ],
      "name": "transferFrom",
      "outputs": [],
      "stateMutability": "view",
      "type": "function"
    },
    {
      "inputs": [
        {
          "internalType": "address",
          "name": "newOwner",
          "type": "address"
        }
      ],
      "name": "transferOwnership",
      "outputs": [],
      "stateMutability": "nonpayable",
      "type": "function"
    }
  ],
  "bytecode": "0x60806040523480156200001157600080fd5b50604051620031e7380380620031e7833981810160405281019062000037919062000363565b6040518060400160405280600a81526020017f576967676c6546726565000000000000000000000000000000000000000000008152506040518060400160405280600581526020017f57474746520000000000000000000000000000000000000000000000000000008152508160009081620000b49190620005ff565b508060019081620000c69190620005ff565b505050620000e9620000dd6200010260201b60201c565b6200010a60201b60201c565b80600b9081620000fa9190620005ff565b5050620006e6565b600033905090565b6000600760009054906101000a900473ffffffffffffffffffffffffffffffffffffffff16905081600760006101000a81548173ffffffffffffffffffffffffffffffffffffffff021916908373ffffffffffffffffffffffffffffffffffffffff1602179055508173ffffffffffffffffffffffffffffffffffffffff168173ffffffffffffffffffffffffffffffffffffffff167f8be0079c531659141344cd1fd0a4f28419497f9722a3daafe3b4186f6b6457e060405160405180910390a35050565b6000604051905090565b600080fd5b600080fd5b600080fd5b600080fd5b6000601f19601f8301169050919050565b7f4e487b7100000000000000000000000000000000000000000000000000000000600052604160045260246000fd5b6200023982620001ee565b810181811067ffffffffffffffff821117156200025b576200025a620001ff565b5b80604052505050565b600062000270620001d0565b90506200027e82826200022e565b919050565b600067ffffffffffffffff821115620002a157620002a0620001ff565b5b620002ac82620001ee565b9050602081019050919050565b60005b83811015620002d9578082015181840152602081019050620002bc565b60008484015250505050565b6000620002fc620002f68462000283565b62000264565b9050828152602081018484840111156200031b576200031a620001e9565b5b62000328848285620002b9565b509392505050565b600082601f830112620003485762000347620001e4565b5b81516200035a848260208601620002e5565b91505092915050565b6000602082840312156200037c576200037b620001da565b5b600082015167ffffffffffffffff8111156200039d576200039c620001df565b5b620003ab8482850162000330565b91505092915050565b600081519050919050565b7f4e487b7100000000000000000000000000000000000000000000000000000000600052602260045260246000fd5b600060028204905060018216806200040757607f821691505b6020821081036200041d576200041c620003bf565b5b50919050565b60008190508160005260206000209050919050565b60006020601f8301049050919050565b600082821b905092915050565b600060088302620004877fffffffffffffffffffffffffffffffffffffffffffffffffffffffffffffffff8262000448565b62000493868362000448565b95508019841693508086168417925050509392505050565b6000819050919050565b6000819050919050565b6000620004e0620004da620004d484620004ab565b620004b5565b620004ab565b9050919050565b6000819050919050565b620004fc83620004bf565b620005146200050b82620004e7565b84845462000455565b825550505050565b600090565b6200052b6200051c565b62000538818484620004f1565b505050565b5b8181101562000560576200055460008262000521565b6001810190506200053e565b5050565b601f821115620005af57620005798162000423565b620005848462000438565b8101602085101562000594578190505b620005ac620005a38562000438565b8301826200053d565b50505b505050565b600082821c905092915050565b6000620005d460001984600802620005b4565b1980831691505092915050565b6000620005ef8383620005c1565b9150826002028217905092915050565b6200060a82620003b4565b67ffffffffffffffff811115620006265762000625620001ff565b5b620006328254620003ee565b6200063f82828562000564565b600060209050601f83116001811462000677576000841562000662578287015190505b6200066e8582620005e1565b865550620006de565b601f198416620006878662000423565b60005b82811015620006b1578489015182556001820191506020850194506020810190506200068a565b86831015620006d15784890151620006cd601f891682620005c1565b8355505b6001600288020188555050505b505050505050565b612af180620006f66000396000f3fe608060405234801561001057600080fd5b50600436106101375760003560e01c8063714c5398116100b8578063a22cb4651161007c578063a22cb4651461034e578063b85220431461036a578063b88d4fde14610388578063c87b56dd146103a4578063e985e9c5146103d4578063f2fde38b1461040457610137565b8063714c5398146102ba578063715018a6146102d85780638cbab7e4146102e25780638da5cb5b1461031257806395d89b411461033057610137565b806340d097c3116100ff57806340d097c3146101f257806342842e0e1461022257806355f804b31461023e5780636352211e1461025a57806370a082311461028a57610137565b806301ffc9a71461013c57806306fdde031461016c578063081812fc1461018a578063095ea7b3146101ba57806323b872dd146101d6575b600080fd5b61015660048036038101906101519190611a5d565b610420565b6040516101639190611aa5565b60405180910390f35b610174610481565b6040516101819190611b50565b60405180910390f35b6101a4600480360381019061019f9190611ba8565b610513565b6040516101b19190611c16565b60405180910390f35b6101d460048036038101906101cf9190611c5d565b610559565b005b6101f060048036038101906101eb9190611c9d565b610670565b005b61020c60048036038101906102079190611cf0565b61067d565b6040516102199190611d2c565b60405180910390f35b61023c60048036038101906102379190611c9d565b610759565b005b61025860048036038101906102539190611e7c565b610779565b005b610274600480360381019061026f9190611ba8565b610794565b6040516102819190611c16565b60405180910390f35b6102a4600480360381019061029f9190611cf0565b61081a565b6040516102b19190611d2c565b60405180910390f35b6102c26108d1565b6040516102cf9190611b50565b60405180910390f35b6102e06108ee565b005b6102fc60048036038101906102f79190611cf0565b6108f8565b6040516103099190611d2c565b60405180910390f35b61031a610941565b6040516103279190611c16565b60405180910390f35b61033861096b565b6040516103459190611b50565b60405180910390f35b61036860048036038101906103639190611ef1565b6109fd565b005b610372610a13565b60405161037f9190611fef565b60405180910390f35b6103a2600480360381019061039d91906120b2565b610aa9565b005b6103be60048036038101906103b99190611ba8565b610ab7565b6040516103cb9190611b50565b60405180910390f35b6103ee60048036038101906103e99190612135565b610bc9565b6040516103fb9190611aa5565b60405180910390f35b61041e60048036038101906104199190611cf0565b610c5d565b005b6000634906490660e01b7bffffffffffffffffffffffffffffffffffffffffffffffffffffffff1916827bffffffffffffffffffffffffffffffffffffffffffffffffffffffff1916148061047a575061047982610ce0565b5b9050919050565b606060008054610490906121a4565b80601f01602080910402602001604051908101604052809291908181526020018280546104bc906121a4565b80156105095780601f106104de57610100808354040283529160200191610509565b820191906000526020600020905b8154815290600101906020018083116104ec57829003601f168201915b5050505050905090565b600061051e82610dc2565b6004600083815260200190815260200160002060009054906101000a900473ffffffffffffffffffffffffffffffffffffffff169050919050565b600061056482610794565b90508073ffffffffffffffffffffffffffffffffffffffff168373ffffffffffffffffffffffffffffffffffffffff16036105d4576040517f08c379a00000000000000000000000000000000000000000000000000000000081526004016105cb90612247565b60405180910390fd5b8073ffffffffffffffffffffffffffffffffffffffff166105f3610e0d565b73ffffffffffffffffffffffffffffffffffffffff16148061062257506106218161061c610e0d565b610bc9565b5b610661576040517f08c379a0000000000000000000000000000000000000000000000000000000008152600401610658906122d9565b60405180910390fd5b61066b8383610e15565b505050565b610678610ece565b505050565b6000610687610ece565b60006106936008610f4c565b905061069f6008610f5a565b6106a98382610f70565b600a839080600181540180825580915050600190039060005260206000200160009091909190916101000a81548173ffffffffffffffffffffffffffffffffffffffff021916908373ffffffffffffffffffffffffffffffffffffffff16021790555080600960008573ffffffffffffffffffffffffffffffffffffffff1673ffffffffffffffffffffffffffffffffffffffff1681526020019081526020016000208190555080915050919050565b61077483838360405180602001604052806000815250610aa9565b505050565b610781610ece565b80600b908161079091906124a5565b5050565b6000806107a083610f8e565b9050600073ffffffffffffffffffffffffffffffffffffffff168173ffffffffffffffffffffffffffffffffffffffff1603610811576040517f08c379a0000000000000000000000000000000000000000000000000000000008152600401610808906125c3565b60405180910390fd5b80915050919050565b60008073ffffffffffffffffffffffffffffffffffffffff168273ffffffffffffffffffffffffffffffffffffffff160361088a576040517f08c379a000000000000000000000000000000000000000000000000000000000815260040161088190612655565b60405180910390fd5b600360008373ffffffffffffffffffffffffffffffffffffffff1673ffffffffffffffffffffffffffffffffffffffff168152602001908152602001600020549050919050565b60606108db610ece565b60006108e5610fcb565b90508091505090565b6108f6610ece565b565b6000600960008373ffffffffffffffffffffffffffffffffffffffff1673ffffffffffffffffffffffffffffffffffffffff168152602001908152602001600020549050919050565b6000600760009054906101000a900473ffffffffffffffffffffffffffffffffffffffff16905090565b60606001805461097a906121a4565b80601f01602080910402602001604051908101604052809291908181526020018280546109a6906121a4565b80156109f35780601f106109c8576101008083540402835291602001916109f3565b820191906000526020600020905b8154815290600101906020018083116109d657829003601f168201915b5050505050905090565b610a0f610a08610e0d565b838361105d565b5050565b6060610a1d610ece565b600a805480602002602001604051908101604052809291908181526020018280548015610a9f57602002820191906000526020600020905b8160009054906101000a900473ffffffffffffffffffffffffffffffffffffffff1673ffffffffffffffffffffffffffffffffffffffff1681526020019060010190808311610a55575b5050505050905090565b610ab1610ece565b50505050565b6060610ac282610dc2565b6000600660008481526020019081526020016000208054610ae2906121a4565b80601f0160208091040260200160405190810160405280929190818152602001828054610b0e906121a4565b8015610b5b5780601f10610b3057610100808354040283529160200191610b5b565b820191906000526020600020905b815481529060010190602001808311610b3e57829003601f168201915b505050505090506000610b6c610fcb565b90506000815103610b81578192505050610bc4565b600082511115610bb6578082604051602001610b9e9291906126b1565b60405160208183030381529060405292505050610bc4565b610bbf846111c9565b925050505b919050565b6000600560008473ffffffffffffffffffffffffffffffffffffffff1673ffffffffffffffffffffffffffffffffffffffff16815260200190815260200160002060008373ffffffffffffffffffffffffffffffffffffffff1673ffffffffffffffffffffffffffffffffffffffff16815260200190815260200160002060009054906101000a900460ff16905092915050565b610c65610ece565b600073ffffffffffffffffffffffffffffffffffffffff168173ffffffffffffffffffffffffffffffffffffffff1603610cd4576040517f08c379a0000000000000000000000000000000000000000000000000000000008152600401610ccb90612747565b60405180910390fd5b610cdd81611231565b50565b60007f80ac58cd000000000000000000000000000000000000000000000000000000007bffffffffffffffffffffffffffffffffffffffffffffffffffffffff1916827bffffffffffffffffffffffffffffffffffffffffffffffffffffffff19161480610dab57507f5b5e139f000000000000000000000000000000000000000000000000000000007bffffffffffffffffffffffffffffffffffffffffffffffffffffffff1916827bffffffffffffffffffffffffffffffffffffffffffffffffffffffff1916145b80610dbb5750610dba826112f7565b5b9050919050565b610dcb81611361565b610e0a576040517f08c379a0000000000000000000000000000000000000000000000000000000008152600401610e01906125c3565b60405180910390fd5b50565b600033905090565b816004600083815260200190815260200160002060006101000a81548173ffffffffffffffffffffffffffffffffffffffff021916908373ffffffffffffffffffffffffffffffffffffffff160217905550808273ffffffffffffffffffffffffffffffffffffffff16610e8883610794565b73ffffffffffffffffffffffffffffffffffffffff167f8c5be1e5ebec7d5bd14f71427d1e84f3dd0314c0f7b2291e5b200ac8c7c3b92560405160405180910390a45050565b610ed6610e0d565b73ffffffffffffffffffffffffffffffffffffffff16610ef4610941565b73ffffffffffffffffffffffffffffffffffffffff1614610f4a576040517f08c379a0000000000000000000000000000000000000000000000000000000008152600401610f41906127b3565b60405180910390fd5b565b600081600001549050919050565b6001816000016000828254019250508190555050565b610f8a8282604051806020016040528060008152506113a2565b5050565b60006002600083815260200190815260200160002060009054906101000a900473ffffffffffffffffffffffffffffffffffffffff169050919050565b6060600b8054610fda906121a4565b80601f0160208091040260200160405190810160405280929190818152602001828054611006906121a4565b80156110535780601f1061102857610100808354040283529160200191611053565b820191906000526020600020905b81548152906001019060200180831161103657829003601f168201915b5050505050905090565b8173ffffffffffffffffffffffffffffffffffffffff168373ffffffffffffffffffffffffffffffffffffffff16036110cb576040517f08c379a00000000000000000000000000000000000000000000000000000000081526004016110c29061281f565b60405180910390fd5b80600560008573ffffffffffffffffffffffffffffffffffffffff1673ffffffffffffffffffffffffffffffffffffffff16815260200190815260200160002060008473ffffffffffffffffffffffffffffffffffffffff1673ffffffffffffffffffffffffffffffffffffffff16815260200190815260200160002060006101000a81548160ff0219169083151502179055508173ffffffffffffffffffffffffffffffffffffffff168373ffffffffffffffffffffffffffffffffffffffff167f17307eab39ab6107e8899845ad3d59bd9653f200f220920489ca2b5937696c31836040516111bc9190611aa5565b60405180910390a3505050565b60606111d482610dc2565b60006111de610fcb565b905060008151116111fe5760405180602001604052806000815250611229565b80611208846113fd565b6040516020016112199291906126b1565b6040516020818303038152906040525b915050919050565b6000600760009054906101000a900473ffffffffffffffffffffffffffffffffffffffff16905081600760006101000a81548173ffffffffffffffffffffffffffffffffffffffff021916908373ffffffffffffffffffffffffffffffffffffffff1602179055508173ffffffffffffffffffffffffffffffffffffffff168173ffffffffffffffffffffffffffffffffffffffff167f8be0079c531659141344cd1fd0a4f28419497f9722a3daafe3b4186f6b6457e060405160405180910390a35050565b60007f01ffc9a7000000000000000000000000000000000000000000000000000000007bffffffffffffffffffffffffffffffffffffffffffffffffffffffff1916827bffffffffffffffffffffffffffffffffffffffffffffffffffffffff1916149050919050565b60008073ffffffffffffffffffffffffffffffffffffffff1661138383610f8e565b73ffffffffffffffffffffffffffffffffffffffff1614159050919050565b6113ac83836114cb565b6113b960008484846116e8565b6113f8576040517f08c379a00000000000000000000000000000000000000000000000000000000081526004016113ef906128b1565b60405180910390fd5b505050565b60606000600161140c8461186f565b01905060008167ffffffffffffffff81111561142b5761142a611d51565b5b6040519080825280601f01601f19166020018201604052801561145d5781602001600182028036833780820191505090505b509050600082602001820190505b6001156114c0578080600190039150507f3031323334353637383961626364656600000000000000000000000000000000600a86061a8153600a85816114b4576114b36128d1565b5b0494506000850361146b575b819350505050919050565b600073ffffffffffffffffffffffffffffffffffffffff168273ffffffffffffffffffffffffffffffffffffffff160361153a576040517f08c379a00000000000000000000000000000000000000000000000000000000081526004016115319061294c565b60405180910390fd5b61154381611361565b15611583576040517f08c379a000000000000000000000000000000000000000000000000000000000815260040161157a906129b8565b60405180910390fd5b6115916000838360016119c2565b61159a81611361565b156115da576040517f08c379a00000000000000000000000000000000000000000000000000000000081526004016115d1906129b8565b60405180910390fd5b6001600360008473ffffffffffffffffffffffffffffffffffffffff1673ffffffffffffffffffffffffffffffffffffffff16815260200190815260200160002060008282540192505081905550816002600083815260200190815260200160002060006101000a81548173ffffffffffffffffffffffffffffffffffffffff021916908373ffffffffffffffffffffffffffffffffffffffff160217905550808273ffffffffffffffffffffffffffffffffffffffff16600073ffffffffffffffffffffffffffffffffffffffff167fddf252ad1be2c89b69c2b068fc378daa952ba7f163c4a11628f55a4df523b3ef60405160405180910390a46116e46000838360016119c8565b5050565b60006117098473ffffffffffffffffffffffffffffffffffffffff166119ce565b15611862578373ffffffffffffffffffffffffffffffffffffffff1663150b7a02611732610e0d565b8786866040518563ffffffff1660e01b81526004016117549493929190612a2d565b6020604051808303816000875af192505050801561179057506040513d601f19601f8201168201806040525081019061178d9190612a8e565b60015b611812573d80600081146117c0576040519150601f19603f3d011682016040523d82523d6000602084013e6117c5565b606091505b50600081510361180a576040517f08c379a0000000000000000000000000000000000000000000000000000000008152600401611801906128b1565b60405180910390fd5b805181602001fd5b63150b7a0260e01b7bffffffffffffffffffffffffffffffffffffffffffffffffffffffff1916817bffffffffffffffffffffffffffffffffffffffffffffffffffffffff191614915050611867565b600190505b949350505050565b600080600090507a184f03e93ff9f4daa797ed6e38ed64bf6a1f01000000000000000083106118cd577a184f03e93ff9f4daa797ed6e38ed64bf6a1f01000000000000000083816118c3576118c26128d1565b5b0492506040810190505b6d04ee2d6d415b85acef8100000000831061190a576d04ee2d6d415b85acef81000000008381611900576118ff6128d1565b5b0492506020810190505b662386f26fc10000831061193957662386f26fc10000838161192f5761192e6128d1565b5b0492506010810190505b6305f5e1008310611962576305f5e1008381611958576119576128d1565b5b0492506008810190505b612710831061198757612710838161197d5761197c6128d1565b5b0492506004810190505b606483106119aa57606483816119a05761199f6128d1565b5b0492506002810190505b600a83106119b9576001810190505b80915050919050565b50505050565b50505050565b6000808273ffffffffffffffffffffffffffffffffffffffff163b119050919050565b6000604051905090565b600080fd5b600080fd5b60007fffffffff0000000000000000000000000000000000000000000000000000000082169050919050565b611a3a81611a05565b8114611a4557600080fd5b50565b600081359050611a5781611a31565b92915050565b600060208284031215611a7357611a726119fb565b5b6000611a8184828501611a48565b91505092915050565b60008115159050919050565b611a9f81611a8a565b82525050565b6000602082019050611aba6000830184611a96565b92915050565b600081519050919050565b600082825260208201905092915050565b60005b83811015611afa578082015181840152602081019050611adf565b60008484015250505050565b6000601f19601f8301169050919050565b6000611b2282611ac0565b611b2c8185611acb565b9350611b3c818560208601611adc565b611b4581611b06565b840191505092915050565b60006020820190508181036000830152611b6a8184611b17565b905092915050565b6000819050919050565b611b8581611b72565b8114611b9057600080fd5b50565b600081359050611ba281611b7c565b92915050565b600060208284031215611bbe57611bbd6119fb565b5b6000611bcc84828501611b93565b91505092915050565b600073ffffffffffffffffffffffffffffffffffffffff82169050919050565b6000611c0082611bd5565b9050919050565b611c1081611bf5565b82525050565b6000602082019050611c2b6000830184611c07565b92915050565b611c3a81611bf5565b8114611c4557600080fd5b50565b600081359050611c5781611c31565b92915050565b60008060408385031215611c7457611c736119fb565b5b6000611c8285828601611c48565b9250506020611c9385828601611b93565b9150509250929050565b600080600060608486031215611cb657611cb56119fb565b5b6000611cc486828701611c48565b9350506020611cd586828701611c48565b9250506040611ce686828701611b93565b9150509250925092565b600060208284031215611d0657611d056119fb565b5b6000611d1484828501611c48565b91505092915050565b611d2681611b72565b82525050565b6000602082019050611d416000830184611d1d565b92915050565b600080fd5b600080fd5b7f4e487b7100000000000000000000000000000000000000000000000000000000600052604160045260246000fd5b611d8982611b06565b810181811067ffffffffffffffff82111715611da857611da7611d51565b5b80604052505050565b6000611dbb6119f1565b9050611dc78282611d80565b919050565b600067ffffffffffffffff821115611de757611de6611d51565b5b611df082611b06565b9050602081019050919050565b82818337600083830152505050565b6000611e1f611e1a84611dcc565b611db1565b905082815260208101848484011115611e3b57611e3a611d4c565b5b611e46848285611dfd565b509392505050565b600082601f830112611e6357611e62611d47565b5b8135611e73848260208601611e0c565b91505092915050565b600060208284031215611e9257611e916119fb565b5b600082013567ffffffffffffffff811115611eb057611eaf611a00565b5b611ebc84828501611e4e565b91505092915050565b611ece81611a8a565b8114611ed957600080fd5b50565b600081359050611eeb81611ec5565b92915050565b60008060408385031215611f0857611f076119fb565b5b6000611f1685828601611c48565b9250506020611f2785828601611edc565b9150509250929050565b600081519050919050565b600082825260208201905092915050565b6000819050602082019050919050565b611f6681611bf5565b82525050565b6000611f788383611f5d565b60208301905092915050565b6000602082019050919050565b6000611f9c82611f31565b611fa68185611f3c565b9350611fb183611f4d565b8060005b83811015611fe2578151611fc98882611f6c565b9750611fd483611f84565b925050600181019050611fb5565b5085935050505092915050565b600060208201905081810360008301526120098184611f91565b905092915050565b600067ffffffffffffffff82111561202c5761202b611d51565b5b61203582611b06565b9050602081019050919050565b600061205561205084612011565b611db1565b90508281526020810184848401111561207157612070611d4c565b5b61207c848285611dfd565b509392505050565b600082601f83011261209957612098611d47565b5b81356120a9848260208601612042565b91505092915050565b600080600080608085870312156120cc576120cb6119fb565b5b60006120da87828801611c48565b94505060206120eb87828801611c48565b93505060406120fc87828801611b93565b925050606085013567ffffffffffffffff81111561211d5761211c611a00565b5b61212987828801612084565b91505092959194509250565b6000806040838503121561214c5761214b6119fb565b5b600061215a85828601611c48565b925050602061216b85828601611c48565b9150509250929050565b7f4e487b7100000000000000000000000000000000000000000000000000000000600052602260045260246000fd5b600060028204905060018216806121bc57607f821691505b6020821081036121cf576121ce612175565b5b50919050565b7f4552433732313a20617070726f76616c20746f2063757272656e74206f776e6560008201527f7200000000000000000000000000000000000000000000000000000000000000602082015250565b6000612231602183611acb565b915061223c826121d5565b604082019050919050565b6000602082019050818103600083015261226081612224565b9050919050565b7f4552433732313a20617070726f76652063616c6c6572206973206e6f7420746f60008201527f6b656e206f776e6572206f7220617070726f76656420666f7220616c6c000000602082015250565b60006122c3603d83611acb565b91506122ce82612267565b604082019050919050565b600060208201905081810360008301526122f2816122b6565b9050919050565b60008190508160005260206000209050919050565b60006020601f8301049050919050565b600082821b905092915050565b60006008830261235b7fffffffffffffffffffffffffffffffffffffffffffffffffffffffffffffffff8261231e565b612365868361231e565b95508019841693508086168417925050509392505050565b6000819050919050565b60006123a261239d61239884611b72565b61237d565b611b72565b9050919050565b6000819050919050565b6123bc83612387565b6123d06123c8826123a9565b84845461232b565b825550505050565b600090565b6123e56123d8565b6123f08184846123b3565b505050565b5b81811015612414576124096000826123dd565b6001810190506123f6565b5050565b601f8211156124595761242a816122f9565b6124338461230e565b81016020851015612442578190505b61245661244e8561230e565b8301826123f5565b50505b505050565b600082821c905092915050565b600061247c6000198460080261245e565b1980831691505092915050565b6000612495838361246b565b9150826002028217905092915050565b6124ae82611ac0565b67ffffffffffffffff8111156124c7576124c6611d51565b5b6124d182546121a4565b6124dc828285612418565b600060209050601f83116001811461250f57600084156124fd578287015190505b6125078582612489565b86555061256f565b601f19841661251d866122f9565b60005b8281101561254557848901518255600182019150602085019450602081019050612520565b86831015612562578489015161255e601f89168261246b565b8355505b6001600288020188555050505b505050505050565b7f4552433732313a20696e76616c696420746f6b656e2049440000000000000000600082015250565b60006125ad601883611acb565b91506125b882612577565b602082019050919050565b600060208201905081810360008301526125dc816125a0565b9050919050565b7f4552433732313a2061646472657373207a65726f206973206e6f74206120766160008201527f6c6964206f776e65720000000000000000000000000000000000000000000000602082015250565b600061263f602983611acb565b915061264a826125e3565b604082019050919050565b6000602082019050818103600083015261266e81612632565b9050919050565b600081905092915050565b600061268b82611ac0565b6126958185612675565b93506126a5818560208601611adc565b80840191505092915050565b60006126bd8285612680565b91506126c98284612680565b91508190509392505050565b7f4f776e61626c653a206e6577206f776e657220697320746865207a65726f206160008201527f6464726573730000000000000000000000000000000000000000000000000000602082015250565b6000612731602683611acb565b915061273c826126d5565b604082019050919050565b6000602082019050818103600083015261276081612724565b9050919050565b7f4f776e61626c653a2063616c6c6572206973206e6f7420746865206f776e6572600082015250565b600061279d602083611acb565b91506127a882612767565b602082019050919050565b600060208201905081810360008301526127cc81612790565b9050919050565b7f4552433732313a20617070726f766520746f2063616c6c657200000000000000600082015250565b6000612809601983611acb565b9150612814826127d3565b602082019050919050565b60006020820190508181036000830152612838816127fc565b9050919050565b7f4552433732313a207472616e7366657220746f206e6f6e20455243373231526560008201527f63656976657220696d706c656d656e7465720000000000000000000000000000602082015250565b600061289b603283611acb565b91506128a68261283f565b604082019050919050565b600060208201905081810360008301526128ca8161288e565b9050919050565b7f4e487b7100000000000000000000000000000000000000000000000000000000600052601260045260246000fd5b7f4552433732313a206d696e7420746f20746865207a65726f2061646472657373600082015250565b6000612936602083611acb565b915061294182612900565b602082019050919050565b6000602082019050818103600083015261296581612929565b9050919050565b7f4552433732313a20746f6b656e20616c7265616479206d696e74656400000000600082015250565b60006129a2601c83611acb565b91506129ad8261296c565b602082019050919050565b600060208201905081810360008301526129d181612995565b9050919050565b600081519050919050565b600082825260208201905092915050565b60006129ff826129d8565b612a0981856129e3565b9350612a19818560208601611adc565b612a2281611b06565b840191505092915050565b6000608082019050612a426000830187611c07565b612a4f6020830186611c07565b612a5c6040830185611d1d565b8181036060830152612a6e81846129f4565b905095945050505050565b600081519050612a8881611a31565b92915050565b600060208284031215612aa457612aa36119fb565b5b6000612ab284828501612a79565b9150509291505056fea26469706673582212204222400fac566d9e25c1f3fc976945f85566ac20d08d9399c1f07e0a3ad85ccf64736f6c63430008130033",
  "linkReferences": {},
  "deployedLinkReferences": {}
}