{
  "_format": "hh-sol-artifact-1",
  "contractName": "ExampleERC6551Account",
  "sourceName": "contracts/ExampleERC6551Account.sol",
  "abi": [
    {
      "inputs": [
        {
          "internalType": "address",
          "name": "to",
          "type": "address"
        },
        {
          "internalType": "uint256",
          "name": "value",
          "type": "uint256"
        },
        {
          "internalType": "bytes",
          "name": "data",
          "type": "bytes"
        },
        {
          "internalType": "uint256",
          "name": "operation",
          "type": "uint256"
        }
      ],
      "name": "execute",
      "outputs": [
        {
          "internalType": "bytes",
          "name": "result",
          "type": "bytes"
        }
      ],
      "stateMutability": "payable",
      "type": "function"
    },
    {
      "inputs": [
        {
          "internalType": "bytes32",
          "name": "hash",
          "type": "bytes32"
        },
        {
          "internalType": "bytes",
          "name": "signature",
          "type": "bytes"
        }
      ],
      "name": "isValidSignature",
      "outputs": [
        {
          "internalType": "bytes4",
          "name": "magicValue",
          "type": "bytes4"
        }
      ],
      "stateMutability": "view",
      "type": "function"
    },
    {
      "inputs": [
        {
          "internalType": "address",
          "name": "signer",
          "type": "address"
        },
        {
          "internalType": "bytes",
          "name": "",
          "type": "bytes"
        }
      ],
      "name": "isValidSigner",
      "outputs": [
        {
          "internalType": "bytes4",
          "name": "",
          "type": "bytes4"
        }
      ],
      "stateMutability": "view",
      "type": "function"
    },
    {
      "inputs": [],
      "name": "owner",
      "outputs": [
        {
          "internalType": "address",
          "name": "",
          "type": "address"
        }
      ],
      "stateMutability": "view",
      "type": "function"
    },
    {
      "inputs": [],
      "name": "state",
      "outputs": [
        {
          "internalType": "uint256",
          "name": "",
          "type": "uint256"
        }
      ],
      "stateMutability": "view",
      "type": "function"
    },
    {
      "inputs": [
        {
          "internalType": "bytes4",
          "name": "interfaceId",
          "type": "bytes4"
        }
      ],
      "name": "supportsInterface",
      "outputs": [
        {
          "internalType": "bool",
          "name": "",
          "type": "bool"
        }
      ],
      "stateMutability": "pure",
      "type": "function"
    },
    {
      "inputs": [],
      "name": "token",
      "outputs": [
        {
          "internalType": "uint256",
          "name": "",
          "type": "uint256"
        },
        {
          "internalType": "address",
          "name": "",
          "type": "address"
        },
        {
          "internalType": "uint256",
          "name": "",
          "type": "uint256"
        }
      ],
      "stateMutability": "view",
      "type": "function"
    },
    {
      "stateMutability": "payable",
      "type": "receive"
    }
  ],
  "bytecode": "0x608060405234801561001057600080fd5b5061134d806100206000396000f3fe6080604052600436106100745760003560e01c806374420f4c1161004e57806374420f4c146101375780638da5cb5b14610167578063c19d93fb14610192578063fc0c546a146101bd5761007b565b806301ffc9a7146100805780631626ba7e146100bd578063523e3260146100fa5761007b565b3661007b57005b600080fd5b34801561008c57600080fd5b506100a760048036038101906100a2919061099a565b6101ea565b6040516100b491906109e2565b60405180910390f35b3480156100c957600080fd5b506100e460048036038101906100df9190610b79565b610324565b6040516100f19190610be4565b60405180910390f35b34801561010657600080fd5b50610121600480360381019061011c9190610cbd565b61035d565b60405161012e9190610be4565b60405180910390f35b610151600480360381019061014c9190610d53565b61038b565b60405161015e9190610e5a565b60405180910390f35b34801561017357600080fd5b5061017c6104b9565b6040516101899190610e8b565b60405180910390f35b34801561019e57600080fd5b506101a7610563565b6040516101b49190610eb5565b60405180910390f35b3480156101c957600080fd5b506101d2610569565b6040516101e193929190610ed0565b60405180910390f35b60007f01ffc9a7000000000000000000000000000000000000000000000000000000007bffffffffffffffffffffffffffffffffffffffffffffffffffffffff1916827bffffffffffffffffffffffffffffffffffffffffffffffffffffffff191614806102b557507f6faff5f1000000000000000000000000000000000000000000000000000000007bffffffffffffffffffffffffffffffffffffffffffffffffffffffff1916827bffffffffffffffffffffffffffffffffffffffffffffffffffffffff1916145b8061031d57507f74420f4c000000000000000000000000000000000000000000000000000000007bffffffffffffffffffffffffffffffffffffffffffffffffffffffff1916827bffffffffffffffffffffffffffffffffffffffffffffffffffffffff1916145b9050919050565b6000806103396103326104b9565b85856105e9565b9050801561035157631626ba7e60e01b915050610357565b60009150505b92915050565b600061036884610678565b1561037c5763523e326060e01b9050610384565b600060e01b90505b9392505050565b606061039633610678565b6103d5576040517f08c379a00000000000000000000000000000000000000000000000000000000081526004016103cc90610f64565b60405180910390fd5b60008214610418576040517f08c379a000000000000000000000000000000000000000000000000000000000815260040161040f90610ff6565b60405180910390fd5b600080815461042690611045565b9190508190555060008673ffffffffffffffffffffffffffffffffffffffff168686866040516104579291906110bd565b60006040518083038185875af1925050503d8060008114610494576040519150601f19603f3d011682016040523d82523d6000602084013e610499565b606091505b508093508192505050806104af57815160208301fd5b5095945050505050565b6000806000806104c7610569565b9250925092504683146104e05760009350505050610560565b8173ffffffffffffffffffffffffffffffffffffffff16636352211e826040518263ffffffff1660e01b81526004016105199190610eb5565b602060405180830381865afa158015610536573d6000803e3d6000fd5b505050506040513d601f19601f8201168201806040525081019061055a91906110eb565b93505050505b90565b60005481565b600080600080606067ffffffffffffffff81111561058a57610589610a4e565b5b6040519080825280601f01601f1916602001820160405280156105bc5781602001600182028036833780820191505090505b5090506060604d60208301303c808060200190518101906105dd919061116b565b93509350935050909192565b60008060006105f885856106b7565b91509150600060048111156106105761060f6111be565b5b816004811115610623576106226111be565b5b14801561065b57508573ffffffffffffffffffffffffffffffffffffffff168273ffffffffffffffffffffffffffffffffffffffff16145b8061066d575061066c868686610708565b5b925050509392505050565b60006106826104b9565b73ffffffffffffffffffffffffffffffffffffffff168273ffffffffffffffffffffffffffffffffffffffff16149050919050565b60008060418351036106f85760008060006020860151925060408601519150606086015160001a90506106ec8782858561084c565b94509450505050610701565b60006002915091505b9250929050565b60008060008573ffffffffffffffffffffffffffffffffffffffff16631626ba7e60e01b868660405160240161073f9291906111fc565b604051602081830303815290604052907bffffffffffffffffffffffffffffffffffffffffffffffffffffffff19166020820180517bffffffffffffffffffffffffffffffffffffffffffffffffffffffff83818316178352505050506040516107a9919061125d565b600060405180830381855afa9150503d80600081146107e4576040519150601f19603f3d011682016040523d82523d6000602084013e6107e9565b606091505b50915091508180156107fd57506020815110155b80156108415750631626ba7e60e01b7bffffffffffffffffffffffffffffffffffffffffffffffffffffffff19168180602001905181019061083f9190611289565b145b925050509392505050565b6000807f7fffffffffffffffffffffffffffffff5d576e7357a4501ddfe92f46681b20a08360001c1115610887576000600391509150610925565b6000600187878787604051600081526020016040526040516108ac94939291906112d2565b6020604051602081039080840390855afa1580156108ce573d6000803e3d6000fd5b505050602060405103519050600073ffffffffffffffffffffffffffffffffffffffff168173ffffffffffffffffffffffffffffffffffffffff160361091c57600060019250925050610925565b80600092509250505b94509492505050565b6000604051905090565b600080fd5b600080fd5b60007fffffffff0000000000000000000000000000000000000000000000000000000082169050919050565b61097781610942565b811461098257600080fd5b50565b6000813590506109948161096e565b92915050565b6000602082840312156109b0576109af610938565b5b60006109be84828501610985565b91505092915050565b60008115159050919050565b6109dc816109c7565b82525050565b60006020820190506109f760008301846109d3565b92915050565b6000819050919050565b610a10816109fd565b8114610a1b57600080fd5b50565b600081359050610a2d81610a07565b92915050565b600080fd5b600080fd5b6000601f19601f8301169050919050565b7f4e487b7100000000000000000000000000000000000000000000000000000000600052604160045260246000fd5b610a8682610a3d565b810181811067ffffffffffffffff82111715610aa557610aa4610a4e565b5b80604052505050565b6000610ab861092e565b9050610ac48282610a7d565b919050565b600067ffffffffffffffff821115610ae457610ae3610a4e565b5b610aed82610a3d565b9050602081019050919050565b82818337600083830152505050565b6000610b1c610b1784610ac9565b610aae565b905082815260208101848484011115610b3857610b37610a38565b5b610b43848285610afa565b509392505050565b600082601f830112610b6057610b5f610a33565b5b8135610b70848260208601610b09565b91505092915050565b60008060408385031215610b9057610b8f610938565b5b6000610b9e85828601610a1e565b925050602083013567ffffffffffffffff811115610bbf57610bbe61093d565b5b610bcb85828601610b4b565b9150509250929050565b610bde81610942565b82525050565b6000602082019050610bf96000830184610bd5565b92915050565b600073ffffffffffffffffffffffffffffffffffffffff82169050919050565b6000610c2a82610bff565b9050919050565b610c3a81610c1f565b8114610c4557600080fd5b50565b600081359050610c5781610c31565b92915050565b600080fd5b600080fd5b60008083601f840112610c7d57610c7c610a33565b5b8235905067ffffffffffffffff811115610c9a57610c99610c5d565b5b602083019150836001820283011115610cb657610cb5610c62565b5b9250929050565b600080600060408486031215610cd657610cd5610938565b5b6000610ce486828701610c48565b935050602084013567ffffffffffffffff811115610d0557610d0461093d565b5b610d1186828701610c67565b92509250509250925092565b6000819050919050565b610d3081610d1d565b8114610d3b57600080fd5b50565b600081359050610d4d81610d27565b92915050565b600080600080600060808688031215610d6f57610d6e610938565b5b6000610d7d88828901610c48565b9550506020610d8e88828901610d3e565b945050604086013567ffffffffffffffff811115610daf57610dae61093d565b5b610dbb88828901610c67565b93509350506060610dce88828901610d3e565b9150509295509295909350565b600081519050919050565b600082825260208201905092915050565b60005b83811015610e15578082015181840152602081019050610dfa565b60008484015250505050565b6000610e2c82610ddb565b610e368185610de6565b9350610e46818560208601610df7565b610e4f81610a3d565b840191505092915050565b60006020820190508181036000830152610e748184610e21565b905092915050565b610e8581610c1f565b82525050565b6000602082019050610ea06000830184610e7c565b92915050565b610eaf81610d1d565b82525050565b6000602082019050610eca6000830184610ea6565b92915050565b6000606082019050610ee56000830186610ea6565b610ef26020830185610e7c565b610eff6040830184610ea6565b949350505050565b600082825260208201905092915050565b7f496e76616c6964207369676e6572000000000000000000000000000000000000600082015250565b6000610f4e600e83610f07565b9150610f5982610f18565b602082019050919050565b60006020820190508181036000830152610f7d81610f41565b9050919050565b7f4f6e6c792063616c6c206f7065726174696f6e732061726520737570706f727460008201527f6564000000000000000000000000000000000000000000000000000000000000602082015250565b6000610fe0602283610f07565b9150610feb82610f84565b604082019050919050565b6000602082019050818103600083015261100f81610fd3565b9050919050565b7f4e487b7100000000000000000000000000000000000000000000000000000000600052601160045260246000fd5b600061105082610d1d565b91507fffffffffffffffffffffffffffffffffffffffffffffffffffffffffffffffff820361108257611081611016565b5b600182019050919050565b600081905092915050565b60006110a4838561108d565b93506110b1838584610afa565b82840190509392505050565b60006110ca828486611098565b91508190509392505050565b6000815190506110e581610c31565b92915050565b60006020828403121561110157611100610938565b5b600061110f848285016110d6565b91505092915050565b60008151905061112781610d27565b92915050565b600061113882610bff565b9050919050565b6111488161112d565b811461115357600080fd5b50565b6000815190506111658161113f565b92915050565b60008060006060848603121561118457611183610938565b5b600061119286828701611118565b93505060206111a386828701611156565b92505060406111b486828701611118565b9150509250925092565b7f4e487b7100000000000000000000000000000000000000000000000000000000600052602160045260246000fd5b6111f6816109fd565b82525050565b600060408201905061121160008301856111ed565b81810360208301526112238184610e21565b90509392505050565b600061123782610ddb565b611241818561108d565b9350611251818560208601610df7565b80840191505092915050565b6000611269828461122c565b915081905092915050565b60008151905061128381610a07565b92915050565b60006020828403121561129f5761129e610938565b5b60006112ad84828501611274565b91505092915050565b600060ff82169050919050565b6112cc816112b6565b82525050565b60006080820190506112e760008301876111ed565b6112f460208301866112c3565b61130160408301856111ed565b61130e60608301846111ed565b9594505050505056fea26469706673582212205d593ebcee3943b603482e53434d8ce6f41cf4e03fe8bff93e5d6ae9d81e219f64736f6c63430008130033",
  "linkReferences": {},
  "deployedLinkReferences": {}
}