{
  "_format": "hh-sol-artifact-1",
  "contractName": "WiggleFreeClothing",
  "sourceName": "contracts/WiggleFreeClothing.sol",
  "abi": [
    {
      "inputs": [],
      "stateMutability": "nonpayable",
      "type": "constructor"
    },
    {
      "anonymous": false,
      "inputs": [
        {
          "indexed": true,
          "internalType": "address",
          "name": "owner",
          "type": "address"
        },
        {
          "indexed": true,
          "internalType": "address",
          "name": "approved",
          "type": "address"
        },
        {
          "indexed": true,
          "internalType": "uint256",
          "name": "tokenId",
          "type": "uint256"
        }
      ],
      "name": "Approval",
      "type": "event"
    },
    {
      "anonymous": false,
      "inputs": [
        {
          "indexed": true,
          "internalType": "address",
          "name": "owner",
          "type": "address"
        },
        {
          "indexed": true,
          "internalType": "address",
          "name": "operator",
          "type": "address"
        },
        {
          "indexed": false,
          "internalType": "bool",
          "name": "approved",
          "type": "bool"
        }
      ],
      "name": "ApprovalForAll",
      "type": "event"
    },
    {
      "anonymous": false,
      "inputs": [
        {
          "indexed": false,
          "internalType": "uint256",
          "name": "_fromTokenId",
          "type": "uint256"
        },
        {
          "indexed": false,
          "internalType": "uint256",
          "name": "_toTokenId",
          "type": "uint256"
        }
      ],
      "name": "BatchMetadataUpdate",
      "type": "event"
    },
    {
      "anonymous": false,
      "inputs": [
        {
          "indexed": false,
          "internalType": "uint256",
          "name": "_tokenId",
          "type": "uint256"
        }
      ],
      "name": "MetadataUpdate",
      "type": "event"
    },
    {
      "anonymous": false,
      "inputs": [
        {
          "indexed": true,
          "internalType": "address",
          "name": "previousOwner",
          "type": "address"
        },
        {
          "indexed": true,
          "internalType": "address",
          "name": "newOwner",
          "type": "address"
        }
      ],
      "name": "OwnershipTransferred",
      "type": "event"
    },
    {
      "anonymous": false,
      "inputs": [
        {
          "indexed": true,
          "internalType": "address",
          "name": "to",
          "type": "address"
        },
        {
          "indexed": false,
          "internalType": "uint256",
          "name": "tokenId",
          "type": "uint256"
        }
      ],
      "name": "TokenMinted",
      "type": "event"
    },
    {
      "anonymous": false,
      "inputs": [
        {
          "indexed": false,
          "internalType": "uint256",
          "name": "tokenId",
          "type": "uint256"
        },
        {
          "indexed": true,
          "internalType": "string",
          "name": "clothingURI",
          "type": "string"
        }
      ],
      "name": "TokenURISet",
      "type": "event"
    },
    {
      "anonymous": false,
      "inputs": [
        {
          "indexed": true,
          "internalType": "address",
          "name": "from",
          "type": "address"
        },
        {
          "indexed": true,
          "internalType": "address",
          "name": "to",
          "type": "address"
        },
        {
          "indexed": true,
          "internalType": "uint256",
          "name": "tokenId",
          "type": "uint256"
        }
      ],
      "name": "Transfer",
      "type": "event"
    },
    {
      "inputs": [
        {
          "internalType": "address",
          "name": "to",
          "type": "address"
        },
        {
          "internalType": "uint256",
          "name": "tokenId",
          "type": "uint256"
        }
      ],
      "name": "approve",
      "outputs": [],
      "stateMutability": "nonpayable",
      "type": "function"
    },
    {
      "inputs": [
        {
          "internalType": "address",
          "name": "owner",
          "type": "address"
        }
      ],
      "name": "balanceOf",
      "outputs": [
        {
          "internalType": "uint256",
          "name": "",
          "type": "uint256"
        }
      ],
      "stateMutability": "view",
      "type": "function"
    },
    {
      "inputs": [
        {
          "internalType": "uint256",
          "name": "tokenId",
          "type": "uint256"
        }
      ],
      "name": "getApproved",
      "outputs": [
        {
          "internalType": "address",
          "name": "",
          "type": "address"
        }
      ],
      "stateMutability": "view",
      "type": "function"
    },
    {
      "inputs": [
        {
          "internalType": "address",
          "name": "owner",
          "type": "address"
        }
      ],
      "name": "getClothingURIsByOwner",
      "outputs": [
        {
          "internalType": "string[]",
          "name": "",
          "type": "string[]"
        }
      ],
      "stateMutability": "view",
      "type": "function"
    },
    {
      "inputs": [
        {
          "internalType": "address",
          "name": "_address",
          "type": "address"
        }
      ],
      "name": "getTokenIdsByOwnerAddress",
      "outputs": [
        {
          "internalType": "uint256[]",
          "name": "",
          "type": "uint256[]"
        }
      ],
      "stateMutability": "view",
      "type": "function"
    },
    {
      "inputs": [
        {
          "internalType": "uint256",
          "name": "tokenId",
          "type": "uint256"
        }
      ],
      "name": "getTokenURI",
      "outputs": [
        {
          "internalType": "string",
          "name": "",
          "type": "string"
        }
      ],
      "stateMutability": "view",
      "type": "function"
    },
    {
      "inputs": [
        {
          "internalType": "address",
          "name": "owner",
          "type": "address"
        },
        {
          "internalType": "address",
          "name": "operator",
          "type": "address"
        }
      ],
      "name": "isApprovedForAll",
      "outputs": [
        {
          "internalType": "bool",
          "name": "",
          "type": "bool"
        }
      ],
      "stateMutability": "view",
      "type": "function"
    },
    {
      "inputs": [],
      "name": "name",
      "outputs": [
        {
          "internalType": "string",
          "name": "",
          "type": "string"
        }
      ],
      "stateMutability": "view",
      "type": "function"
    },
    {
      "inputs": [],
      "name": "owner",
      "outputs": [
        {
          "internalType": "address",
          "name": "",
          "type": "address"
        }
      ],
      "stateMutability": "view",
      "type": "function"
    },
    {
      "inputs": [
        {
          "internalType": "uint256",
          "name": "tokenId",
          "type": "uint256"
        }
      ],
      "name": "ownerOf",
      "outputs": [
        {
          "internalType": "address",
          "name": "",
          "type": "address"
        }
      ],
      "stateMutability": "view",
      "type": "function"
    },
    {
      "inputs": [],
      "name": "renounceOwnership",
      "outputs": [],
      "stateMutability": "nonpayable",
      "type": "function"
    },
    {
      "inputs": [
        {
          "internalType": "address",
          "name": "_to",
          "type": "address"
        },
        {
          "internalType": "string",
          "name": "_tokenURI",
          "type": "string"
        }
      ],
      "name": "safeMint",
      "outputs": [
        {
          "internalType": "uint256",
          "name": "",
          "type": "uint256"
        }
      ],
      "stateMutability": "nonpayable",
      "type": "function"
    },
    {
      "inputs": [
        {
          "internalType": "address",
          "name": "from",
          "type": "address"
        },
        {
          "internalType": "address",
          "name": "to",
          "type": "address"
        },
        {
          "internalType": "uint256",
          "name": "tokenId",
          "type": "uint256"
        }
      ],
      "name": "safeTransferFrom",
      "outputs": [],
      "stateMutability": "nonpayable",
      "type": "function"
    },
    {
      "inputs": [
        {
          "internalType": "address",
          "name": "from",
          "type": "address"
        },
        {
          "internalType": "address",
          "name": "to",
          "type": "address"
        },
        {
          "internalType": "uint256",
          "name": "tokenId",
          "type": "uint256"
        },
        {
          "internalType": "bytes",
          "name": "data",
          "type": "bytes"
        }
      ],
      "name": "safeTransferFrom",
      "outputs": [],
      "stateMutability": "nonpayable",
      "type": "function"
    },
    {
      "inputs": [
        {
          "internalType": "address",
          "name": "operator",
          "type": "address"
        },
        {
          "internalType": "bool",
          "name": "approved",
          "type": "bool"
        }
      ],
      "name": "setApprovalForAll",
      "outputs": [],
      "stateMutability": "nonpayable",
      "type": "function"
    },
    {
      "inputs": [
        {
          "internalType": "uint256",
          "name": "_tokenId",
          "type": "uint256"
        },
        {
          "internalType": "string",
          "name": "_tokenURI",
          "type": "string"
        }
      ],
      "name": "setTokenURI",
      "outputs": [],
      "stateMutability": "nonpayable",
      "type": "function"
    },
    {
      "inputs": [
        {
          "internalType": "bytes4",
          "name": "interfaceId",
          "type": "bytes4"
        }
      ],
      "name": "supportsInterface",
      "outputs": [
        {
          "internalType": "bool",
          "name": "",
          "type": "bool"
        }
      ],
      "stateMutability": "view",
      "type": "function"
    },
    {
      "inputs": [],
      "name": "symbol",
      "outputs": [
        {
          "internalType": "string",
          "name": "",
          "type": "string"
        }
      ],
      "stateMutability": "view",
      "type": "function"
    },
    {
      "inputs": [
        {
          "internalType": "uint256",
          "name": "tokenId",
          "type": "uint256"
        }
      ],
      "name": "tokenURI",
      "outputs": [
        {
          "internalType": "string",
          "name": "",
          "type": "string"
        }
      ],
      "stateMutability": "view",
      "type": "function"
    },
    {
      "inputs": [
        {
          "internalType": "address",
          "name": "from",
          "type": "address"
        },
        {
          "internalType": "address",
          "name": "to",
          "type": "address"
        },
        {
          "internalType": "uint256",
          "name": "tokenId",
          "type": "uint256"
        }
      ],
      "name": "transferFrom",
      "outputs": [],
      "stateMutability": "nonpayable",
      "type": "function"
    },
    {
      "inputs": [
        {
          "internalType": "address",
          "name": "newOwner",
          "type": "address"
        }
      ],
      "name": "transferOwnership",
      "outputs": [],
      "stateMutability": "nonpayable",
      "type": "function"
    }
  ],
  "bytecode": "0x60806040523480156200001157600080fd5b506040518060400160405280601281526020017f576967676c6546726565436c6f7468696e6700000000000000000000000000008152506040518060400160405280600781526020017f574746524354480000000000000000000000000000000000000000000000000081525081600090816200008f919062000412565b508060019081620000a1919062000412565b505050620000c4620000b8620000ca60201b60201c565b620000d260201b60201c565b620004f9565b600033905090565b6000600760009054906101000a900473ffffffffffffffffffffffffffffffffffffffff16905081600760006101000a81548173ffffffffffffffffffffffffffffffffffffffff021916908373ffffffffffffffffffffffffffffffffffffffff1602179055508173ffffffffffffffffffffffffffffffffffffffff168173ffffffffffffffffffffffffffffffffffffffff167f8be0079c531659141344cd1fd0a4f28419497f9722a3daafe3b4186f6b6457e060405160405180910390a35050565b600081519050919050565b7f4e487b7100000000000000000000000000000000000000000000000000000000600052604160045260246000fd5b7f4e487b7100000000000000000000000000000000000000000000000000000000600052602260045260246000fd5b600060028204905060018216806200021a57607f821691505b60208210810362000230576200022f620001d2565b5b50919050565b60008190508160005260206000209050919050565b60006020601f8301049050919050565b600082821b905092915050565b6000600883026200029a7fffffffffffffffffffffffffffffffffffffffffffffffffffffffffffffffff826200025b565b620002a686836200025b565b95508019841693508086168417925050509392505050565b6000819050919050565b6000819050919050565b6000620002f3620002ed620002e784620002be565b620002c8565b620002be565b9050919050565b6000819050919050565b6200030f83620002d2565b620003276200031e82620002fa565b84845462000268565b825550505050565b600090565b6200033e6200032f565b6200034b81848462000304565b505050565b5b8181101562000373576200036760008262000334565b60018101905062000351565b5050565b601f821115620003c2576200038c8162000236565b62000397846200024b565b81016020851015620003a7578190505b620003bf620003b6856200024b565b83018262000350565b50505b505050565b600082821c905092915050565b6000620003e760001984600802620003c7565b1980831691505092915050565b6000620004028383620003d4565b9150826002028217905092915050565b6200041d8262000198565b67ffffffffffffffff811115620004395762000438620001a3565b5b62000445825462000201565b6200045282828562000377565b600060209050601f8311600181146200048a576000841562000475578287015190505b620004818582620003f4565b865550620004f1565b601f1984166200049a8662000236565b60005b82811015620004c4578489015182556001820191506020850194506020810190506200049d565b86831015620004e45784890151620004e0601f891682620003d4565b8355505b6001600288020188555050505b505050505050565b6134fa80620005096000396000f3fe608060405234801561001057600080fd5b50600436106101375760003560e01c80636352211e116100b8578063a22cb4651161007c578063a22cb46514610360578063b88d4fde1461037c578063c87b56dd14610398578063d204c45e146103c8578063e985e9c5146103f8578063f2fde38b1461042857610137565b80636352211e146102ba57806370a08231146102ea578063715018a61461031a5780638da5cb5b1461032457806395d89b411461034257610137565b8063175841e5116100ff578063175841e5146101f257806323b872dd14610222578063245a73b91461023e5780633bb3a24d1461026e57806342842e0e1461029e57610137565b806301ffc9a71461013c57806306fdde031461016c578063081812fc1461018a578063095ea7b3146101ba578063162094c4146101d6575b600080fd5b6101566004803603810190610151919061206a565b610444565b60405161016391906120b2565b60405180910390f35b6101746104a5565b604051610181919061215d565b60405180910390f35b6101a4600480360381019061019f91906121b5565b610537565b6040516101b19190612223565b60405180910390f35b6101d460048036038101906101cf919061226a565b61057d565b005b6101f060048036038101906101eb91906123df565b610694565b005b61020c6004803603810190610207919061243b565b6106f7565b6040516102199190612574565b60405180910390f35b61023c60048036038101906102379190612596565b61080f565b005b6102586004803603810190610253919061243b565b61086f565b60405161026591906126a7565b60405180910390f35b610288600480360381019061028391906121b5565b610906565b604051610295919061215d565b60405180910390f35b6102b860048036038101906102b39190612596565b610918565b005b6102d460048036038101906102cf91906121b5565b610938565b6040516102e19190612223565b60405180910390f35b61030460048036038101906102ff919061243b565b6109be565b60405161031191906126d8565b60405180910390f35b610322610a75565b005b61032c610a89565b6040516103399190612223565b60405180910390f35b61034a610ab3565b604051610357919061215d565b60405180910390f35b61037a6004803603810190610375919061271f565b610b45565b005b61039660048036038101906103919190612800565b610b5b565b005b6103b260048036038101906103ad91906121b5565b610bbd565b6040516103bf919061215d565b60405180910390f35b6103e260048036038101906103dd9190612883565b610ccf565b6040516103ef91906126d8565b60405180910390f35b610412600480360381019061040d91906128df565b610dc3565b60405161041f91906120b2565b60405180910390f35b610442600480360381019061043d919061243b565b610e57565b005b6000634906490660e01b7bffffffffffffffffffffffffffffffffffffffffffffffffffffffff1916827bffffffffffffffffffffffffffffffffffffffffffffffffffffffff1916148061049e575061049d82610eda565b5b9050919050565b6060600080546104b49061294e565b80601f01602080910402602001604051908101604052809291908181526020018280546104e09061294e565b801561052d5780601f106105025761010080835404028352916020019161052d565b820191906000526020600020905b81548152906001019060200180831161051057829003601f168201915b5050505050905090565b600061054282610fbc565b6004600083815260200190815260200160002060009054906101000a900473ffffffffffffffffffffffffffffffffffffffff169050919050565b600061058882610938565b90508073ffffffffffffffffffffffffffffffffffffffff168373ffffffffffffffffffffffffffffffffffffffff16036105f8576040517f08c379a00000000000000000000000000000000000000000000000000000000081526004016105ef906129f1565b60405180910390fd5b8073ffffffffffffffffffffffffffffffffffffffff16610617611007565b73ffffffffffffffffffffffffffffffffffffffff161480610646575061064581610640611007565b610dc3565b5b610685576040517f08c379a000000000000000000000000000000000000000000000000000000000815260040161067c90612a83565b60405180910390fd5b61068f838361100f565b505050565b61069c6110c8565b6106a68282611146565b806040516106b49190612adf565b60405180910390207fda84ca2183491f179a603e877b2cb058e42195041c2b9c53d746427e519a34df836040516106eb91906126d8565b60405180910390a25050565b6060600a60008373ffffffffffffffffffffffffffffffffffffffff1673ffffffffffffffffffffffffffffffffffffffff168152602001908152602001600020805480602002602001604051908101604052809291908181526020016000905b828210156108045783829060005260206000200180546107779061294e565b80601f01602080910402602001604051908101604052809291908181526020018280546107a39061294e565b80156107f05780601f106107c5576101008083540402835291602001916107f0565b820191906000526020600020905b8154815290600101906020018083116107d357829003601f168201915b505050505081526020019060010190610758565b505050509050919050565b61082061081a611007565b826111ea565b61085f576040517f08c379a000000000000000000000000000000000000000000000000000000000815260040161085690612b68565b60405180910390fd5b61086a83838361127f565b505050565b6060600960008373ffffffffffffffffffffffffffffffffffffffff1673ffffffffffffffffffffffffffffffffffffffff1681526020019081526020016000208054806020026020016040519081016040528092919081815260200182805480156108fa57602002820191906000526020600020905b8154815260200190600101908083116108e6575b50505050509050919050565b606061091182610bbd565b9050919050565b61093383838360405180602001604052806000815250610b5b565b505050565b60008061094483611578565b9050600073ffffffffffffffffffffffffffffffffffffffff168173ffffffffffffffffffffffffffffffffffffffff16036109b5576040517f08c379a00000000000000000000000000000000000000000000000000000000081526004016109ac90612bd4565b60405180910390fd5b80915050919050565b60008073ffffffffffffffffffffffffffffffffffffffff168273ffffffffffffffffffffffffffffffffffffffff1603610a2e576040517f08c379a0000000000000000000000000000000000000000000000000000000008152600401610a2590612c66565b60405180910390fd5b600360008373ffffffffffffffffffffffffffffffffffffffff1673ffffffffffffffffffffffffffffffffffffffff168152602001908152602001600020549050919050565b610a7d6110c8565b610a8760006115b5565b565b6000600760009054906101000a900473ffffffffffffffffffffffffffffffffffffffff16905090565b606060018054610ac29061294e565b80601f0160208091040260200160405190810160405280929190818152602001828054610aee9061294e565b8015610b3b5780601f10610b1057610100808354040283529160200191610b3b565b820191906000526020600020905b815481529060010190602001808311610b1e57829003601f168201915b5050505050905090565b610b57610b50611007565b838361167b565b5050565b610b6c610b66611007565b836111ea565b610bab576040517f08c379a0000000000000000000000000000000000000000000000000000000008152600401610ba290612b68565b60405180910390fd5b610bb7848484846117e7565b50505050565b6060610bc882610fbc565b6000600660008481526020019081526020016000208054610be89061294e565b80601f0160208091040260200160405190810160405280929190818152602001828054610c149061294e565b8015610c615780601f10610c3657610100808354040283529160200191610c61565b820191906000526020600020905b815481529060010190602001808311610c4457829003601f168201915b505050505090506000610c72611843565b90506000815103610c87578192505050610cca565b600082511115610cbc578082604051602001610ca4929190612c86565b60405160208183030381529060405292505050610cca565b610cc58461185a565b925050505b919050565b6000610cd96110c8565b6000610ce560086118c2565b9050610cf160086118d0565b610cfb84826118e6565b600960008573ffffffffffffffffffffffffffffffffffffffff1673ffffffffffffffffffffffffffffffffffffffff1681526020019081526020016000208190806001815401808255809150506001900390600052602060002001600090919091909150558373ffffffffffffffffffffffffffffffffffffffff167fb9144c96c86541f6fa89c9f2f02495cccf4b08cd6643e26d34ee00aa586558a882604051610da791906126d8565b60405180910390a2610db98184610694565b8091505092915050565b6000600560008473ffffffffffffffffffffffffffffffffffffffff1673ffffffffffffffffffffffffffffffffffffffff16815260200190815260200160002060008373ffffffffffffffffffffffffffffffffffffffff1673ffffffffffffffffffffffffffffffffffffffff16815260200190815260200160002060009054906101000a900460ff16905092915050565b610e5f6110c8565b600073ffffffffffffffffffffffffffffffffffffffff168173ffffffffffffffffffffffffffffffffffffffff1603610ece576040517f08c379a0000000000000000000000000000000000000000000000000000000008152600401610ec590612d1c565b60405180910390fd5b610ed7816115b5565b50565b60007f80ac58cd000000000000000000000000000000000000000000000000000000007bffffffffffffffffffffffffffffffffffffffffffffffffffffffff1916827bffffffffffffffffffffffffffffffffffffffffffffffffffffffff19161480610fa557507f5b5e139f000000000000000000000000000000000000000000000000000000007bffffffffffffffffffffffffffffffffffffffffffffffffffffffff1916827bffffffffffffffffffffffffffffffffffffffffffffffffffffffff1916145b80610fb55750610fb482611904565b5b9050919050565b610fc58161196e565b611004576040517f08c379a0000000000000000000000000000000000000000000000000000000008152600401610ffb90612bd4565b60405180910390fd5b50565b600033905090565b816004600083815260200190815260200160002060006101000a81548173ffffffffffffffffffffffffffffffffffffffff021916908373ffffffffffffffffffffffffffffffffffffffff160217905550808273ffffffffffffffffffffffffffffffffffffffff1661108283610938565b73ffffffffffffffffffffffffffffffffffffffff167f8c5be1e5ebec7d5bd14f71427d1e84f3dd0314c0f7b2291e5b200ac8c7c3b92560405160405180910390a45050565b6110d0611007565b73ffffffffffffffffffffffffffffffffffffffff166110ee610a89565b73ffffffffffffffffffffffffffffffffffffffff1614611144576040517f08c379a000000000000000000000000000000000000000000000000000000000815260040161113b90612d88565b60405180910390fd5b565b61114f8261196e565b61118e576040517f08c379a000000000000000000000000000000000000000000000000000000000815260040161118590612e1a565b60405180910390fd5b806006600084815260200190815260200160002090816111ae9190612fe6565b507ff8e1a15aba9398e019f0b49df1a4fde98ee17ae345cb5f6b5e2c27f5033e8ce7826040516111de91906126d8565b60405180910390a15050565b6000806111f683610938565b90508073ffffffffffffffffffffffffffffffffffffffff168473ffffffffffffffffffffffffffffffffffffffff16148061123857506112378185610dc3565b5b8061127657508373ffffffffffffffffffffffffffffffffffffffff1661125e84610537565b73ffffffffffffffffffffffffffffffffffffffff16145b91505092915050565b8273ffffffffffffffffffffffffffffffffffffffff1661129f82610938565b73ffffffffffffffffffffffffffffffffffffffff16146112f5576040517f08c379a00000000000000000000000000000000000000000000000000000000081526004016112ec9061312a565b60405180910390fd5b600073ffffffffffffffffffffffffffffffffffffffff168273ffffffffffffffffffffffffffffffffffffffff1603611364576040517f08c379a000000000000000000000000000000000000000000000000000000000815260040161135b906131bc565b60405180910390fd5b61137183838360016119af565b8273ffffffffffffffffffffffffffffffffffffffff1661139182610938565b73ffffffffffffffffffffffffffffffffffffffff16146113e7576040517f08c379a00000000000000000000000000000000000000000000000000000000081526004016113de9061312a565b60405180910390fd5b6004600082815260200190815260200160002060006101000a81549073ffffffffffffffffffffffffffffffffffffffff02191690556001600360008573ffffffffffffffffffffffffffffffffffffffff1673ffffffffffffffffffffffffffffffffffffffff168152602001908152602001600020600082825403925050819055506001600360008473ffffffffffffffffffffffffffffffffffffffff1673ffffffffffffffffffffffffffffffffffffffff16815260200190815260200160002060008282540192505081905550816002600083815260200190815260200160002060006101000a81548173ffffffffffffffffffffffffffffffffffffffff021916908373ffffffffffffffffffffffffffffffffffffffff160217905550808273ffffffffffffffffffffffffffffffffffffffff168473ffffffffffffffffffffffffffffffffffffffff167fddf252ad1be2c89b69c2b068fc378daa952ba7f163c4a11628f55a4df523b3ef60405160405180910390a461157383838360016119b5565b505050565b60006002600083815260200190815260200160002060009054906101000a900473ffffffffffffffffffffffffffffffffffffffff169050919050565b6000600760009054906101000a900473ffffffffffffffffffffffffffffffffffffffff16905081600760006101000a81548173ffffffffffffffffffffffffffffffffffffffff021916908373ffffffffffffffffffffffffffffffffffffffff1602179055508173ffffffffffffffffffffffffffffffffffffffff168173ffffffffffffffffffffffffffffffffffffffff167f8be0079c531659141344cd1fd0a4f28419497f9722a3daafe3b4186f6b6457e060405160405180910390a35050565b8173ffffffffffffffffffffffffffffffffffffffff168373ffffffffffffffffffffffffffffffffffffffff16036116e9576040517f08c379a00000000000000000000000000000000000000000000000000000000081526004016116e090613228565b60405180910390fd5b80600560008573ffffffffffffffffffffffffffffffffffffffff1673ffffffffffffffffffffffffffffffffffffffff16815260200190815260200160002060008473ffffffffffffffffffffffffffffffffffffffff1673ffffffffffffffffffffffffffffffffffffffff16815260200190815260200160002060006101000a81548160ff0219169083151502179055508173ffffffffffffffffffffffffffffffffffffffff168373ffffffffffffffffffffffffffffffffffffffff167f17307eab39ab6107e8899845ad3d59bd9653f200f220920489ca2b5937696c31836040516117da91906120b2565b60405180910390a3505050565b6117f284848461127f565b6117fe848484846119bb565b61183d576040517f08c379a0000000000000000000000000000000000000000000000000000000008152600401611834906132ba565b60405180910390fd5b50505050565b606060405180602001604052806000815250905090565b606061186582610fbc565b600061186f611843565b9050600081511161188f57604051806020016040528060008152506118ba565b8061189984611b42565b6040516020016118aa929190612c86565b6040516020818303038152906040525b915050919050565b600081600001549050919050565b6001816000016000828254019250508190555050565b611900828260405180602001604052806000815250611c10565b5050565b60007f01ffc9a7000000000000000000000000000000000000000000000000000000007bffffffffffffffffffffffffffffffffffffffffffffffffffffffff1916827bffffffffffffffffffffffffffffffffffffffffffffffffffffffff1916149050919050565b60008073ffffffffffffffffffffffffffffffffffffffff1661199083611578565b73ffffffffffffffffffffffffffffffffffffffff1614159050919050565b50505050565b50505050565b60006119dc8473ffffffffffffffffffffffffffffffffffffffff16611c6b565b15611b35578373ffffffffffffffffffffffffffffffffffffffff1663150b7a02611a05611007565b8786866040518563ffffffff1660e01b8152600401611a27949392919061332f565b6020604051808303816000875af1925050508015611a6357506040513d601f19601f82011682018060405250810190611a609190613390565b60015b611ae5573d8060008114611a93576040519150601f19603f3d011682016040523d82523d6000602084013e611a98565b606091505b506000815103611add576040517f08c379a0000000000000000000000000000000000000000000000000000000008152600401611ad4906132ba565b60405180910390fd5b805181602001fd5b63150b7a0260e01b7bffffffffffffffffffffffffffffffffffffffffffffffffffffffff1916817bffffffffffffffffffffffffffffffffffffffffffffffffffffffff191614915050611b3a565b600190505b949350505050565b606060006001611b5184611c8e565b01905060008167ffffffffffffffff811115611b7057611b6f6122b4565b5b6040519080825280601f01601f191660200182016040528015611ba25781602001600182028036833780820191505090505b509050600082602001820190505b600115611c05578080600190039150507f3031323334353637383961626364656600000000000000000000000000000000600a86061a8153600a8581611bf957611bf86133bd565b5b04945060008503611bb0575b819350505050919050565b611c1a8383611de1565b611c2760008484846119bb565b611c66576040517f08c379a0000000000000000000000000000000000000000000000000000000008152600401611c5d906132ba565b60405180910390fd5b505050565b6000808273ffffffffffffffffffffffffffffffffffffffff163b119050919050565b600080600090507a184f03e93ff9f4daa797ed6e38ed64bf6a1f0100000000000000008310611cec577a184f03e93ff9f4daa797ed6e38ed64bf6a1f0100000000000000008381611ce257611ce16133bd565b5b0492506040810190505b6d04ee2d6d415b85acef81000000008310611d29576d04ee2d6d415b85acef81000000008381611d1f57611d1e6133bd565b5b0492506020810190505b662386f26fc100008310611d5857662386f26fc100008381611d4e57611d4d6133bd565b5b0492506010810190505b6305f5e1008310611d81576305f5e1008381611d7757611d766133bd565b5b0492506008810190505b6127108310611da6576127108381611d9c57611d9b6133bd565b5b0492506004810190505b60648310611dc95760648381611dbf57611dbe6133bd565b5b0492506002810190505b600a8310611dd8576001810190505b80915050919050565b600073ffffffffffffffffffffffffffffffffffffffff168273ffffffffffffffffffffffffffffffffffffffff1603611e50576040517f08c379a0000000000000000000000000000000000000000000000000000000008152600401611e4790613438565b60405180910390fd5b611e598161196e565b15611e99576040517f08c379a0000000000000000000000000000000000000000000000000000000008152600401611e90906134a4565b60405180910390fd5b611ea76000838360016119af565b611eb08161196e565b15611ef0576040517f08c379a0000000000000000000000000000000000000000000000000000000008152600401611ee7906134a4565b60405180910390fd5b6001600360008473ffffffffffffffffffffffffffffffffffffffff1673ffffffffffffffffffffffffffffffffffffffff16815260200190815260200160002060008282540192505081905550816002600083815260200190815260200160002060006101000a81548173ffffffffffffffffffffffffffffffffffffffff021916908373ffffffffffffffffffffffffffffffffffffffff160217905550808273ffffffffffffffffffffffffffffffffffffffff16600073ffffffffffffffffffffffffffffffffffffffff167fddf252ad1be2c89b69c2b068fc378daa952ba7f163c4a11628f55a4df523b3ef60405160405180910390a4611ffa6000838360016119b5565b5050565b6000604051905090565b600080fd5b600080fd5b60007fffffffff0000000000000000000000000000000000000000000000000000000082169050919050565b61204781612012565b811461205257600080fd5b50565b6000813590506120648161203e565b92915050565b6000602082840312156120805761207f612008565b5b600061208e84828501612055565b91505092915050565b60008115159050919050565b6120ac81612097565b82525050565b60006020820190506120c760008301846120a3565b92915050565b600081519050919050565b600082825260208201905092915050565b60005b838110156121075780820151818401526020810190506120ec565b60008484015250505050565b6000601f19601f8301169050919050565b600061212f826120cd565b61213981856120d8565b93506121498185602086016120e9565b61215281612113565b840191505092915050565b600060208201905081810360008301526121778184612124565b905092915050565b6000819050919050565b6121928161217f565b811461219d57600080fd5b50565b6000813590506121af81612189565b92915050565b6000602082840312156121cb576121ca612008565b5b60006121d9848285016121a0565b91505092915050565b600073ffffffffffffffffffffffffffffffffffffffff82169050919050565b600061220d826121e2565b9050919050565b61221d81612202565b82525050565b60006020820190506122386000830184612214565b92915050565b61224781612202565b811461225257600080fd5b50565b6000813590506122648161223e565b92915050565b6000806040838503121561228157612280612008565b5b600061228f85828601612255565b92505060206122a0858286016121a0565b9150509250929050565b600080fd5b600080fd5b7f4e487b7100000000000000000000000000000000000000000000000000000000600052604160045260246000fd5b6122ec82612113565b810181811067ffffffffffffffff8211171561230b5761230a6122b4565b5b80604052505050565b600061231e611ffe565b905061232a82826122e3565b919050565b600067ffffffffffffffff82111561234a576123496122b4565b5b61235382612113565b9050602081019050919050565b82818337600083830152505050565b600061238261237d8461232f565b612314565b90508281526020810184848401111561239e5761239d6122af565b5b6123a9848285612360565b509392505050565b600082601f8301126123c6576123c56122aa565b5b81356123d684826020860161236f565b91505092915050565b600080604083850312156123f6576123f5612008565b5b6000612404858286016121a0565b925050602083013567ffffffffffffffff8111156124255761242461200d565b5b612431858286016123b1565b9150509250929050565b60006020828403121561245157612450612008565b5b600061245f84828501612255565b91505092915050565b600081519050919050565b600082825260208201905092915050565b6000819050602082019050919050565b600082825260208201905092915050565b60006124b0826120cd565b6124ba8185612494565b93506124ca8185602086016120e9565b6124d381612113565b840191505092915050565b60006124ea83836124a5565b905092915050565b6000602082019050919050565b600061250a82612468565b6125148185612473565b93508360208202850161252685612484565b8060005b85811015612562578484038952815161254385826124de565b945061254e836124f2565b925060208a0199505060018101905061252a565b50829750879550505050505092915050565b6000602082019050818103600083015261258e81846124ff565b905092915050565b6000806000606084860312156125af576125ae612008565b5b60006125bd86828701612255565b93505060206125ce86828701612255565b92505060406125df868287016121a0565b9150509250925092565b600081519050919050565b600082825260208201905092915050565b6000819050602082019050919050565b61261e8161217f565b82525050565b60006126308383612615565b60208301905092915050565b6000602082019050919050565b6000612654826125e9565b61265e81856125f4565b935061266983612605565b8060005b8381101561269a5781516126818882612624565b975061268c8361263c565b92505060018101905061266d565b5085935050505092915050565b600060208201905081810360008301526126c18184612649565b905092915050565b6126d28161217f565b82525050565b60006020820190506126ed60008301846126c9565b92915050565b6126fc81612097565b811461270757600080fd5b50565b600081359050612719816126f3565b92915050565b6000806040838503121561273657612735612008565b5b600061274485828601612255565b92505060206127558582860161270a565b9150509250929050565b600067ffffffffffffffff82111561277a576127796122b4565b5b61278382612113565b9050602081019050919050565b60006127a361279e8461275f565b612314565b9050828152602081018484840111156127bf576127be6122af565b5b6127ca848285612360565b509392505050565b600082601f8301126127e7576127e66122aa565b5b81356127f7848260208601612790565b91505092915050565b6000806000806080858703121561281a57612819612008565b5b600061282887828801612255565b945050602061283987828801612255565b935050604061284a878288016121a0565b925050606085013567ffffffffffffffff81111561286b5761286a61200d565b5b612877878288016127d2565b91505092959194509250565b6000806040838503121561289a57612899612008565b5b60006128a885828601612255565b925050602083013567ffffffffffffffff8111156128c9576128c861200d565b5b6128d5858286016123b1565b9150509250929050565b600080604083850312156128f6576128f5612008565b5b600061290485828601612255565b925050602061291585828601612255565b9150509250929050565b7f4e487b7100000000000000000000000000000000000000000000000000000000600052602260045260246000fd5b6000600282049050600182168061296657607f821691505b6020821081036129795761297861291f565b5b50919050565b7f4552433732313a20617070726f76616c20746f2063757272656e74206f776e6560008201527f7200000000000000000000000000000000000000000000000000000000000000602082015250565b60006129db6021836120d8565b91506129e68261297f565b604082019050919050565b60006020820190508181036000830152612a0a816129ce565b9050919050565b7f4552433732313a20617070726f76652063616c6c6572206973206e6f7420746f60008201527f6b656e206f776e6572206f7220617070726f76656420666f7220616c6c000000602082015250565b6000612a6d603d836120d8565b9150612a7882612a11565b604082019050919050565b60006020820190508181036000830152612a9c81612a60565b9050919050565b600081905092915050565b6000612ab9826120cd565b612ac38185612aa3565b9350612ad38185602086016120e9565b80840191505092915050565b6000612aeb8284612aae565b915081905092915050565b7f4552433732313a2063616c6c6572206973206e6f7420746f6b656e206f776e6560008201527f72206f7220617070726f76656400000000000000000000000000000000000000602082015250565b6000612b52602d836120d8565b9150612b5d82612af6565b604082019050919050565b60006020820190508181036000830152612b8181612b45565b9050919050565b7f4552433732313a20696e76616c696420746f6b656e2049440000000000000000600082015250565b6000612bbe6018836120d8565b9150612bc982612b88565b602082019050919050565b60006020820190508181036000830152612bed81612bb1565b9050919050565b7f4552433732313a2061646472657373207a65726f206973206e6f74206120766160008201527f6c6964206f776e65720000000000000000000000000000000000000000000000602082015250565b6000612c506029836120d8565b9150612c5b82612bf4565b604082019050919050565b60006020820190508181036000830152612c7f81612c43565b9050919050565b6000612c928285612aae565b9150612c9e8284612aae565b91508190509392505050565b7f4f776e61626c653a206e6577206f776e657220697320746865207a65726f206160008201527f6464726573730000000000000000000000000000000000000000000000000000602082015250565b6000612d066026836120d8565b9150612d1182612caa565b604082019050919050565b60006020820190508181036000830152612d3581612cf9565b9050919050565b7f4f776e61626c653a2063616c6c6572206973206e6f7420746865206f776e6572600082015250565b6000612d726020836120d8565b9150612d7d82612d3c565b602082019050919050565b60006020820190508181036000830152612da181612d65565b9050919050565b7f45524337323155524953746f726167653a2055524920736574206f66206e6f6e60008201527f6578697374656e7420746f6b656e000000000000000000000000000000000000602082015250565b6000612e04602e836120d8565b9150612e0f82612da8565b604082019050919050565b60006020820190508181036000830152612e3381612df7565b9050919050565b60008190508160005260206000209050919050565b60006020601f8301049050919050565b600082821b905092915050565b600060088302612e9c7fffffffffffffffffffffffffffffffffffffffffffffffffffffffffffffffff82612e5f565b612ea68683612e5f565b95508019841693508086168417925050509392505050565b6000819050919050565b6000612ee3612ede612ed98461217f565b612ebe565b61217f565b9050919050565b6000819050919050565b612efd83612ec8565b612f11612f0982612eea565b848454612e6c565b825550505050565b600090565b612f26612f19565b612f31818484612ef4565b505050565b5b81811015612f5557612f4a600082612f1e565b600181019050612f37565b5050565b601f821115612f9a57612f6b81612e3a565b612f7484612e4f565b81016020851015612f83578190505b612f97612f8f85612e4f565b830182612f36565b50505b505050565b600082821c905092915050565b6000612fbd60001984600802612f9f565b1980831691505092915050565b6000612fd68383612fac565b9150826002028217905092915050565b612fef826120cd565b67ffffffffffffffff811115613008576130076122b4565b5b613012825461294e565b61301d828285612f59565b600060209050601f831160018114613050576000841561303e578287015190505b6130488582612fca565b8655506130b0565b601f19841661305e86612e3a565b60005b8281101561308657848901518255600182019150602085019450602081019050613061565b868310156130a3578489015161309f601f891682612fac565b8355505b6001600288020188555050505b505050505050565b7f4552433732313a207472616e736665722066726f6d20696e636f72726563742060008201527f6f776e6572000000000000000000000000000000000000000000000000000000602082015250565b60006131146025836120d8565b915061311f826130b8565b604082019050919050565b6000602082019050818103600083015261314381613107565b9050919050565b7f4552433732313a207472616e7366657220746f20746865207a65726f2061646460008201527f7265737300000000000000000000000000000000000000000000000000000000602082015250565b60006131a66024836120d8565b91506131b18261314a565b604082019050919050565b600060208201905081810360008301526131d581613199565b9050919050565b7f4552433732313a20617070726f766520746f2063616c6c657200000000000000600082015250565b60006132126019836120d8565b915061321d826131dc565b602082019050919050565b6000602082019050818103600083015261324181613205565b9050919050565b7f4552433732313a207472616e7366657220746f206e6f6e20455243373231526560008201527f63656976657220696d706c656d656e7465720000000000000000000000000000602082015250565b60006132a46032836120d8565b91506132af82613248565b604082019050919050565b600060208201905081810360008301526132d381613297565b9050919050565b600081519050919050565b600082825260208201905092915050565b6000613301826132da565b61330b81856132e5565b935061331b8185602086016120e9565b61332481612113565b840191505092915050565b60006080820190506133446000830187612214565b6133516020830186612214565b61335e60408301856126c9565b818103606083015261337081846132f6565b905095945050505050565b60008151905061338a8161203e565b92915050565b6000602082840312156133a6576133a5612008565b5b60006133b48482850161337b565b91505092915050565b7f4e487b7100000000000000000000000000000000000000000000000000000000600052601260045260246000fd5b7f4552433732313a206d696e7420746f20746865207a65726f2061646472657373600082015250565b60006134226020836120d8565b915061342d826133ec565b602082019050919050565b6000602082019050818103600083015261345181613415565b9050919050565b7f4552433732313a20746f6b656e20616c7265616479206d696e74656400000000600082015250565b600061348e601c836120d8565b915061349982613458565b602082019050919050565b600060208201905081810360008301526134bd81613481565b905091905056fea264697066735822122011710e9e3e7d398b0d5767a03fd7940f6acc5dfdcdafde6fab92eb7f6ccdd4c564736f6c63430008130033",
  "linkReferences": {},
  "deployedLinkReferences": {}
}